{
  "_format": "hh-sol-artifact-1",
  "contractName": "GemNFT",
  "sourceName": "contracts/GemNFT.sol",
  "abi": [
    {
      "inputs": [
        {
          "internalType": "address",
          "name": "_iRandom",
          "type": "address"
        },
        {
          "internalType": "address",
          "name": "_gstToken",
          "type": "address"
        },
        {
          "internalType": "address",
          "name": "_gmtToken",
          "type": "address"
        }
      ],
      "stateMutability": "nonpayable",
      "type": "constructor"
    },
    {
      "anonymous": false,
      "inputs": [
        {
          "indexed": true,
          "internalType": "address",
          "name": "owner",
          "type": "address"
        },
        {
          "indexed": true,
          "internalType": "address",
          "name": "approved",
          "type": "address"
        },
        {
          "indexed": true,
          "internalType": "uint256",
          "name": "tokenId",
          "type": "uint256"
        }
      ],
      "name": "Approval",
      "type": "event"
    },
    {
      "anonymous": false,
      "inputs": [
        {
          "indexed": true,
          "internalType": "address",
          "name": "owner",
          "type": "address"
        },
        {
          "indexed": true,
          "internalType": "address",
          "name": "operator",
          "type": "address"
        },
        {
          "indexed": false,
          "internalType": "bool",
          "name": "approved",
          "type": "bool"
        }
      ],
      "name": "ApprovalForAll",
      "type": "event"
    },
    {
      "anonymous": false,
      "inputs": [
        {
          "indexed": false,
          "internalType": "address",
          "name": "owner",
          "type": "address"
        },
        {
          "indexed": false,
          "internalType": "uint256",
          "name": "tokenId",
          "type": "uint256"
        },
        {
          "indexed": false,
          "internalType": "uint256",
          "name": "time",
          "type": "uint256"
        }
      ],
      "name": "BurnGem",
      "type": "event"
    },
    {
      "anonymous": false,
      "inputs": [
        {
          "indexed": true,
          "internalType": "address",
          "name": "_owner",
          "type": "address"
        },
        {
          "indexed": true,
          "internalType": "uint256",
          "name": "_id",
          "type": "uint256"
        },
        {
          "components": [
            {
              "internalType": "uint256",
              "name": "id",
              "type": "uint256"
            },
            {
              "internalType": "uint8",
              "name": "level",
              "type": "uint8"
            },
            {
              "internalType": "address",
              "name": "owner",
              "type": "address"
            },
            {
              "internalType": "enum Constants.Attributes",
              "name": "attribute",
              "type": "uint8"
            },
            {
              "internalType": "uint16",
              "name": "baseAttribute",
              "type": "uint16"
            },
            {
              "internalType": "uint16",
              "name": "effectAttribute",
              "type": "uint16"
            }
          ],
          "indexed": false,
          "internalType": "struct GemNFT.Gem",
          "name": "gem",
          "type": "tuple"
        }
      ],
      "name": "MintGem",
      "type": "event"
    },
    {
      "anonymous": false,
      "inputs": [
        {
          "indexed": true,
          "internalType": "address",
          "name": "previousOwner",
          "type": "address"
        },
        {
          "indexed": true,
          "internalType": "address",
          "name": "newOwner",
          "type": "address"
        }
      ],
      "name": "OwnershipTransferred",
      "type": "event"
    },
    {
      "anonymous": false,
      "inputs": [
        {
          "indexed": true,
          "internalType": "address",
          "name": "from",
          "type": "address"
        },
        {
          "indexed": true,
          "internalType": "address",
          "name": "to",
          "type": "address"
        },
        {
          "indexed": true,
          "internalType": "uint256",
          "name": "tokenId",
          "type": "uint256"
        }
      ],
      "name": "Transfer",
      "type": "event"
    },
    {
      "anonymous": false,
      "inputs": [
        {
          "indexed": true,
          "internalType": "address",
          "name": "from",
          "type": "address"
        },
        {
          "indexed": true,
          "internalType": "address",
          "name": "to",
          "type": "address"
        },
        {
          "indexed": true,
          "internalType": "uint256",
          "name": "tokenId",
          "type": "uint256"
        }
      ],
      "name": "TransferGem",
      "type": "event"
    },
    {
      "inputs": [
        {
          "internalType": "address",
          "name": "to",
          "type": "address"
        },
        {
          "internalType": "uint256",
          "name": "tokenId",
          "type": "uint256"
        }
      ],
      "name": "approve",
      "outputs": [],
      "stateMutability": "nonpayable",
      "type": "function"
    },
    {
      "inputs": [
        {
          "internalType": "address",
          "name": "owner",
          "type": "address"
        }
      ],
      "name": "balanceOf",
      "outputs": [
        {
          "internalType": "uint256",
          "name": "",
          "type": "uint256"
        }
      ],
      "stateMutability": "view",
      "type": "function"
    },
    {
      "inputs": [
        {
          "internalType": "uint256",
          "name": "_tokenId",
          "type": "uint256"
        }
      ],
      "name": "burn",
      "outputs": [],
      "stateMutability": "nonpayable",
      "type": "function"
    },
    {
      "inputs": [
        {
          "internalType": "uint256",
          "name": "_tokenId1",
          "type": "uint256"
        },
        {
          "internalType": "uint256",
          "name": "_tokenId2",
          "type": "uint256"
        },
        {
          "internalType": "uint256",
          "name": "_tokenId3",
          "type": "uint256"
        }
      ],
      "name": "combineGem",
      "outputs": [],
      "stateMutability": "nonpayable",
      "type": "function"
    },
    {
      "inputs": [
        {
          "internalType": "uint256",
          "name": "tokenId",
          "type": "uint256"
        }
      ],
      "name": "getApproved",
      "outputs": [
        {
          "internalType": "address",
          "name": "",
          "type": "address"
        }
      ],
      "stateMutability": "view",
      "type": "function"
    },
    {
      "inputs": [
        {
          "internalType": "uint256",
          "name": "_tokenId",
          "type": "uint256"
        }
      ],
      "name": "getGem",
      "outputs": [
        {
          "components": [
            {
              "internalType": "uint256",
              "name": "id",
              "type": "uint256"
            },
            {
              "internalType": "uint8",
              "name": "level",
              "type": "uint8"
            },
            {
              "internalType": "address",
              "name": "owner",
              "type": "address"
            },
            {
              "internalType": "enum Constants.Attributes",
              "name": "attribute",
              "type": "uint8"
            },
            {
              "internalType": "uint16",
              "name": "baseAttribute",
              "type": "uint16"
            },
            {
              "internalType": "uint16",
              "name": "effectAttribute",
              "type": "uint16"
            }
          ],
          "internalType": "struct GemNFT.Gem",
          "name": "",
          "type": "tuple"
        }
      ],
      "stateMutability": "view",
      "type": "function"
    },
    {
      "inputs": [
        {
          "internalType": "uint256",
          "name": "_tokenId",
          "type": "uint256"
        }
      ],
      "name": "getGemOwner",
      "outputs": [
        {
          "internalType": "address",
          "name": "",
          "type": "address"
        }
      ],
      "stateMutability": "view",
      "type": "function"
    },
    {
      "inputs": [],
      "name": "getIdCounter",
      "outputs": [
        {
          "internalType": "uint256",
          "name": "",
          "type": "uint256"
        }
      ],
      "stateMutability": "view",
      "type": "function"
    },
    {
      "inputs": [
        {
          "internalType": "address",
          "name": "owner",
          "type": "address"
        },
        {
          "internalType": "address",
          "name": "operator",
          "type": "address"
        }
      ],
      "name": "isApprovedForAll",
      "outputs": [
        {
          "internalType": "bool",
          "name": "",
          "type": "bool"
        }
      ],
      "stateMutability": "view",
      "type": "function"
    },
    {
      "inputs": [
        {
          "internalType": "address",
          "name": "_to",
          "type": "address"
        },
        {
          "internalType": "uint8",
          "name": "_level",
          "type": "uint8"
        }
      ],
      "name": "mint",
      "outputs": [],
      "stateMutability": "nonpayable",
      "type": "function"
    },
    {
      "inputs": [],
      "name": "name",
      "outputs": [
        {
          "internalType": "string",
          "name": "",
          "type": "string"
        }
      ],
      "stateMutability": "view",
      "type": "function"
    },
    {
      "inputs": [],
      "name": "owner",
      "outputs": [
        {
          "internalType": "address",
          "name": "",
          "type": "address"
        }
      ],
      "stateMutability": "view",
      "type": "function"
    },
    {
      "inputs": [
        {
          "internalType": "uint256",
          "name": "tokenId",
          "type": "uint256"
        }
      ],
      "name": "ownerOf",
      "outputs": [
        {
          "internalType": "address",
          "name": "",
          "type": "address"
        }
      ],
      "stateMutability": "view",
      "type": "function"
    },
    {
      "inputs": [],
      "name": "renounceOwnership",
      "outputs": [],
      "stateMutability": "nonpayable",
      "type": "function"
    },
    {
      "inputs": [
        {
          "internalType": "address",
          "name": "from",
          "type": "address"
        },
        {
          "internalType": "address",
          "name": "to",
          "type": "address"
        },
        {
          "internalType": "uint256",
          "name": "tokenId",
          "type": "uint256"
        }
      ],
      "name": "safeTransferFrom",
      "outputs": [],
      "stateMutability": "nonpayable",
      "type": "function"
    },
    {
      "inputs": [
        {
          "internalType": "address",
          "name": "from",
          "type": "address"
        },
        {
          "internalType": "address",
          "name": "to",
          "type": "address"
        },
        {
          "internalType": "uint256",
          "name": "tokenId",
          "type": "uint256"
        },
        {
          "internalType": "bytes",
          "name": "data",
          "type": "bytes"
        }
      ],
      "name": "safeTransferFrom",
      "outputs": [],
      "stateMutability": "nonpayable",
      "type": "function"
    },
    {
      "inputs": [
        {
          "internalType": "address",
          "name": "operator",
          "type": "address"
        },
        {
          "internalType": "bool",
          "name": "approved",
          "type": "bool"
        }
      ],
      "name": "setApprovalForAll",
      "outputs": [],
      "stateMutability": "nonpayable",
      "type": "function"
    },
    {
      "inputs": [
        {
          "internalType": "address",
          "name": "_to",
          "type": "address"
        },
        {
          "internalType": "bool",
          "name": "_approve",
          "type": "bool"
        }
      ],
      "name": "setApproveMint",
      "outputs": [],
      "stateMutability": "nonpayable",
      "type": "function"
    },
    {
      "inputs": [
        {
          "internalType": "bytes4",
          "name": "interfaceId",
          "type": "bytes4"
        }
      ],
      "name": "supportsInterface",
      "outputs": [
        {
          "internalType": "bool",
          "name": "",
          "type": "bool"
        }
      ],
      "stateMutability": "view",
      "type": "function"
    },
    {
      "inputs": [],
      "name": "symbol",
      "outputs": [
        {
          "internalType": "string",
          "name": "",
          "type": "string"
        }
      ],
      "stateMutability": "view",
      "type": "function"
    },
    {
      "inputs": [
        {
          "internalType": "uint256",
          "name": "index",
          "type": "uint256"
        }
      ],
      "name": "tokenByIndex",
      "outputs": [
        {
          "internalType": "uint256",
          "name": "",
          "type": "uint256"
        }
      ],
      "stateMutability": "view",
      "type": "function"
    },
    {
      "inputs": [
        {
          "internalType": "address",
          "name": "owner",
          "type": "address"
        },
        {
          "internalType": "uint256",
          "name": "index",
          "type": "uint256"
        }
      ],
      "name": "tokenOfOwnerByIndex",
      "outputs": [
        {
          "internalType": "uint256",
          "name": "",
          "type": "uint256"
        }
      ],
      "stateMutability": "view",
      "type": "function"
    },
    {
      "inputs": [
        {
          "internalType": "uint256",
          "name": "tokenId",
          "type": "uint256"
        }
      ],
      "name": "tokenURI",
      "outputs": [
        {
          "internalType": "string",
          "name": "",
          "type": "string"
        }
      ],
      "stateMutability": "view",
      "type": "function"
    },
    {
      "inputs": [],
      "name": "totalSupply",
      "outputs": [
        {
          "internalType": "uint256",
          "name": "",
          "type": "uint256"
        }
      ],
      "stateMutability": "view",
      "type": "function"
    },
    {
      "inputs": [
        {
          "internalType": "address",
          "name": "from",
          "type": "address"
        },
        {
          "internalType": "address",
          "name": "to",
          "type": "address"
        },
        {
          "internalType": "uint256",
          "name": "tokenId",
          "type": "uint256"
        }
      ],
      "name": "transferFrom",
      "outputs": [],
      "stateMutability": "nonpayable",
      "type": "function"
    },
    {
      "inputs": [
        {
          "internalType": "address",
          "name": "_from",
          "type": "address"
        },
        {
          "internalType": "address",
          "name": "_to",
          "type": "address"
        },
        {
          "internalType": "uint256",
          "name": "_tokenId",
          "type": "uint256"
        }
      ],
      "name": "transferGem",
      "outputs": [],
      "stateMutability": "nonpayable",
      "type": "function"
    },
    {
      "inputs": [
        {
          "internalType": "address",
          "name": "newOwner",
          "type": "address"
        }
      ],
      "name": "transferOwnership",
      "outputs": [],
      "stateMutability": "nonpayable",
      "type": "function"
    }
  ],
  "bytecode": "0x60806040523480156200001157600080fd5b5060405162002d6238038062002d62833981016040819052620000349162000324565b6040518060400160405280600381526020016247656d60e81b8152506040518060400160405280600381526020016247454d60e81b81525081600090805190602001906200008492919062000261565b5080516200009a90600190602084019062000261565b505050620000b7620000b16200020b60201b60201c565b6200020f565b6001600e556001600160a01b038316620001185760405162461bcd60e51b815260206004820152601c60248201527f6952616e646f6d2061646472657373206973206e6f742076616c69640000000060448201526064015b60405180910390fd5b6001600160a01b038216620001705760405162461bcd60e51b815260206004820152601d60248201527f475354546f6b656e2061646472657373206973206e6f742076616c696400000060448201526064016200010f565b6001600160a01b038116620001c85760405162461bcd60e51b815260206004820152601d60248201527f474d54546f6b656e2061646472657373206973206e6f742076616c696400000060448201526064016200010f565b600d80546001600160a01b039485166001600160a01b031991821617909155600b805493851693821693909317909255600c8054919093169116179055620003aa565b3390565b600a80546001600160a01b038381166001600160a01b0319831681179093556040519116919082907f8be0079c531659141344cd1fd0a4f28419497f9722a3daafe3b4186f6b6457e090600090a35050565b8280546200026f906200036d565b90600052602060002090601f016020900481019282620002935760008555620002de565b82601f10620002ae57805160ff1916838001178555620002de565b82800160010185558215620002de579182015b82811115620002de578251825591602001919060010190620002c1565b50620002ec929150620002f0565b5090565b5b80821115620002ec5760008155600101620002f1565b80516001600160a01b03811681146200031f57600080fd5b919050565b60008060006060848603121562000339578283fd5b620003448462000307565b9250620003546020850162000307565b9150620003646040850162000307565b90509250925092565b6002810460018216806200038257607f821691505b60208210811415620003a457634e487b7160e01b600052602260045260246000fd5b50919050565b6129a880620003ba6000396000f3fe608060405234801561001057600080fd5b50600436106101a95760003560e01c806366b6f145116100f9578063a22cb46511610097578063c3ae0d7f11610071578063c3ae0d7f1461037d578063c87b56dd14610390578063e985e9c5146103a3578063f2fde38b146103df576101a9565b8063a22cb46514610337578063aa723bb71461034a578063b88d4fde1461036a576101a9565b8063715018a6116100d3578063715018a6146103035780638da5cb5b1461030b57806395c9a0ec1461031c57806395d89b411461032f576101a9565b806366b6f145146102ca578063691562a0146102dd57806370a08231146102f0576101a9565b806323b872dd1161016657806342966c681161014057806342966c681461027e5780634989fd5f146102915780634f6ccce7146102a45780636352211e146102b7576101a9565b806323b872dd146102455780632f745c591461025857806342842e0e1461026b576101a9565b806301ffc9a7146101ae57806306fdde03146101d6578063081812fc146101eb578063095ea7b3146102165780630ca9203d1461022b57806318160ddd1461023d575b600080fd5b6101c16101bc366004612508565b6103f2565b60405190151581526020015b60405180910390f35b6101de61041f565b6040516101cd9190612633565b6101fe6101f9366004612540565b6104b2565b6040516001600160a01b0390911681526020016101cd565b610229610224366004612493565b6104d9565b005b600e545b6040519081526020016101cd565b60085461022f565b61022961025336600461234d565b6105f4565b61022f610266366004612493565b610625565b61022961027936600461234d565b6106bb565b61022961028c366004612540565b6106d6565b61022961029f366004612570565b610777565b61022f6102b2366004612540565b610e86565b6101fe6102c5366004612540565b610f27565b6102296102d836600461245d565b610f87565b6102296102eb3660046124bc565b610fff565b61022f6102fe366004612301565b61122a565b6102296112b0565b600a546001600160a01b03166101fe565b61022961032a36600461234d565b6112c4565b6101de611348565b61022961034536600461245d565b611357565b61035d610358366004612540565b611366565b6040516101cd919061272b565b610229610378366004612388565b61145a565b6101fe61038b366004612540565b611492565b6101de61039e366004612540565b61149d565b6101c16103b136600461231b565b6001600160a01b03918216600090815260056020908152604080832093909416825291909152205460ff1690565b6102296103ed366004612301565b611511565b60006001600160e01b0319821663780e9d6360e01b148061041757506104178261158a565b90505b919050565b60606000805461042e90612882565b80601f016020809104026020016040519081016040528092919081815260200182805461045a90612882565b80156104a75780601f1061047c576101008083540402835291602001916104a7565b820191906000526020600020905b81548152906001019060200180831161048a57829003601f168201915b505050505090505b90565b60006104bd826115da565b506000908152600460205260409020546001600160a01b031690565b60006104e482610f27565b9050806001600160a01b0316836001600160a01b031614156105575760405162461bcd60e51b815260206004820152602160248201527f4552433732313a20617070726f76616c20746f2063757272656e74206f776e656044820152603960f91b60648201526084015b60405180910390fd5b336001600160a01b0382161480610573575061057381336103b1565b6105e55760405162461bcd60e51b815260206004820152603e60248201527f4552433732313a20617070726f76652063616c6c6572206973206e6f7420746f60448201527f6b656e206f776e6572206e6f7220617070726f76656420666f7220616c6c0000606482015260840161054e565b6105ef8383611639565b505050565b6105fe33826116a7565b61061a5760405162461bcd60e51b815260040161054e906126dd565b6105ef838383611726565b60006106308361122a565b82106106925760405162461bcd60e51b815260206004820152602b60248201527f455243373231456e756d657261626c653a206f776e657220696e646578206f7560448201526a74206f6620626f756e647360a81b606482015260840161054e565b506001600160a01b03919091166000908152600660209081526040808320938352929052205490565b6105ef8383836040518060200160405280600081525061145a565b80336106e182610f27565b6001600160a01b0316146107075760405162461bcd60e51b815260040161054e90612698565b610710826118cd565b6000828152600f60209081526040808320928355600190920180546001600160d01b03191690558151338152908101849052428183015290517f78e0b73f1ce7824e5d949ff7a2d072971130c482a98a6f871bdb012d3785200c9181900360600190a15050565b823361078282610f27565b6001600160a01b0316146107a85760405162461bcd60e51b815260040161054e90612698565b82336107b382610f27565b6001600160a01b0316146107d95760405162461bcd60e51b815260040161054e90612698565b82336107e482610f27565b6001600160a01b03161461080a5760405162461bcd60e51b815260040161054e90612698565b6000868152600f60209081526040808320815160c08101835281548152600182015460ff808216958301959095526001600160a01b03610100820416938201939093529290916060840191600160a81b90910416600381111561087d57634e487b7160e01b600052602160045260246000fd5b600381111561089c57634e487b7160e01b600052602160045260246000fd5b815260019182015461ffff600160b01b82048116602080850191909152600160c01b9092041660409283015260008a8152600f8252828120835160c081018552815481529481015460ff808216948701949094526001600160a01b036101008204169486019490945294955093916060840191600160a81b90910416600381111561093757634e487b7160e01b600052602160045260246000fd5b600381111561095657634e487b7160e01b600052602160045260246000fd5b815260019182015461ffff600160b01b82048116602080850191909152600160c01b9092041660409283015260008a8152600f8252828120835160c081018552815481529481015460ff808216948701949094526001600160a01b036101008204169486019490945294955093916060840191600160a81b9091041660038111156109f157634e487b7160e01b600052602160045260246000fd5b6003811115610a1057634e487b7160e01b600052602160045260246000fd5b81526001919091015461ffff600160b01b82048116602080850191909152600160c01b90920416604090920191909152838101519085015191925060ff9182169116148015610a6c5750806020015160ff16826020015160ff16145b610ab85760405162461bcd60e51b815260206004820152601c60248201527f332067656d206d757374206265207468652073616d65206c6576656c00000000604482015260640161054e565b81606001516003811115610adc57634e487b7160e01b600052602160045260246000fd5b83606001516003811115610b0057634e487b7160e01b600052602160045260246000fd5b148015610b52575080606001516003811115610b2c57634e487b7160e01b600052602160045260246000fd5b82606001516003811115610b5057634e487b7160e01b600052602160045260246000fd5b145b610b9e5760405162461bcd60e51b815260206004820152601b60248201527f332067656d206d757374206265207468652073616d6520747970650000000000604482015260640161054e565b601e60ff16836020015160ff1610610bef5760405162461bcd60e51b815260206004820152601460248201527347656d206c6576656c206973206d6178696d756d60601b604482015260640161054e565b600b546001600160a01b03166323b872dd336040516001600160e01b031960e084901b1681526001600160a01b039091166004820152306024820152670de0b6b3a76400006044820152606401602060405180830381600087803b158015610c5657600080fd5b505af1158015610c6a573d6000803e3d6000fd5b505050506040513d601f19601f82011682018060405250810190610c8e91906124ec565b50600080610cab85602001516001610ca691906127dd565b611975565b9150915060006040518060c00160405280600e54815260200187602001516001610cd591906127dd565b60ff168152602001336001600160a01b0316815260200187606001516003811115610d1057634e487b7160e01b600052602160045260246000fd5b81526020018461ffff1681526020018361ffff168152509050610d3533600e54611a36565b600e546000908152600f60209081526040918290208351815590830151600182018054938501516001600160a01b031661010002610100600160a81b031960ff90931660ff1990951694909417919091169290921780835560608401518493909160ff60a81b1916600160a81b836003811115610dc257634e487b7160e01b600052602160045260246000fd5b021790555060808201516001909101805460a09093015161ffff908116600160c01b0261ffff60c01b1991909316600160b01b0261ffff60b01b199094169390931792909216179055600e5460405133907fcfd216f308ca13e8612690dbd781fb2c7282fc8648c5d65dcdbb753c51bac03090610e4090859061272b565b60405180910390a3600e8054906000610e58836128bd565b9190505550610e668c6106d6565b610e6f8b6106d6565b610e788a6106d6565b505050505050505050505050565b6000610e9160085490565b8210610ef45760405162461bcd60e51b815260206004820152602c60248201527f455243373231456e756d657261626c653a20676c6f62616c20696e646578206f60448201526b7574206f6620626f756e647360a01b606482015260840161054e565b60088281548110610f1557634e487b7160e01b600052603260045260246000fd5b90600052602060002001549050919050565b6000818152600260205260408120546001600160a01b0316806104175760405162461bcd60e51b8152602060048201526018602482015277115490cdcc8c4e881a5b9d985b1a59081d1bdad95b88125160421b604482015260640161054e565b6001600160a01b038216610fd45760405162461bcd60e51b81526020600482015260146024820152731859191c995cdcc81a5cc81b9bdd081d985b1a5960621b604482015260640161054e565b6001600160a01b03919091166000908152601060205260409020805460ff1916911515919091179055565b600a546001600160a01b031633148061102757503360009081526010602052604090205460ff165b61106a5760405162461bcd60e51b8152602060048201526014602482015273155b985d5d1a1bdc9a5e9959081d1bc81b5a5b9d60621b604482015260640161054e565b60008061107683611975565b9150915060006040518060c00160405280600e5481526020018560ff168152602001866001600160a01b031681526020016110af611a50565b60038111156110ce57634e487b7160e01b600052602160045260246000fd5b815261ffff808616602080840191909152908516604092830152600e546000908152600f82528290208351815590830151600182018054938501516001600160a01b031661010002610100600160a81b031960ff90931660ff199095169490941791909116929092178083556060840151939450849391929060ff60a81b1916600160a81b83600381111561117357634e487b7160e01b600052602160045260246000fd5b021790555060808201516001909101805460a09093015161ffff908116600160c01b0261ffff60c01b1991909316600160b01b0261ffff60b01b199094169390931792909216179055600e546111ca908690611a36565b600e54856001600160a01b03167fcfd216f308ca13e8612690dbd781fb2c7282fc8648c5d65dcdbb753c51bac03083604051611206919061272b565b60405180910390a3600e805490600061121e836128bd565b91905055505050505050565b60006001600160a01b0382166112945760405162461bcd60e51b815260206004820152602960248201527f4552433732313a2061646472657373207a65726f206973206e6f7420612076616044820152683634b21037bbb732b960b91b606482015260840161054e565b506001600160a01b031660009081526003602052604090205490565b6112b8611b1b565b6112c26000611b75565b565b6112cf8383836105f4565b80826001600160a01b0316846001600160a01b03167ff2b1369fd40b1b25f04e7320e25a7343d5aea8a6a9f9af5acb445c4738b50ac360405160405180910390a46000908152600f6020526040902060010180546001600160a01b0390921661010002610100600160a81b031990921691909117905550565b60606001805461042e90612882565b611362338383611bc7565b5050565b6040805160c081018252600080825260208201819052918101829052606081018290526080810182905260a08101919091526000828152600f6020908152604091829020825160c08101845281548152600182015460ff808216948301949094526001600160a01b03610100820416948201949094529290916060840191600160a81b900416600381111561140b57634e487b7160e01b600052602160045260246000fd5b600381111561142a57634e487b7160e01b600052602160045260246000fd5b81526001919091015461ffff600160b01b820481166020840152600160c01b909104166040909101529050919050565b61146433836116a7565b6114805760405162461bcd60e51b815260040161054e906126dd565b61148c84848484611c96565b50505050565b600061041782610f27565b60606114a8826115da565b60006114bf60408051602081019091526000815290565b905060008151116114df576040518060200160405280600081525061150a565b806114e984611cc9565b6040516020016114fa9291906125c7565b6040516020818303038152906040525b9392505050565b611519611b1b565b6001600160a01b03811661157e5760405162461bcd60e51b815260206004820152602660248201527f4f776e61626c653a206e6577206f776e657220697320746865207a65726f206160448201526564647265737360d01b606482015260840161054e565b61158781611b75565b50565b60006001600160e01b031982166380ac58cd60e01b14806115bb57506001600160e01b03198216635b5e139f60e01b145b8061041757506301ffc9a760e01b6001600160e01b0319831614610417565b6000818152600260205260409020546001600160a01b03166115875760405162461bcd60e51b8152602060048201526018602482015277115490cdcc8c4e881a5b9d985b1a59081d1bdad95b88125160421b604482015260640161054e565b600081815260046020526040902080546001600160a01b0319166001600160a01b038416908117909155819061166e82610f27565b6001600160a01b03167f8c5be1e5ebec7d5bd14f71427d1e84f3dd0314c0f7b2291e5b200ac8c7c3b92560405160405180910390a45050565b6000806116b383610f27565b9050806001600160a01b0316846001600160a01b031614806116fa57506001600160a01b0380821660009081526005602090815260408083209388168352929052205460ff165b8061171e5750836001600160a01b0316611713846104b2565b6001600160a01b0316145b949350505050565b826001600160a01b031661173982610f27565b6001600160a01b03161461179d5760405162461bcd60e51b815260206004820152602560248201527f4552433732313a207472616e736665722066726f6d20696e636f72726563742060448201526437bbb732b960d91b606482015260840161054e565b6001600160a01b0382166117ff5760405162461bcd60e51b8152602060048201526024808201527f4552433732313a207472616e7366657220746f20746865207a65726f206164646044820152637265737360e01b606482015260840161054e565b61180a838383611de4565b611815600082611639565b6001600160a01b038316600090815260036020526040812080546001929061183e90849061283f565b90915550506001600160a01b038216600090815260036020526040812080546001929061186c9084906127c5565b909155505060008181526002602052604080822080546001600160a01b0319166001600160a01b0386811691821790925591518493918716917fddf252ad1be2c89b69c2b068fc378daa952ba7f163c4a11628f55a4df523b3ef91a46105ef565b60006118d882610f27565b90506118e681600084611de4565b6118f1600083611639565b6001600160a01b038116600090815260036020526040812080546001929061191a90849061283f565b909155505060008281526002602052604080822080546001600160a01b0319169055518391906001600160a01b038416907fddf252ad1be2c89b69c2b068fc378daa952ba7f163c4a11628f55a4df523b3ef908390a4611362565b600080601e60ff841611156119c05760405162461bcd60e51b815260206004820152601160248201527011d95b5391950e881b585e081b195d995b607a1b604482015260640161054e565b6002600560015b8560ff168160ff1611611a2e57806119df8185612816565b6119e991906127dd565b6119f69060ff16866127a8565b945080611a038184612816565b611a0d91906127dd565b611a1a9060ff16856127a8565b935080611a26816128d8565b9150506119c7565b505050915091565b611362828260405180602001604052806000815250611ea1565b600d5460405163dba2586160e01b8152600060048201819052600360248301529182916001600160a01b039091169063dba2586190604401602060405180830381600087803b158015611aa257600080fd5b505af1158015611ab6573d6000803e3d6000fd5b505050506040513d601f19601f82011682018060405250810190611ada9190612558565b905080611aeb5760009150506104af565b8060011415611afe5760019150506104af565b8060021415611b115760029150506104af565b60039150506104af565b600a546001600160a01b031633146112c25760405162461bcd60e51b815260206004820181905260248201527f4f776e61626c653a2063616c6c6572206973206e6f7420746865206f776e6572604482015260640161054e565b600a80546001600160a01b038381166001600160a01b0319831681179093556040519116919082907f8be0079c531659141344cd1fd0a4f28419497f9722a3daafe3b4186f6b6457e090600090a35050565b816001600160a01b0316836001600160a01b03161415611c295760405162461bcd60e51b815260206004820152601960248201527f4552433732313a20617070726f766520746f2063616c6c657200000000000000604482015260640161054e565b6001600160a01b03838116600081815260056020908152604080832094871680845294825291829020805460ff191686151590811790915591519182527f17307eab39ab6107e8899845ad3d59bd9653f200f220920489ca2b5937696c31910160405180910390a3505050565b611ca1848484611726565b611cad84848484611ed4565b61148c5760405162461bcd60e51b815260040161054e90612646565b606081611cee57506040805180820190915260018152600360fc1b602082015261041a565b8160005b8115611d185780611d02816128bd565b9150611d119050600a83612802565b9150611cf2565b60008167ffffffffffffffff811115611d4157634e487b7160e01b600052604160045260246000fd5b6040519080825280601f01601f191660200182016040528015611d6b576020820181803683370190505b5090505b841561171e57611d8060018361283f565b9150611d8d600a866128f8565b611d989060306127c5565b60f81b818381518110611dbb57634e487b7160e01b600052603260045260246000fd5b60200101906001600160f81b031916908160001a905350611ddd600a86612802565b9450611d6f565b6001600160a01b038316611e3f57611e3a81600880546000838152600960205260408120829055600182018355919091527ff3f7a9fe364faab93b216da50a3214154f22a0a2b415b23a84c8169e8b636ee30155565b611e62565b816001600160a01b0316836001600160a01b031614611e6257611e628382611fe1565b6001600160a01b038216611e7e57611e798161207e565b6105ef565b826001600160a01b0316826001600160a01b0316146105ef576105ef8282612157565b611eab838361219b565b611eb86000848484611ed4565b6105ef5760405162461bcd60e51b815260040161054e90612646565b60006001600160a01b0384163b15611fd657604051630a85bd0160e11b81526001600160a01b0385169063150b7a0290611f189033908990889088906004016125f6565b602060405180830381600087803b158015611f3257600080fd5b505af1925050508015611f62575060408051601f3d908101601f19168201909252611f5f91810190612524565b60015b611fbc573d808015611f90576040519150601f19603f3d011682016040523d82523d6000602084013e611f95565b606091505b508051611fb45760405162461bcd60e51b815260040161054e90612646565b805181602001fd5b6001600160e01b031916630a85bd0160e11b14905061171e565b506001949350505050565b60006001611fee8461122a565b611ff8919061283f565b60008381526007602052604090205490915080821461204b576001600160a01b03841660009081526006602090815260408083208584528252808320548484528184208190558352600790915290208190555b5060009182526007602090815260408084208490556001600160a01b039094168352600681528383209183525290812055565b6008546000906120909060019061283f565b600083815260096020526040812054600880549394509092849081106120c657634e487b7160e01b600052603260045260246000fd5b9060005260206000200154905080600883815481106120f557634e487b7160e01b600052603260045260246000fd5b600091825260208083209091019290925582815260099091526040808220849055858252812055600880548061213b57634e487b7160e01b600052603160045260246000fd5b6001900381819060005260206000200160009055905550505050565b60006121628361122a565b6001600160a01b039093166000908152600660209081526040808320868452825280832085905593825260079052919091209190915550565b6001600160a01b0382166121f15760405162461bcd60e51b815260206004820181905260248201527f4552433732313a206d696e7420746f20746865207a65726f2061646472657373604482015260640161054e565b6000818152600260205260409020546001600160a01b0316156122565760405162461bcd60e51b815260206004820152601c60248201527f4552433732313a20746f6b656e20616c7265616479206d696e74656400000000604482015260640161054e565b61226260008383611de4565b6001600160a01b038216600090815260036020526040812080546001929061228b9084906127c5565b909155505060008181526002602052604080822080546001600160a01b0319166001600160a01b03861690811790915590518392907fddf252ad1be2c89b69c2b068fc378daa952ba7f163c4a11628f55a4df523b3ef908290a4611362565b80356001600160a01b038116811461041a57600080fd5b600060208284031215612312578081fd5b61150a826122ea565b6000806040838503121561232d578081fd5b612336836122ea565b9150612344602084016122ea565b90509250929050565b600080600060608486031215612361578081fd5b61236a846122ea565b9250612378602085016122ea565b9150604084013590509250925092565b6000806000806080858703121561239d578081fd5b6123a6856122ea565b93506123b4602086016122ea565b925060408501359150606085013567ffffffffffffffff808211156123d7578283fd5b818701915087601f8301126123ea578283fd5b8135818111156123fc576123fc612938565b604051601f8201601f19908116603f0116810190838211818310171561242457612424612938565b816040528281528a602084870101111561243c578586fd5b82602086016020830137918201602001949094529598949750929550505050565b6000806040838503121561246f578182fd5b612478836122ea565b915060208301356124888161294e565b809150509250929050565b600080604083850312156124a5578182fd5b6124ae836122ea565b946020939093013593505050565b600080604083850312156124ce578182fd5b6124d7836122ea565b9150602083013560ff81168114612488578182fd5b6000602082840312156124fd578081fd5b815161150a8161294e565b600060208284031215612519578081fd5b813561150a8161295c565b600060208284031215612535578081fd5b815161150a8161295c565b600060208284031215612551578081fd5b5035919050565b600060208284031215612569578081fd5b5051919050565b600080600060608486031215612584578283fd5b505081359360208301359350604090920135919050565b600081518084526125b3816020860160208601612856565b601f01601f19169290920160200192915050565b600083516125d9818460208801612856565b8351908301906125ed818360208801612856565b01949350505050565b6001600160a01b03858116825284166020820152604081018390526080606082018190526000906126299083018461259b565b9695505050505050565b60006020825261150a602083018461259b565b60208082526032908201527f4552433732313a207472616e7366657220746f206e6f6e20455243373231526560408201527131b2b4bb32b91034b6b83632b6b2b73a32b960711b606082015260800190565b60208082526025908201527f4f6e6c792067656d206f776e65722063616e2063616c6c20746869732066756e60408201526431ba34b7b760d91b606082015260800190565b6020808252602e908201527f4552433732313a2063616c6c6572206973206e6f7420746f6b656e206f776e6560408201526d1c881b9bdc88185c1c1c9bdd995960921b606082015260800190565b8151815260208083015160ff16908201526040808301516001600160a01b031690820152606082015160c08201906004811061277757634e487b7160e01b600052602160045260246000fd5b8060608401525061ffff608084015116608083015260a08301516127a160a084018261ffff169052565b5092915050565b600061ffff8083168185168083038211156125ed576125ed61290c565b600082198211156127d8576127d861290c565b500190565b600060ff821660ff84168060ff038211156127fa576127fa61290c565b019392505050565b60008261281157612811612922565b500490565b600060ff821660ff84168160ff04811182151516156128375761283761290c565b029392505050565b6000828210156128515761285161290c565b500390565b60005b83811015612871578181015183820152602001612859565b8381111561148c5750506000910152565b60028104600182168061289657607f821691505b602082108114156128b757634e487b7160e01b600052602260045260246000fd5b50919050565b60006000198214156128d1576128d161290c565b5060010190565b600060ff821660ff8114156128ef576128ef61290c565b60010192915050565b60008261290757612907612922565b500690565b634e487b7160e01b600052601160045260246000fd5b634e487b7160e01b600052601260045260246000fd5b634e487b7160e01b600052604160045260246000fd5b801515811461158757600080fd5b6001600160e01b03198116811461158757600080fdfea26469706673582212202e453ff834675d1baeb9d196aa4bb581dea6e548978e4d6f6766144ce2629d6f64736f6c63430008020033",
  "linkReferences": {},
  "deployedLinkReferences": {}
}