{
  "_format": "hh-sol-artifact-1",
  "contractName": "GMTToken",
  "sourceName": "contracts/GMTToken.sol",
  "abi": [
    {
      "inputs": [],
      "stateMutability": "nonpayable",
      "type": "constructor"
    },
    {
      "anonymous": false,
      "inputs": [
        {
          "indexed": true,
          "internalType": "address",
          "name": "owner",
          "type": "address"
        },
        {
          "indexed": true,
          "internalType": "address",
          "name": "spender",
          "type": "address"
        },
        {
          "indexed": false,
          "internalType": "uint256",
          "name": "value",
          "type": "uint256"
        }
      ],
      "name": "Approval",
      "type": "event"
    },
    {
      "anonymous": false,
      "inputs": [
        {
          "indexed": true,
          "internalType": "address",
          "name": "previousOwner",
          "type": "address"
        },
        {
          "indexed": true,
          "internalType": "address",
          "name": "newOwner",
          "type": "address"
        }
      ],
      "name": "OwnershipTransferred",
      "type": "event"
    },
    {
      "anonymous": false,
      "inputs": [
        {
          "indexed": true,
          "internalType": "address",
          "name": "from",
          "type": "address"
        },
        {
          "indexed": true,
          "internalType": "address",
          "name": "to",
          "type": "address"
        },
        {
          "indexed": false,
          "internalType": "uint256",
          "name": "value",
          "type": "uint256"
        }
      ],
      "name": "Transfer",
      "type": "event"
    },
    {
      "inputs": [
        {
          "internalType": "address",
          "name": "owner",
          "type": "address"
        },
        {
          "internalType": "address",
          "name": "spender",
          "type": "address"
        }
      ],
      "name": "allowance",
      "outputs": [
        {
          "internalType": "uint256",
          "name": "",
          "type": "uint256"
        }
      ],
      "stateMutability": "view",
      "type": "function"
    },
    {
      "inputs": [
        {
          "internalType": "address",
          "name": "spender",
          "type": "address"
        },
        {
          "internalType": "uint256",
          "name": "amount",
          "type": "uint256"
        }
      ],
      "name": "approve",
      "outputs": [
        {
          "internalType": "bool",
          "name": "",
          "type": "bool"
        }
      ],
      "stateMutability": "nonpayable",
      "type": "function"
    },
    {
      "inputs": [
        {
          "internalType": "address",
          "name": "account",
          "type": "address"
        }
      ],
      "name": "balanceOf",
      "outputs": [
        {
          "internalType": "uint256",
          "name": "",
          "type": "uint256"
        }
      ],
      "stateMutability": "view",
      "type": "function"
    },
    {
      "inputs": [],
      "name": "decimals",
      "outputs": [
        {
          "internalType": "uint8",
          "name": "",
          "type": "uint8"
        }
      ],
      "stateMutability": "view",
      "type": "function"
    },
    {
      "inputs": [
        {
          "internalType": "address",
          "name": "spender",
          "type": "address"
        },
        {
          "internalType": "uint256",
          "name": "subtractedValue",
          "type": "uint256"
        }
      ],
      "name": "decreaseAllowance",
      "outputs": [
        {
          "internalType": "bool",
          "name": "",
          "type": "bool"
        }
      ],
      "stateMutability": "nonpayable",
      "type": "function"
    },
    {
      "inputs": [],
      "name": "getOwner",
      "outputs": [
        {
          "internalType": "address",
          "name": "",
          "type": "address"
        }
      ],
      "stateMutability": "view",
      "type": "function"
    },
    {
      "inputs": [
        {
          "internalType": "address",
          "name": "spender",
          "type": "address"
        },
        {
          "internalType": "uint256",
          "name": "addedValue",
          "type": "uint256"
        }
      ],
      "name": "increaseAllowance",
      "outputs": [
        {
          "internalType": "bool",
          "name": "",
          "type": "bool"
        }
      ],
      "stateMutability": "nonpayable",
      "type": "function"
    },
    {
      "inputs": [],
      "name": "maxSupply",
      "outputs": [
        {
          "internalType": "uint256",
          "name": "",
          "type": "uint256"
        }
      ],
      "stateMutability": "view",
      "type": "function"
    },
    {
      "inputs": [
        {
          "internalType": "uint256",
          "name": "amount",
          "type": "uint256"
        }
      ],
      "name": "mint",
      "outputs": [
        {
          "internalType": "bool",
          "name": "",
          "type": "bool"
        }
      ],
      "stateMutability": "nonpayable",
      "type": "function"
    },
    {
      "inputs": [
        {
          "internalType": "address",
          "name": "recipient",
          "type": "address"
        },
        {
          "internalType": "uint256",
          "name": "amount",
          "type": "uint256"
        }
      ],
      "name": "mintTo",
      "outputs": [
        {
          "internalType": "bool",
          "name": "",
          "type": "bool"
        }
      ],
      "stateMutability": "nonpayable",
      "type": "function"
    },
    {
      "inputs": [],
      "name": "name",
      "outputs": [
        {
          "internalType": "string",
          "name": "",
          "type": "string"
        }
      ],
      "stateMutability": "view",
      "type": "function"
    },
    {
      "inputs": [],
      "name": "owner",
      "outputs": [
        {
          "internalType": "address",
          "name": "",
          "type": "address"
        }
      ],
      "stateMutability": "view",
      "type": "function"
    },
    {
      "inputs": [],
      "name": "renounceOwnership",
      "outputs": [],
      "stateMutability": "nonpayable",
      "type": "function"
    },
    {
      "inputs": [],
      "name": "symbol",
      "outputs": [
        {
          "internalType": "string",
          "name": "",
          "type": "string"
        }
      ],
      "stateMutability": "view",
      "type": "function"
    },
    {
      "inputs": [],
      "name": "totalSupply",
      "outputs": [
        {
          "internalType": "uint256",
          "name": "",
          "type": "uint256"
        }
      ],
      "stateMutability": "view",
      "type": "function"
    },
    {
      "inputs": [
        {
          "internalType": "address",
          "name": "recipient",
          "type": "address"
        },
        {
          "internalType": "uint256",
          "name": "amount",
          "type": "uint256"
        }
      ],
      "name": "transfer",
      "outputs": [
        {
          "internalType": "bool",
          "name": "",
          "type": "bool"
        }
      ],
      "stateMutability": "nonpayable",
      "type": "function"
    },
    {
      "inputs": [
        {
          "internalType": "address",
          "name": "sender",
          "type": "address"
        },
        {
          "internalType": "address",
          "name": "recipient",
          "type": "address"
        },
        {
          "internalType": "uint256",
          "name": "amount",
          "type": "uint256"
        }
      ],
      "name": "transferFrom",
      "outputs": [
        {
          "internalType": "bool",
          "name": "",
          "type": "bool"
        }
      ],
      "stateMutability": "nonpayable",
      "type": "function"
    },
    {
      "inputs": [
        {
          "internalType": "address",
          "name": "newOwner",
          "type": "address"
        }
      ],
      "name": "transferOwnership",
      "outputs": [],
      "stateMutability": "nonpayable",
      "type": "function"
    }
  ],
  "bytecode": "0x60806040523480156200001157600080fd5b50600080546001600160a01b031916339081178255604051909182917f8be0079c531659141344cd1fd0a4f28419497f9722a3daafe3b4186f6b6457e0908290a3506040805180820190915260098082526823a6aa102a37b5b2b760b91b6020909201918252620000859160079162000137565b506040805180820190915260038082526211d35560ea1b6020909201918252620000b29160069162000137565b506005805460ff191660121790556a04f68ca6d8cd91c60000006003819055336000818152600160205260408082208490556b1363156bbee3016d7000000060045551919290917fddf252ad1be2c89b69c2b068fc378daa952ba7f163c4a11628f55a4df523b3ef91620001299190815260200190565b60405180910390a36200021a565b8280546200014590620001dd565b90600052602060002090601f016020900481019282620001695760008555620001b4565b82601f106200018457805160ff1916838001178555620001b4565b82800160010185558215620001b4579182015b82811115620001b457825182559160200191906001019062000197565b50620001c2929150620001c6565b5090565b5b80821115620001c25760008155600101620001c7565b600281046001821680620001f257607f821691505b602082108114156200021457634e487b7160e01b600052602260045260246000fd5b50919050565b610dd9806200022a6000396000f3fe608060405234801561001057600080fd5b50600436106101165760003560e01c8063893d20e8116100a2578063a457c2d711610071578063a457c2d71461022a578063a9059cbb1461023d578063d5abeb0114610250578063dd62ed3e14610258578063f2fde38b1461029157610116565b8063893d20e8146101d95780638da5cb5b146101fe57806395d89b411461020f578063a0712d681461021757610116565b8063313ce567116100e9578063313ce567146101815780633950935114610196578063449a52f8146101a957806370a08231146101bc578063715018a6146101cf57610116565b806306fdde031461011b578063095ea7b31461013957806318160ddd1461015c57806323b872dd1461016e575b600080fd5b6101236102a4565b6040516101309190610c28565b60405180910390f35b61014c610147366004610be7565b610336565b6040519015158152602001610130565b6003545b604051908152602001610130565b61014c61017c366004610bac565b61034c565b60055460405160ff9091168152602001610130565b61014c6101a4366004610be7565b6103b5565b61014c6101b7366004610be7565b6103eb565b6101606101ca366004610b60565b610429565b6101d7610448565b005b6000546001600160a01b03165b6040516001600160a01b039091168152602001610130565b6000546001600160a01b03166101e6565b6101236104bc565b61014c610225366004610c10565b6104cb565b61014c610238366004610be7565b610584565b61014c61024b366004610be7565b6105d3565b600454610160565b610160610266366004610b7a565b6001600160a01b03918216600090815260026020908152604080832093909416825291909152205490565b6101d761029f366004610b60565b6105e0565b6060600780546102b390610cdf565b80601f01602080910402602001604051908101604052809291908181526020018280546102df90610cdf565b801561032c5780601f106103015761010080835404028352916020019161032c565b820191906000526020600020905b81548152906001019060200180831161030f57829003601f168201915b5050505050905090565b6000610343338484610616565b50600192915050565b600061035984848461073b565b6103ab84336103a685604051806060016040528060288152602001610d31602891396001600160a01b038a16600090815260026020908152604080832033845290915290205491906108c1565b610616565b5060019392505050565b3360008181526002602090815260408083206001600160a01b038716845290915281205490916103439185906103a690866108fb565b600080546001600160a01b0316331461041f5760405162461bcd60e51b815260040161041690610c7b565b60405180910390fd5b6103438383610961565b6001600160a01b0381166000908152600160205260409020545b919050565b6000546001600160a01b031633146104725760405162461bcd60e51b815260040161041690610c7b565b600080546040516001600160a01b03909116907f8be0079c531659141344cd1fd0a4f28419497f9722a3daafe3b4186f6b6457e0908390a3600080546001600160a01b0319169055565b6060600680546102b390610cdf565b600080546001600160a01b031633146104f65760405162461bcd60e51b815260040161041690610c7b565b600454600354106105495760405162461bcd60e51b815260206004820181905260248201527f474d5420546f6b656e3a20746f74616c20737570706c792065786365656465646044820152606401610416565b6004548260035461055a9190610cb0565b11156105725760035460045461056f91610a47565b91505b61057c3383610961565b506001919050565b600061034333846103a685604051806060016040528060258152602001610d7f602591393360009081526002602090815260408083206001600160a01b038d16845290915290205491906108c1565b600061034333848461073b565b6000546001600160a01b0316331461060a5760405162461bcd60e51b815260040161041690610c7b565b61061381610a89565b50565b6001600160a01b0383166106785760405162461bcd60e51b8152602060048201526024808201527f42455032303a20617070726f76652066726f6d20746865207a65726f206164646044820152637265737360e01b6064820152608401610416565b6001600160a01b0382166106d95760405162461bcd60e51b815260206004820152602260248201527f42455032303a20617070726f766520746f20746865207a65726f206164647265604482015261737360f01b6064820152608401610416565b6001600160a01b0383811660008181526002602090815260408083209487168084529482529182902085905590518481527f8c5be1e5ebec7d5bd14f71427d1e84f3dd0314c0f7b2291e5b200ac8c7c3b92591015b60405180910390a3505050565b6001600160a01b03831661079f5760405162461bcd60e51b815260206004820152602560248201527f42455032303a207472616e736665722066726f6d20746865207a65726f206164604482015264647265737360d81b6064820152608401610416565b6001600160a01b0382166108015760405162461bcd60e51b815260206004820152602360248201527f42455032303a207472616e7366657220746f20746865207a65726f206164647260448201526265737360e81b6064820152608401610416565b61083e81604051806060016040528060268152602001610d59602691396001600160a01b03861660009081526001602052604090205491906108c1565b6001600160a01b03808516600090815260016020526040808220939093559084168152205461086d90826108fb565b6001600160a01b0380841660008181526001602052604090819020939093559151908516907fddf252ad1be2c89b69c2b068fc378daa952ba7f163c4a11628f55a4df523b3ef9061072e9085815260200190565b600081848411156108e55760405162461bcd60e51b81526004016104169190610c28565b5060006108f28486610cc8565b95945050505050565b6000806109088385610cb0565b90508381101561095a5760405162461bcd60e51b815260206004820152601b60248201527f536166654d6174683a206164646974696f6e206f766572666c6f7700000000006044820152606401610416565b9392505050565b6001600160a01b0382166109b75760405162461bcd60e51b815260206004820152601f60248201527f42455032303a206d696e7420746f20746865207a65726f2061646472657373006044820152606401610416565b6003546109c490826108fb565b6003556001600160a01b0382166000908152600160205260409020546109ea90826108fb565b6001600160a01b0383166000818152600160205260408082209390935591519091907fddf252ad1be2c89b69c2b068fc378daa952ba7f163c4a11628f55a4df523b3ef90610a3b9085815260200190565b60405180910390a35050565b600061095a83836040518060400160405280601e81526020017f536166654d6174683a207375627472616374696f6e206f766572666c6f7700008152506108c1565b6001600160a01b038116610aee5760405162461bcd60e51b815260206004820152602660248201527f4f776e61626c653a206e6577206f776e657220697320746865207a65726f206160448201526564647265737360d01b6064820152608401610416565b600080546040516001600160a01b03808516939216917f8be0079c531659141344cd1fd0a4f28419497f9722a3daafe3b4186f6b6457e091a3600080546001600160a01b0319166001600160a01b0392909216919091179055565b80356001600160a01b038116811461044357600080fd5b600060208284031215610b71578081fd5b61095a82610b49565b60008060408385031215610b8c578081fd5b610b9583610b49565b9150610ba360208401610b49565b90509250929050565b600080600060608486031215610bc0578081fd5b610bc984610b49565b9250610bd760208501610b49565b9150604084013590509250925092565b60008060408385031215610bf9578182fd5b610c0283610b49565b946020939093013593505050565b600060208284031215610c21578081fd5b5035919050565b6000602080835283518082850152825b81811015610c5457858101830151858201604001528201610c38565b81811115610c655783604083870101525b50601f01601f1916929092016040019392505050565b6020808252818101527f4f776e61626c653a2063616c6c6572206973206e6f7420746865206f776e6572604082015260600190565b60008219821115610cc357610cc3610d1a565b500190565b600082821015610cda57610cda610d1a565b500390565b600281046001821680610cf357607f821691505b60208210811415610d1457634e487b7160e01b600052602260045260246000fd5b50919050565b634e487b7160e01b600052601160045260246000fdfe42455032303a207472616e7366657220616d6f756e74206578636565647320616c6c6f77616e636542455032303a207472616e7366657220616d6f756e7420657863656564732062616c616e636542455032303a2064656372656173656420616c6c6f77616e63652062656c6f77207a65726fa264697066735822122035c61833e06cb2d23d3fbcca3af6c02be20ab1439e3e2b1785290ccada9ee9c564736f6c63430008020033",
  "linkReferences": {},
  "deployedLinkReferences": {}
}