{
  "_format": "hh-sol-artifact-1",
  "contractName": "GSTToken",
  "sourceName": "contracts/GSTToken.sol",
  "abi": [
    {
      "inputs": [],
      "stateMutability": "nonpayable",
      "type": "constructor"
    },
    {
      "anonymous": false,
      "inputs": [
        {
          "indexed": true,
          "internalType": "address",
          "name": "owner",
          "type": "address"
        },
        {
          "indexed": true,
          "internalType": "address",
          "name": "spender",
          "type": "address"
        },
        {
          "indexed": false,
          "internalType": "uint256",
          "name": "value",
          "type": "uint256"
        }
      ],
      "name": "Approval",
      "type": "event"
    },
    {
      "anonymous": false,
      "inputs": [
        {
          "indexed": true,
          "internalType": "address",
          "name": "previousOwner",
          "type": "address"
        },
        {
          "indexed": true,
          "internalType": "address",
          "name": "newOwner",
          "type": "address"
        }
      ],
      "name": "OwnershipTransferred",
      "type": "event"
    },
    {
      "anonymous": false,
      "inputs": [
        {
          "indexed": true,
          "internalType": "address",
          "name": "from",
          "type": "address"
        },
        {
          "indexed": true,
          "internalType": "address",
          "name": "to",
          "type": "address"
        },
        {
          "indexed": false,
          "internalType": "uint256",
          "name": "value",
          "type": "uint256"
        }
      ],
      "name": "Transfer",
      "type": "event"
    },
    {
      "inputs": [
        {
          "internalType": "address",
          "name": "owner",
          "type": "address"
        },
        {
          "internalType": "address",
          "name": "spender",
          "type": "address"
        }
      ],
      "name": "allowance",
      "outputs": [
        {
          "internalType": "uint256",
          "name": "",
          "type": "uint256"
        }
      ],
      "stateMutability": "view",
      "type": "function"
    },
    {
      "inputs": [
        {
          "internalType": "address",
          "name": "spender",
          "type": "address"
        },
        {
          "internalType": "uint256",
          "name": "amount",
          "type": "uint256"
        }
      ],
      "name": "approve",
      "outputs": [
        {
          "internalType": "bool",
          "name": "",
          "type": "bool"
        }
      ],
      "stateMutability": "nonpayable",
      "type": "function"
    },
    {
      "inputs": [
        {
          "internalType": "address",
          "name": "account",
          "type": "address"
        }
      ],
      "name": "balanceOf",
      "outputs": [
        {
          "internalType": "uint256",
          "name": "",
          "type": "uint256"
        }
      ],
      "stateMutability": "view",
      "type": "function"
    },
    {
      "inputs": [],
      "name": "decimals",
      "outputs": [
        {
          "internalType": "uint8",
          "name": "",
          "type": "uint8"
        }
      ],
      "stateMutability": "view",
      "type": "function"
    },
    {
      "inputs": [
        {
          "internalType": "address",
          "name": "spender",
          "type": "address"
        },
        {
          "internalType": "uint256",
          "name": "subtractedValue",
          "type": "uint256"
        }
      ],
      "name": "decreaseAllowance",
      "outputs": [
        {
          "internalType": "bool",
          "name": "",
          "type": "bool"
        }
      ],
      "stateMutability": "nonpayable",
      "type": "function"
    },
    {
      "inputs": [],
      "name": "getOwner",
      "outputs": [
        {
          "internalType": "address",
          "name": "",
          "type": "address"
        }
      ],
      "stateMutability": "view",
      "type": "function"
    },
    {
      "inputs": [
        {
          "internalType": "address",
          "name": "spender",
          "type": "address"
        },
        {
          "internalType": "uint256",
          "name": "addedValue",
          "type": "uint256"
        }
      ],
      "name": "increaseAllowance",
      "outputs": [
        {
          "internalType": "bool",
          "name": "",
          "type": "bool"
        }
      ],
      "stateMutability": "nonpayable",
      "type": "function"
    },
    {
      "inputs": [
        {
          "internalType": "uint256",
          "name": "amount",
          "type": "uint256"
        }
      ],
      "name": "mint",
      "outputs": [
        {
          "internalType": "bool",
          "name": "",
          "type": "bool"
        }
      ],
      "stateMutability": "nonpayable",
      "type": "function"
    },
    {
      "inputs": [
        {
          "internalType": "address",
          "name": "recipient",
          "type": "address"
        },
        {
          "internalType": "uint256",
          "name": "amount",
          "type": "uint256"
        }
      ],
      "name": "mintTo",
      "outputs": [
        {
          "internalType": "bool",
          "name": "",
          "type": "bool"
        }
      ],
      "stateMutability": "nonpayable",
      "type": "function"
    },
    {
      "inputs": [],
      "name": "name",
      "outputs": [
        {
          "internalType": "string",
          "name": "",
          "type": "string"
        }
      ],
      "stateMutability": "view",
      "type": "function"
    },
    {
      "inputs": [],
      "name": "owner",
      "outputs": [
        {
          "internalType": "address",
          "name": "",
          "type": "address"
        }
      ],
      "stateMutability": "view",
      "type": "function"
    },
    {
      "inputs": [],
      "name": "renounceOwnership",
      "outputs": [],
      "stateMutability": "nonpayable",
      "type": "function"
    },
    {
      "inputs": [],
      "name": "symbol",
      "outputs": [
        {
          "internalType": "string",
          "name": "",
          "type": "string"
        }
      ],
      "stateMutability": "view",
      "type": "function"
    },
    {
      "inputs": [],
      "name": "totalSupply",
      "outputs": [
        {
          "internalType": "uint256",
          "name": "",
          "type": "uint256"
        }
      ],
      "stateMutability": "view",
      "type": "function"
    },
    {
      "inputs": [
        {
          "internalType": "address",
          "name": "recipient",
          "type": "address"
        },
        {
          "internalType": "uint256",
          "name": "amount",
          "type": "uint256"
        }
      ],
      "name": "transfer",
      "outputs": [
        {
          "internalType": "bool",
          "name": "",
          "type": "bool"
        }
      ],
      "stateMutability": "nonpayable",
      "type": "function"
    },
    {
      "inputs": [
        {
          "internalType": "address",
          "name": "sender",
          "type": "address"
        },
        {
          "internalType": "address",
          "name": "recipient",
          "type": "address"
        },
        {
          "internalType": "uint256",
          "name": "amount",
          "type": "uint256"
        }
      ],
      "name": "transferFrom",
      "outputs": [
        {
          "internalType": "bool",
          "name": "",
          "type": "bool"
        }
      ],
      "stateMutability": "nonpayable",
      "type": "function"
    },
    {
      "inputs": [
        {
          "internalType": "address",
          "name": "newOwner",
          "type": "address"
        }
      ],
      "name": "transferOwnership",
      "outputs": [],
      "stateMutability": "nonpayable",
      "type": "function"
    }
  ],
  "bytecode": "0x60806040523480156200001157600080fd5b50600080546001600160a01b031916339081178255604051909182917f8be0079c531659141344cd1fd0a4f28419497f9722a3daafe3b4186f6b6457e0908290a3506040805180820190915260138082527f477265656e205361746f73686920546f6b656e00000000000000000000000000602090920191825262000099916006916200013b565b506040805180820190915260038082526211d4d560ea1b6020909201918252620000c6916005916200013b565b506004805460ff191660121790556a04f68ca6d8cd91c600000060038190553360008181526001602052604080822084905551919290917fddf252ad1be2c89b69c2b068fc378daa952ba7f163c4a11628f55a4df523b3ef916200012d9190815260200190565b60405180910390a36200021e565b8280546200014990620001e1565b90600052602060002090601f0160209004810192826200016d5760008555620001b8565b82601f106200018857805160ff1916838001178555620001b8565b82800160010185558215620001b8579182015b82811115620001b85782518255916020019190600101906200019b565b50620001c6929150620001ca565b5090565b5b80821115620001c65760008155600101620001cb565b600281046001821680620001f657607f821691505b602082108114156200021857634e487b7160e01b600052602260045260246000fd5b50919050565b610d08806200022e6000396000f3fe608060405234801561001057600080fd5b506004361061010b5760003560e01c8063715018a6116100a2578063a0712d6811610071578063a0712d681461020c578063a457c2d71461021f578063a9059cbb14610232578063dd62ed3e14610245578063f2fde38b1461027e5761010b565b8063715018a6146101c4578063893d20e8146101ce5780638da5cb5b146101f357806395d89b41146102045761010b565b8063313ce567116100de578063313ce56714610176578063395093511461018b578063449a52f81461019e57806370a08231146101b15761010b565b806306fdde0314610110578063095ea7b31461012e57806318160ddd1461015157806323b872dd14610163575b600080fd5b610118610291565b6040516101259190610b57565b60405180910390f35b61014161013c366004610b16565b610323565b6040519015158152602001610125565b6003545b604051908152602001610125565b610141610171366004610adb565b610339565b60045460405160ff9091168152602001610125565b610141610199366004610b16565b6103a2565b6101416101ac366004610b16565b6103d8565b6101556101bf366004610a8f565b610416565b6101cc610435565b005b6000546001600160a01b03165b6040516001600160a01b039091168152602001610125565b6000546001600160a01b03166101db565b6101186104a9565b61014161021a366004610b3f565b6104b8565b61014161022d366004610b16565b6104f5565b610141610240366004610b16565b610544565b610155610253366004610aa9565b6001600160a01b03918216600090815260026020908152604080832093909416825291909152205490565b6101cc61028c366004610a8f565b610551565b6060600680546102a090610c0e565b80601f01602080910402602001604051908101604052809291908181526020018280546102cc90610c0e565b80156103195780601f106102ee57610100808354040283529160200191610319565b820191906000526020600020905b8154815290600101906020018083116102fc57829003601f168201915b5050505050905090565b6000610330338484610587565b50600192915050565b60006103468484846106ac565b610398843361039385604051806060016040528060288152602001610c60602891396001600160a01b038a1660009081526002602090815260408083203384529091529020549190610832565b610587565b5060019392505050565b3360008181526002602090815260408083206001600160a01b03871684529091528120549091610330918590610393908661086c565b600080546001600160a01b0316331461040c5760405162461bcd60e51b815260040161040390610baa565b60405180910390fd5b61033083836108d2565b6001600160a01b0381166000908152600160205260409020545b919050565b6000546001600160a01b0316331461045f5760405162461bcd60e51b815260040161040390610baa565b600080546040516001600160a01b03909116907f8be0079c531659141344cd1fd0a4f28419497f9722a3daafe3b4186f6b6457e0908390a3600080546001600160a01b0319169055565b6060600580546102a090610c0e565b600080546001600160a01b031633146104e35760405162461bcd60e51b815260040161040390610baa565b6104ed33836108d2565b506001919050565b6000610330338461039385604051806060016040528060258152602001610cae602591393360009081526002602090815260408083206001600160a01b038d1684529091529020549190610832565b60006103303384846106ac565b6000546001600160a01b0316331461057b5760405162461bcd60e51b815260040161040390610baa565b610584816109b8565b50565b6001600160a01b0383166105e95760405162461bcd60e51b8152602060048201526024808201527f42455032303a20617070726f76652066726f6d20746865207a65726f206164646044820152637265737360e01b6064820152608401610403565b6001600160a01b03821661064a5760405162461bcd60e51b815260206004820152602260248201527f42455032303a20617070726f766520746f20746865207a65726f206164647265604482015261737360f01b6064820152608401610403565b6001600160a01b0383811660008181526002602090815260408083209487168084529482529182902085905590518481527f8c5be1e5ebec7d5bd14f71427d1e84f3dd0314c0f7b2291e5b200ac8c7c3b92591015b60405180910390a3505050565b6001600160a01b0383166107105760405162461bcd60e51b815260206004820152602560248201527f42455032303a207472616e736665722066726f6d20746865207a65726f206164604482015264647265737360d81b6064820152608401610403565b6001600160a01b0382166107725760405162461bcd60e51b815260206004820152602360248201527f42455032303a207472616e7366657220746f20746865207a65726f206164647260448201526265737360e81b6064820152608401610403565b6107af81604051806060016040528060268152602001610c88602691396001600160a01b0386166000908152600160205260409020549190610832565b6001600160a01b0380851660009081526001602052604080822093909355908416815220546107de908261086c565b6001600160a01b0380841660008181526001602052604090819020939093559151908516907fddf252ad1be2c89b69c2b068fc378daa952ba7f163c4a11628f55a4df523b3ef9061069f9085815260200190565b600081848411156108565760405162461bcd60e51b81526004016104039190610b57565b5060006108638486610bf7565b95945050505050565b6000806108798385610bdf565b9050838110156108cb5760405162461bcd60e51b815260206004820152601b60248201527f536166654d6174683a206164646974696f6e206f766572666c6f7700000000006044820152606401610403565b9392505050565b6001600160a01b0382166109285760405162461bcd60e51b815260206004820152601f60248201527f42455032303a206d696e7420746f20746865207a65726f2061646472657373006044820152606401610403565b600354610935908261086c565b6003556001600160a01b03821660009081526001602052604090205461095b908261086c565b6001600160a01b0383166000818152600160205260408082209390935591519091907fddf252ad1be2c89b69c2b068fc378daa952ba7f163c4a11628f55a4df523b3ef906109ac9085815260200190565b60405180910390a35050565b6001600160a01b038116610a1d5760405162461bcd60e51b815260206004820152602660248201527f4f776e61626c653a206e6577206f776e657220697320746865207a65726f206160448201526564647265737360d01b6064820152608401610403565b600080546040516001600160a01b03808516939216917f8be0079c531659141344cd1fd0a4f28419497f9722a3daafe3b4186f6b6457e091a3600080546001600160a01b0319166001600160a01b0392909216919091179055565b80356001600160a01b038116811461043057600080fd5b600060208284031215610aa0578081fd5b6108cb82610a78565b60008060408385031215610abb578081fd5b610ac483610a78565b9150610ad260208401610a78565b90509250929050565b600080600060608486031215610aef578081fd5b610af884610a78565b9250610b0660208501610a78565b9150604084013590509250925092565b60008060408385031215610b28578182fd5b610b3183610a78565b946020939093013593505050565b600060208284031215610b50578081fd5b5035919050565b6000602080835283518082850152825b81811015610b8357858101830151858201604001528201610b67565b81811115610b945783604083870101525b50601f01601f1916929092016040019392505050565b6020808252818101527f4f776e61626c653a2063616c6c6572206973206e6f7420746865206f776e6572604082015260600190565b60008219821115610bf257610bf2610c49565b500190565b600082821015610c0957610c09610c49565b500390565b600281046001821680610c2257607f821691505b60208210811415610c4357634e487b7160e01b600052602260045260246000fd5b50919050565b634e487b7160e01b600052601160045260246000fdfe42455032303a207472616e7366657220616d6f756e74206578636565647320616c6c6f77616e636542455032303a207472616e7366657220616d6f756e7420657863656564732062616c616e636542455032303a2064656372656173656420616c6c6f77616e63652062656c6f77207a65726fa26469706673582212203dbeb394938ea770478616a1a9c08668f29649653e4fff3591377a5b2110824764736f6c63430008020033",
  "linkReferences": {},
  "deployedLinkReferences": {}
}