{
  "_format": "hh-sol-artifact-1",
  "contractName": "Marketplace",
  "sourceName": "contracts/Marketplace.sol",
  "abi": [
    {
      "inputs": [
        {
          "internalType": "uint256",
          "name": "feeRate_",
          "type": "uint256"
        },
        {
          "internalType": "uint256",
          "name": "feeDecimal_",
          "type": "uint256"
        },
        {
          "internalType": "address",
          "name": "_tokenAddress",
          "type": "address"
        }
      ],
      "stateMutability": "nonpayable",
      "type": "constructor"
    },
    {
      "anonymous": false,
      "inputs": [
        {
          "indexed": false,
          "internalType": "uint256",
          "name": "id",
          "type": "uint256"
        },
        {
          "indexed": false,
          "internalType": "address",
          "name": "seller",
          "type": "address"
        },
        {
          "indexed": false,
          "internalType": "address",
          "name": "buyer",
          "type": "address"
        },
        {
          "indexed": false,
          "internalType": "uint256",
          "name": "tokenId",
          "type": "uint256"
        },
        {
          "indexed": false,
          "internalType": "uint256",
          "name": "price",
          "type": "uint256"
        }
      ],
      "name": "ExecuteOffer",
      "type": "event"
    },
    {
      "anonymous": false,
      "inputs": [
        {
          "indexed": false,
          "internalType": "uint256",
          "name": "feeDecimal",
          "type": "uint256"
        },
        {
          "indexed": false,
          "internalType": "uint256",
          "name": "feeRate",
          "type": "uint256"
        },
        {
          "indexed": false,
          "internalType": "address",
          "name": "feeRecipient",
          "type": "address"
        }
      ],
      "name": "FeeRateUpdate",
      "type": "event"
    },
    {
      "anonymous": false,
      "inputs": [
        {
          "indexed": false,
          "internalType": "uint256",
          "name": "id",
          "type": "uint256"
        },
        {
          "indexed": false,
          "internalType": "uint256",
          "name": "tokenId",
          "type": "uint256"
        },
        {
          "indexed": false,
          "internalType": "address",
          "name": "seller",
          "type": "address"
        },
        {
          "indexed": false,
          "internalType": "address",
          "name": "owner",
          "type": "address"
        },
        {
          "indexed": false,
          "internalType": "address",
          "name": "NFTaddress",
          "type": "address"
        },
        {
          "indexed": false,
          "internalType": "uint256",
          "name": "price",
          "type": "uint256"
        }
      ],
      "name": "OfferAdded",
      "type": "event"
    },
    {
      "anonymous": false,
      "inputs": [
        {
          "indexed": false,
          "internalType": "uint256",
          "name": "id",
          "type": "uint256"
        }
      ],
      "name": "OfferCancelled",
      "type": "event"
    },
    {
      "anonymous": false,
      "inputs": [
        {
          "indexed": true,
          "internalType": "address",
          "name": "previousOwner",
          "type": "address"
        },
        {
          "indexed": true,
          "internalType": "address",
          "name": "newOwner",
          "type": "address"
        }
      ],
      "name": "OwnershipTransferred",
      "type": "event"
    },
    {
      "inputs": [],
      "name": "_totalNFTCount",
      "outputs": [
        {
          "internalType": "uint256",
          "name": "",
          "type": "uint256"
        }
      ],
      "stateMutability": "view",
      "type": "function"
    },
    {
      "inputs": [
        {
          "internalType": "address",
          "name": "_NFTaddress",
          "type": "address"
        }
      ],
      "name": "addNewNFTType",
      "outputs": [],
      "stateMutability": "nonpayable",
      "type": "function"
    },
    {
      "inputs": [
        {
          "internalType": "address",
          "name": "",
          "type": "address"
        },
        {
          "internalType": "uint256",
          "name": "",
          "type": "uint256"
        }
      ],
      "name": "addressToOfferIDs_",
      "outputs": [
        {
          "internalType": "uint256",
          "name": "",
          "type": "uint256"
        }
      ],
      "stateMutability": "view",
      "type": "function"
    },
    {
      "inputs": [
        {
          "internalType": "uint256",
          "name": "_offerId",
          "type": "uint256"
        },
        {
          "internalType": "address",
          "name": "_NFTaddress",
          "type": "address"
        }
      ],
      "name": "cancelOffer",
      "outputs": [],
      "stateMutability": "nonpayable",
      "type": "function"
    },
    {
      "inputs": [
        {
          "internalType": "uint256",
          "name": "_offerId",
          "type": "uint256"
        },
        {
          "internalType": "address",
          "name": "_NFTaddress",
          "type": "address"
        }
      ],
      "name": "executeOffer",
      "outputs": [],
      "stateMutability": "nonpayable",
      "type": "function"
    },
    {
      "inputs": [],
      "name": "getFeeInfo",
      "outputs": [
        {
          "internalType": "uint256",
          "name": "",
          "type": "uint256"
        },
        {
          "internalType": "uint256",
          "name": "",
          "type": "uint256"
        },
        {
          "internalType": "address",
          "name": "",
          "type": "address"
        }
      ],
      "stateMutability": "view",
      "type": "function"
    },
    {
      "inputs": [],
      "name": "getNFTTypes",
      "outputs": [
        {
          "internalType": "address[]",
          "name": "",
          "type": "address[]"
        }
      ],
      "stateMutability": "view",
      "type": "function"
    },
    {
      "inputs": [
        {
          "internalType": "address",
          "name": "_NFTaddress",
          "type": "address"
        }
      ],
      "name": "getNFTidsOfUser",
      "outputs": [
        {
          "internalType": "uint256[]",
          "name": "",
          "type": "uint256[]"
        }
      ],
      "stateMutability": "view",
      "type": "function"
    },
    {
      "inputs": [
        {
          "internalType": "address",
          "name": "NFTaddress",
          "type": "address"
        }
      ],
      "name": "getNFTsOfNFTtype",
      "outputs": [
        {
          "internalType": "uint256[]",
          "name": "",
          "type": "uint256[]"
        }
      ],
      "stateMutability": "view",
      "type": "function"
    },
    {
      "inputs": [
        {
          "internalType": "uint256",
          "name": "_offerId",
          "type": "uint256"
        }
      ],
      "name": "getOffer",
      "outputs": [
        {
          "components": [
            {
              "internalType": "uint256",
              "name": "id",
              "type": "uint256"
            },
            {
              "internalType": "uint256",
              "name": "tokenId",
              "type": "uint256"
            },
            {
              "internalType": "address",
              "name": "seller",
              "type": "address"
            },
            {
              "internalType": "address",
              "name": "owner",
              "type": "address"
            },
            {
              "internalType": "address",
              "name": "NFTaddress",
              "type": "address"
            },
            {
              "internalType": "bool",
              "name": "sold",
              "type": "bool"
            },
            {
              "internalType": "uint256",
              "name": "price",
              "type": "uint256"
            }
          ],
          "internalType": "struct Marketplace.Offer",
          "name": "",
          "type": "tuple"
        }
      ],
      "stateMutability": "view",
      "type": "function"
    },
    {
      "inputs": [
        {
          "internalType": "address",
          "name": "_nftAddress",
          "type": "address"
        }
      ],
      "name": "getTotalItemOfNFT",
      "outputs": [
        {
          "internalType": "uint256",
          "name": "length",
          "type": "uint256"
        }
      ],
      "stateMutability": "view",
      "type": "function"
    },
    {
      "inputs": [
        {
          "internalType": "uint256",
          "name": "",
          "type": "uint256"
        }
      ],
      "name": "iDToOffers_",
      "outputs": [
        {
          "internalType": "uint256",
          "name": "id",
          "type": "uint256"
        },
        {
          "internalType": "uint256",
          "name": "tokenId",
          "type": "uint256"
        },
        {
          "internalType": "address",
          "name": "seller",
          "type": "address"
        },
        {
          "internalType": "address",
          "name": "owner",
          "type": "address"
        },
        {
          "internalType": "address",
          "name": "NFTaddress",
          "type": "address"
        },
        {
          "internalType": "bool",
          "name": "sold",
          "type": "bool"
        },
        {
          "internalType": "uint256",
          "name": "price",
          "type": "uint256"
        }
      ],
      "stateMutability": "view",
      "type": "function"
    },
    {
      "inputs": [
        {
          "internalType": "uint256",
          "name": "_offerId",
          "type": "uint256"
        },
        {
          "internalType": "uint256",
          "name": "_price",
          "type": "uint256"
        },
        {
          "internalType": "address",
          "name": "_NFTaddress",
          "type": "address"
        }
      ],
      "name": "makeOffer",
      "outputs": [],
      "stateMutability": "nonpayable",
      "type": "function"
    },
    {
      "inputs": [],
      "name": "owner",
      "outputs": [
        {
          "internalType": "address",
          "name": "",
          "type": "address"
        }
      ],
      "stateMutability": "view",
      "type": "function"
    },
    {
      "inputs": [
        {
          "internalType": "address",
          "name": "_NFTaddress",
          "type": "address"
        }
      ],
      "name": "removeNFTType",
      "outputs": [],
      "stateMutability": "nonpayable",
      "type": "function"
    },
    {
      "inputs": [],
      "name": "renounceOwnership",
      "outputs": [],
      "stateMutability": "nonpayable",
      "type": "function"
    },
    {
      "inputs": [
        {
          "internalType": "address",
          "name": "newOwner",
          "type": "address"
        }
      ],
      "name": "transferOwnership",
      "outputs": [],
      "stateMutability": "nonpayable",
      "type": "function"
    },
    {
      "inputs": [
        {
          "internalType": "uint256",
          "name": "_feeRate",
          "type": "uint256"
        },
        {
          "internalType": "uint256",
          "name": "_feeDecimal",
          "type": "uint256"
        },
        {
          "internalType": "address",
          "name": "_feeRecipient",
          "type": "address"
        }
      ],
      "name": "updateFee",
      "outputs": [],
      "stateMutability": "nonpayable",
      "type": "function"
    }
  ],
  "bytecode": "0x608060405234801561001057600080fd5b5060405162001b9138038062001b91833981016040819052610031916100c9565b61003a33610079565b600491909155600391909155600580546001600160a01b03199081163317909155600680549091166001600160a01b039290921691909117905561010d565b600080546001600160a01b038381166001600160a01b0319831681178455604051919092169283917f8be0079c531659141344cd1fd0a4f28419497f9722a3daafe3b4186f6b6457e09190a35050565b6000806000606084860312156100dd578283fd5b83516020850151604086015191945092506001600160a01b0381168114610102578182fd5b809150509250925092565b611a74806200011d6000396000f3fe608060405234801561001057600080fd5b50600436106101155760003560e01c8063875ae990116100a2578063c0fc80a211610071578063c0fc80a2146103fc578063c6616c421461040f578063d742943514610422578063eb6e3f8c14610437578063f2fde38b1461044a57610115565b8063875ae990146103925780638d7cd070146103a55780638da5cb5b146103ce578063a7b2b322146103e957610115565b8063635a097e116100e9578063635a097e146102b75780636457c4f8146102c05780636738a3cf146102d55780636f93d2c914610377578063715018a61461038a57610115565b806202eab71461011a5780630b7d549a1461014c5780631a636d351461016c5780634579268a1461018d575b600080fd5b6003546004546005546040805193845260208401929092526001600160a01b0316908201526060015b60405180910390f35b61015f61015a3660046115e4565b61045d565b604051610143919061176f565b61017f61017a36600461161c565b6106cf565b604051908152602001610143565b61024f61019b366004611667565b6040805160e081018252600080825260208201819052918101829052606081018290526080810182905260a0810182905260c081019190915250600090815260096020908152604091829020825160e0810184528154815260018201549281019290925260028101546001600160a01b039081169383019390935260038101548316606083015260048101549283166080830152600160a01b90920460ff16151560a082015260059091015460c082015290565b6040516101439190600060e0820190508251825260208301516020830152604083015160018060a01b038082166040850152806060860151166060850152806080860151166080850152505060a0830151151560a083015260c083015160c083015292915050565b61017f60085481565b6102d36102ce3660046116c6565b610700565b005b6103326102e3366004611667565b600960205260009081526040902080546001820154600283015460038401546004850154600590950154939492936001600160a01b039283169391831692821691600160a01b900460ff169087565b6040805197885260208801969096526001600160a01b039485169587019590955291831660608601529091166080840152151560a083015260c082015260e001610143565b6102d3610385366004611697565b610a85565b6102d3610d39565b6102d36103a03660046116c6565b610d4d565b61017f6103b33660046115e4565b6001600160a01b03166000908152600a602052604090205490565b6000546040516001600160a01b039091168152602001610143565b61015f6103f73660046115e4565b610dc5565b6102d361040a366004611697565b610e31565b6102d361041d3660046115e4565b611024565b61042a6110fa565b6040516101439190611722565b6102d36104453660046115e4565b61110b565b6102d36104583660046115e4565b61117a565b606061046a6001836111f0565b61048f5760405162461bcd60e51b815260040161048690611832565b60405180910390fd5b8160006001600160a01b0382166370a08231336040516001600160e01b031960e084901b1681526001600160a01b03909116600482015260240160206040518083038186803b1580156104e157600080fd5b505afa1580156104f5573d6000803e3d6000fd5b505050506040513d601f19601f82011682018060405250810190610519919061167f565b67ffffffffffffffff81111561053f57634e487b7160e01b600052604160045260246000fd5b604051908082528060200260200182016040528015610568578160200160208202803683370190505b50905060005b6001600160a01b0383166370a08231336040516001600160e01b031960e084901b1681526001600160a01b03909116600482015260240160206040518083038186803b1580156105bd57600080fd5b505afa1580156105d1573d6000803e3d6000fd5b505050506040513d601f19601f820116820180604052508101906105f5919061167f565b8110156106c7576001600160a01b038316632f745c59336040516001600160e01b031960e084901b1681526001600160a01b0390911660048201526024810184905260440160206040518083038186803b15801561065257600080fd5b505afa158015610666573d6000803e3d6000fd5b505050506040513d601f19601f8201168201806040525081019061068a919061167f565b8282815181106106aa57634e487b7160e01b600052603260045260246000fd5b6020908102919091010152806106bf816119f8565b91505061056e565b509392505050565b600a60205281600052604060002081815481106106eb57600080fd5b90600052602060002001600091509150505481565b61070b6001826111f0565b6107275760405162461bcd60e51b815260040161048690611832565b6040516331a9108f60e11b81526004810184905281906001600160a01b03821690636352211e9060240160206040518083038186803b15801561076957600080fd5b505afa15801561077d573d6000803e3d6000fd5b505050506040513d601f19601f820116820180604052508101906107a19190611600565b6001600160a01b0316336001600160a01b0316146108145760405162461bcd60e51b815260206004820152602a60248201527f4d61726b6574706c6163653a206f6e6c79206e6674206f776e65722063616e2060448201526936b0b5b29037b33332b960b11b6064820152608401610486565b6006546001600160a01b03166323b872dd333061083087611217565b6040518463ffffffff1660e01b815260040161084e939291906116fe565b602060405180830381600087803b15801561086857600080fd5b505af115801561087c573d6000803e3d6000fd5b505050506040513d601f19601f820116820180604052508101906108a09190611647565b506040516323b872dd60e01b81526001600160a01b038216906323b872dd906108d1903390309089906004016116fe565b600060405180830381600087803b1580156108eb57600080fd5b505af11580156108ff573d6000803e3d6000fd5b5050505060006040518060e0016040528060085481526020018681526020016109253390565b6001600160a01b0390811682523060208084019190915286821660408085018290526000606080870182905260809687018c90526008805483526009865283832089518155898701516001808301919091558a8601516002830180546001600160a01b0319908116928c16929092179055938b01516003830180548616918b16919091179055988a015160048201805460a08d01519516919099161760ff60a01b1916600160a01b931515939093029290921790965560c0880151600590910155918252600a8352812083548154958601825590825291902090920191909155549091507f62fddf6d7dde7b73f8751a4057d60d76bf80d6eb812ea31795ab9df0eb6b6e2f9086336040805193845260208401929092526001600160a01b03908116838301523060608401528616608083015260a08201879052519081900360c00190a160088054906000610a79836119f8565b91905055505050505050565b600082815260096020526040902060040154600160a01b900460ff1615610abe5760405162461bcd60e51b8152600401610486906117f0565b6000828152600960205260409020600201546001600160a01b0316331415610b385760405162461bcd60e51b815260206004820152602760248201527f4d61726b6574706c6163653a204f776e65722063616e6e6f7420657865637574604482015266329037b33332b960c91b6064820152608401610486565b610b436001826111f0565b610b5f5760405162461bcd60e51b8152600401610486906117a7565b600082815260096020526040902060065482906001600160a01b03166323b872dd33600285015460058601546001600160a01b0390911690610ba090611217565b6040518463ffffffff1660e01b8152600401610bbe939291906116fe565b602060405180830381600087803b158015610bd857600080fd5b505af1158015610bec573d6000803e3d6000fd5b505050506040513d601f19601f82011682018060405250810190610c109190611647565b5060018201546040516323b872dd60e01b81526001600160a01b038316916323b872dd91610c459130913391906004016116fe565b600060405180830381600087803b158015610c5f57600080fd5b505af1158015610c73573d6000803e3d6000fd5b5050506000858152600960209081526040808320600401805460ff60a01b1916600160a01b1790556001600160a01b0387168352600a9091529020610cb991508561123f565b6000848152600960209081526040918290206002810154600186015460059092015484518981526001600160a01b039092169382019390935233818501526060810191909152608081019190915290517f020753d8e2f42b66c182733875fcea8c54d34cfdabbf8ed26cb336f673f1f9469181900360a00190a150505050565b610d41611336565b610d4b6000611390565b565b610d55611336565b60048290556003839055600580546001600160a01b0319166001600160a01b0383169081179091556040805184815260208101869052908101919091527f2ef79edccda9ff67ff3c972900403ba9729f51d19bf02faf97351ff540e9a62b906060015b60405180910390a1505050565b6001600160a01b0381166000908152600a6020908152604091829020805483518184028101840190945280845260609392830182828015610e2557602002820191906000526020600020905b815481526020019060010190808311610e11575b50505050509050919050565b6000828152600960205260409020600201546001600160a01b03163314610e9a5760405162461bcd60e51b815260206004820152601b60248201527f4f6e6c79206f776e65722063616e2063616e63656c206f6666657200000000006044820152606401610486565b600082815260096020526040902060040154600160a01b900460ff1615610ed35760405162461bcd60e51b8152600401610486906117f0565b610ede6001826111f0565b610efa5760405162461bcd60e51b8152600401610486906117a7565b600082815260096020526040908190206001015490516323b872dd60e01b815282916001600160a01b038316916323b872dd91610f3d91309133916004016116fe565b600060405180830381600087803b158015610f5757600080fd5b505af1158015610f6b573d6000803e3d6000fd5b5050506000848152600960209081526040808320838155600181018490556002810180546001600160a01b031990811690915560038201805490911690556004810180546001600160a81b03191690556005018390556001600160a01b0386168352600a9091529020610fdf91508461123f565b60088054906000610fef836119e1565b90915550506040518381527fc28b4aed030bfacc245c0501326e1beb8c0ef0d60e4edc21067fdeb52da2a7aa90602001610db8565b61102c611336565b6001600160a01b0381166110905760405162461bcd60e51b815260206004820152602560248201527f4d61726b6574706c6163653a204e46542061646472657373206973206e6f74206044820152641d985b1a5960da1b6064820152608401610486565b61109b6001826113e0565b6110f75760405162461bcd60e51b815260206004820152602760248201527f4d61726b6574706c6163653a204e4654206164647265737320616c72656164796044820152662065786973747360c81b6064820152608401610486565b50565b606061110660016113f5565b905090565b611113611336565b61111e600182611409565b6110f75760405162461bcd60e51b815260206004820152602760248201527f4d61726b6574706c6163653a204e4654206164647265737320646f6573206e6f6044820152661d08195e1a5cdd60ca1b6064820152608401610486565b611182611336565b6001600160a01b0381166111e75760405162461bcd60e51b815260206004820152602660248201527f4f776e61626c653a206e6577206f776e657220697320746865207a65726f206160448201526564647265737360d01b6064820152608401610486565b6110f781611390565b6001600160a01b038116600090815260018301602052604081205415155b90505b92915050565b6000600454600a61122891906118dd565b60035461123590846119ab565b6112119190611877565b60005b8254811015611330578183828154811061126c57634e487b7160e01b600052603260045260246000fd5b9060005260206000200154141561131e578254839061128d906001906119ca565b815481106112ab57634e487b7160e01b600052603260045260246000fd5b90600052602060002001548382815481106112d657634e487b7160e01b600052603260045260246000fd5b90600052602060002001819055508280548061130257634e487b7160e01b600052603160045260246000fd5b6001900381819060005260206000200160009055905550611332565b80611328816119f8565b915050611242565b505b5050565b6000546001600160a01b03163314610d4b5760405162461bcd60e51b815260206004820181905260248201527f4f776e61626c653a2063616c6c6572206973206e6f7420746865206f776e65726044820152606401610486565b600080546001600160a01b038381166001600160a01b0319831681178455604051919092169283917f8be0079c531659141344cd1fd0a4f28419497f9722a3daafe3b4186f6b6457e09190a35050565b600061120e836001600160a01b03841661141e565b606060006114028361146d565b9392505050565b600061120e836001600160a01b0384166114c7565b600081815260018301602052604081205461146557508154600181810184556000848152602080822090930184905584548482528286019093526040902091909155611211565b506000611211565b606081600001805480602002602001604051908101604052809291908181526020018280548015610e255760200282019190600052602060002090815481526020019060010190808311610e115750505050509050919050565b600081815260018301602052604081205480156115da5760006114eb6001836119ca565b85549091506000906114ff906001906119ca565b905081811461158057600086600001828154811061152d57634e487b7160e01b600052603260045260246000fd5b906000526020600020015490508087600001848154811061155e57634e487b7160e01b600052603260045260246000fd5b6000918252602080832090910192909255918252600188019052604090208390555b855486908061159f57634e487b7160e01b600052603160045260246000fd5b600190038181906000526020600020016000905590558560010160008681526020019081526020016000206000905560019350505050611211565b6000915050611211565b6000602082840312156115f5578081fd5b813561140281611a29565b600060208284031215611611578081fd5b815161140281611a29565b6000806040838503121561162e578081fd5b823561163981611a29565b946020939093013593505050565b600060208284031215611658578081fd5b81518015158114611402578182fd5b600060208284031215611678578081fd5b5035919050565b600060208284031215611690578081fd5b5051919050565b600080604083850312156116a9578182fd5b8235915060208301356116bb81611a29565b809150509250929050565b6000806000606084860312156116da578081fd5b833592506020840135915060408401356116f381611a29565b809150509250925092565b6001600160a01b039384168152919092166020820152604081019190915260600190565b6020808252825182820181905260009190848201906040850190845b818110156117635783516001600160a01b03168352928401929184019160010161173e565b50909695505050505050565b6020808252825182820181905260009190848201906040850190845b818110156117635783518352928401929184019160010161178b565b60208082526029908201527f4d61726b6574706c6163653a204e46542061646472657373206973206e6f74206040820152681cdd5c1c1bdc9d195960ba1b606082015260800190565b60208082526022908201527f4d61726b6574706c6163653a204f6666657220697320616c726561647920736f6040820152611b1960f21b606082015260800190565b60208082526025908201527f4d61726b6574706c61636520646f6573206e6f7420737570706f7274207468696040820152641cc813919560da1b606082015260800190565b60008261189257634e487b7160e01b81526012600452602481fd5b500490565b80825b60018086116118a957506118d4565b8187048211156118bb576118bb611a13565b808616156118c857918102915b9490941c93800261189a565b94509492505050565b600061120e60001984846000826118f657506001611402565b8161190357506000611402565b8160018114611919576002811461192357611950565b6001915050611402565b60ff84111561193457611934611a13565b6001841b91508482111561194a5761194a611a13565b50611402565b5060208310610133831016604e8410600b8410161715611983575081810a8381111561197e5761197e611a13565b611402565b6119908484846001611897565b8086048211156119a2576119a2611a13565b02949350505050565b60008160001904831182151516156119c5576119c5611a13565b500290565b6000828210156119dc576119dc611a13565b500390565b6000816119f0576119f0611a13565b506000190190565b6000600019821415611a0c57611a0c611a13565b5060010190565b634e487b7160e01b600052601160045260246000fd5b6001600160a01b03811681146110f757600080fdfea2646970667358221220b874c96601ce9b91c4aba24ae3d242d58edc78bca302fd49fd292c7bbdd677f764736f6c63430008020033",
  "linkReferences": {},
  "deployedLinkReferences": {}
}