{
  "_format": "hh-sol-artifact-1",
  "contractName": "MintingScrollNFT",
  "sourceName": "contracts/MintingScrollNFT.sol",
  "abi": [
    {
      "inputs": [
        {
          "internalType": "address",
          "name": "_iRandom",
          "type": "address"
        }
      ],
      "stateMutability": "nonpayable",
      "type": "constructor"
    },
    {
      "anonymous": false,
      "inputs": [
        {
          "indexed": true,
          "internalType": "address",
          "name": "owner",
          "type": "address"
        },
        {
          "indexed": true,
          "internalType": "address",
          "name": "approved",
          "type": "address"
        },
        {
          "indexed": true,
          "internalType": "uint256",
          "name": "tokenId",
          "type": "uint256"
        }
      ],
      "name": "Approval",
      "type": "event"
    },
    {
      "anonymous": false,
      "inputs": [
        {
          "indexed": true,
          "internalType": "address",
          "name": "owner",
          "type": "address"
        },
        {
          "indexed": true,
          "internalType": "address",
          "name": "operator",
          "type": "address"
        },
        {
          "indexed": false,
          "internalType": "bool",
          "name": "approved",
          "type": "bool"
        }
      ],
      "name": "ApprovalForAll",
      "type": "event"
    },
    {
      "anonymous": false,
      "inputs": [
        {
          "indexed": true,
          "internalType": "address",
          "name": "from",
          "type": "address"
        },
        {
          "indexed": false,
          "internalType": "uint256",
          "name": "tokenId",
          "type": "uint256"
        }
      ],
      "name": "BurnScroll",
      "type": "event"
    },
    {
      "anonymous": false,
      "inputs": [
        {
          "indexed": true,
          "internalType": "address",
          "name": "to",
          "type": "address"
        },
        {
          "indexed": false,
          "internalType": "uint256",
          "name": "tokenId",
          "type": "uint256"
        },
        {
          "indexed": false,
          "internalType": "enum Constants.Quality",
          "name": "quality",
          "type": "uint8"
        }
      ],
      "name": "MintScroll",
      "type": "event"
    },
    {
      "anonymous": false,
      "inputs": [
        {
          "indexed": true,
          "internalType": "address",
          "name": "previousOwner",
          "type": "address"
        },
        {
          "indexed": true,
          "internalType": "address",
          "name": "newOwner",
          "type": "address"
        }
      ],
      "name": "OwnershipTransferred",
      "type": "event"
    },
    {
      "anonymous": false,
      "inputs": [
        {
          "indexed": true,
          "internalType": "address",
          "name": "from",
          "type": "address"
        },
        {
          "indexed": true,
          "internalType": "address",
          "name": "to",
          "type": "address"
        },
        {
          "indexed": true,
          "internalType": "uint256",
          "name": "tokenId",
          "type": "uint256"
        }
      ],
      "name": "Transfer",
      "type": "event"
    },
    {
      "anonymous": false,
      "inputs": [
        {
          "indexed": true,
          "internalType": "address",
          "name": "from",
          "type": "address"
        },
        {
          "indexed": true,
          "internalType": "address",
          "name": "to",
          "type": "address"
        },
        {
          "indexed": false,
          "internalType": "uint256",
          "name": "tokenId",
          "type": "uint256"
        }
      ],
      "name": "TransferScroll",
      "type": "event"
    },
    {
      "inputs": [
        {
          "internalType": "uint256",
          "name": "",
          "type": "uint256"
        }
      ],
      "name": "allScroll_",
      "outputs": [
        {
          "internalType": "uint256",
          "name": "id",
          "type": "uint256"
        },
        {
          "internalType": "enum Constants.Quality",
          "name": "quality",
          "type": "uint8"
        },
        {
          "internalType": "address",
          "name": "owner",
          "type": "address"
        }
      ],
      "stateMutability": "view",
      "type": "function"
    },
    {
      "inputs": [
        {
          "internalType": "address",
          "name": "to",
          "type": "address"
        },
        {
          "internalType": "uint256",
          "name": "tokenId",
          "type": "uint256"
        }
      ],
      "name": "approve",
      "outputs": [],
      "stateMutability": "nonpayable",
      "type": "function"
    },
    {
      "inputs": [
        {
          "internalType": "address",
          "name": "owner",
          "type": "address"
        }
      ],
      "name": "balanceOf",
      "outputs": [
        {
          "internalType": "uint256",
          "name": "",
          "type": "uint256"
        }
      ],
      "stateMutability": "view",
      "type": "function"
    },
    {
      "inputs": [
        {
          "internalType": "uint256",
          "name": "_tokenId",
          "type": "uint256"
        }
      ],
      "name": "burnScroll",
      "outputs": [],
      "stateMutability": "nonpayable",
      "type": "function"
    },
    {
      "inputs": [
        {
          "internalType": "uint256",
          "name": "tokenId",
          "type": "uint256"
        }
      ],
      "name": "getApproved",
      "outputs": [
        {
          "internalType": "address",
          "name": "",
          "type": "address"
        }
      ],
      "stateMutability": "view",
      "type": "function"
    },
    {
      "inputs": [
        {
          "internalType": "uint256",
          "name": "_tokenId",
          "type": "uint256"
        }
      ],
      "name": "getOnwerOfScroll",
      "outputs": [
        {
          "internalType": "address",
          "name": "",
          "type": "address"
        }
      ],
      "stateMutability": "view",
      "type": "function"
    },
    {
      "inputs": [
        {
          "internalType": "uint256",
          "name": "_tokenId",
          "type": "uint256"
        }
      ],
      "name": "getQualityOfScroll",
      "outputs": [
        {
          "internalType": "enum Constants.Quality",
          "name": "",
          "type": "uint8"
        }
      ],
      "stateMutability": "view",
      "type": "function"
    },
    {
      "inputs": [
        {
          "internalType": "uint256",
          "name": "_tokenId",
          "type": "uint256"
        }
      ],
      "name": "getScroll",
      "outputs": [
        {
          "components": [
            {
              "internalType": "uint256",
              "name": "id",
              "type": "uint256"
            },
            {
              "internalType": "enum Constants.Quality",
              "name": "quality",
              "type": "uint8"
            },
            {
              "internalType": "address",
              "name": "owner",
              "type": "address"
            }
          ],
          "internalType": "struct MintingScrollNFT.Scroll",
          "name": "",
          "type": "tuple"
        }
      ],
      "stateMutability": "view",
      "type": "function"
    },
    {
      "inputs": [
        {
          "internalType": "address",
          "name": "owner",
          "type": "address"
        },
        {
          "internalType": "address",
          "name": "operator",
          "type": "address"
        }
      ],
      "name": "isApprovedForAll",
      "outputs": [
        {
          "internalType": "bool",
          "name": "",
          "type": "bool"
        }
      ],
      "stateMutability": "view",
      "type": "function"
    },
    {
      "inputs": [
        {
          "internalType": "address",
          "name": "_to",
          "type": "address"
        }
      ],
      "name": "mintScroll",
      "outputs": [],
      "stateMutability": "nonpayable",
      "type": "function"
    },
    {
      "inputs": [],
      "name": "name",
      "outputs": [
        {
          "internalType": "string",
          "name": "",
          "type": "string"
        }
      ],
      "stateMutability": "view",
      "type": "function"
    },
    {
      "inputs": [],
      "name": "owner",
      "outputs": [
        {
          "internalType": "address",
          "name": "",
          "type": "address"
        }
      ],
      "stateMutability": "view",
      "type": "function"
    },
    {
      "inputs": [
        {
          "internalType": "uint256",
          "name": "tokenId",
          "type": "uint256"
        }
      ],
      "name": "ownerOf",
      "outputs": [
        {
          "internalType": "address",
          "name": "",
          "type": "address"
        }
      ],
      "stateMutability": "view",
      "type": "function"
    },
    {
      "inputs": [],
      "name": "renounceOwnership",
      "outputs": [],
      "stateMutability": "nonpayable",
      "type": "function"
    },
    {
      "inputs": [
        {
          "internalType": "address",
          "name": "from",
          "type": "address"
        },
        {
          "internalType": "address",
          "name": "to",
          "type": "address"
        },
        {
          "internalType": "uint256",
          "name": "tokenId",
          "type": "uint256"
        }
      ],
      "name": "safeTransferFrom",
      "outputs": [],
      "stateMutability": "nonpayable",
      "type": "function"
    },
    {
      "inputs": [
        {
          "internalType": "address",
          "name": "from",
          "type": "address"
        },
        {
          "internalType": "address",
          "name": "to",
          "type": "address"
        },
        {
          "internalType": "uint256",
          "name": "tokenId",
          "type": "uint256"
        },
        {
          "internalType": "bytes",
          "name": "data",
          "type": "bytes"
        }
      ],
      "name": "safeTransferFrom",
      "outputs": [],
      "stateMutability": "nonpayable",
      "type": "function"
    },
    {
      "inputs": [
        {
          "internalType": "address",
          "name": "operator",
          "type": "address"
        },
        {
          "internalType": "bool",
          "name": "approved",
          "type": "bool"
        }
      ],
      "name": "setApprovalForAll",
      "outputs": [],
      "stateMutability": "nonpayable",
      "type": "function"
    },
    {
      "inputs": [
        {
          "internalType": "bytes4",
          "name": "interfaceId",
          "type": "bytes4"
        }
      ],
      "name": "supportsInterface",
      "outputs": [
        {
          "internalType": "bool",
          "name": "",
          "type": "bool"
        }
      ],
      "stateMutability": "view",
      "type": "function"
    },
    {
      "inputs": [],
      "name": "symbol",
      "outputs": [
        {
          "internalType": "string",
          "name": "",
          "type": "string"
        }
      ],
      "stateMutability": "view",
      "type": "function"
    },
    {
      "inputs": [
        {
          "internalType": "uint256",
          "name": "index",
          "type": "uint256"
        }
      ],
      "name": "tokenByIndex",
      "outputs": [
        {
          "internalType": "uint256",
          "name": "",
          "type": "uint256"
        }
      ],
      "stateMutability": "view",
      "type": "function"
    },
    {
      "inputs": [
        {
          "internalType": "address",
          "name": "owner",
          "type": "address"
        },
        {
          "internalType": "uint256",
          "name": "index",
          "type": "uint256"
        }
      ],
      "name": "tokenOfOwnerByIndex",
      "outputs": [
        {
          "internalType": "uint256",
          "name": "",
          "type": "uint256"
        }
      ],
      "stateMutability": "view",
      "type": "function"
    },
    {
      "inputs": [
        {
          "internalType": "uint256",
          "name": "tokenId",
          "type": "uint256"
        }
      ],
      "name": "tokenURI",
      "outputs": [
        {
          "internalType": "string",
          "name": "",
          "type": "string"
        }
      ],
      "stateMutability": "view",
      "type": "function"
    },
    {
      "inputs": [],
      "name": "totalSupply",
      "outputs": [
        {
          "internalType": "uint256",
          "name": "",
          "type": "uint256"
        }
      ],
      "stateMutability": "view",
      "type": "function"
    },
    {
      "inputs": [
        {
          "internalType": "address",
          "name": "from",
          "type": "address"
        },
        {
          "internalType": "address",
          "name": "to",
          "type": "address"
        },
        {
          "internalType": "uint256",
          "name": "tokenId",
          "type": "uint256"
        }
      ],
      "name": "transferFrom",
      "outputs": [],
      "stateMutability": "nonpayable",
      "type": "function"
    },
    {
      "inputs": [
        {
          "internalType": "address",
          "name": "newOwner",
          "type": "address"
        }
      ],
      "name": "transferOwnership",
      "outputs": [],
      "stateMutability": "nonpayable",
      "type": "function"
    },
    {
      "inputs": [
        {
          "internalType": "address",
          "name": "_from",
          "type": "address"
        },
        {
          "internalType": "address",
          "name": "_to",
          "type": "address"
        },
        {
          "internalType": "uint256",
          "name": "_tokenId",
          "type": "uint256"
        }
      ],
      "name": "transferScroll",
      "outputs": [],
      "stateMutability": "nonpayable",
      "type": "function"
    }
  ],
  "bytecode": "0x60806040523480156200001157600080fd5b50604051620021a7380380620021a78339810160408190526200003491620001e2565b604080518082018252601081526f135a5b9d1a5b99d4d8dc9bdb1b13919560821b6020808301918252835180850190945260048452631354d19560e21b90840152815191929162000088916000916200013c565b5080516200009e9060019060208401906200013c565b505050620000bb620000b5620000e660201b60201c565b620000ea565b6001600c55600b80546001600160a01b0319166001600160a01b03929092169190911790556200024f565b3390565b600a80546001600160a01b038381166001600160a01b0319831681179093556040519116919082907f8be0079c531659141344cd1fd0a4f28419497f9722a3daafe3b4186f6b6457e090600090a35050565b8280546200014a9062000212565b90600052602060002090601f0160209004810192826200016e5760008555620001b9565b82601f106200018957805160ff1916838001178555620001b9565b82800160010185558215620001b9579182015b82811115620001b95782518255916020019190600101906200019c565b50620001c7929150620001cb565b5090565b5b80821115620001c75760008155600101620001cc565b600060208284031215620001f4578081fd5b81516001600160a01b03811681146200020b578182fd5b9392505050565b6002810460018216806200022757607f821691505b602082108114156200024957634e487b7160e01b600052602260045260246000fd5b50919050565b611f48806200025f6000396000f3fe608060405234801561001057600080fd5b506004361061018e5760003560e01c8063800d3b12116100de578063b88d4fde11610097578063d61f26a011610071578063d61f26a0146103ce578063e985e9c5146103e1578063ef56479f1461041d578063f2fde38b146104305761018e565b8063b88d4fde14610375578063bbe0e21714610388578063c87b56dd146103bb5761018e565b8063800d3b12146102e55780638791fc83146102f85780638da5cb5b1461032957806395d89b411461033a5780639ba01cc214610342578063a22cb465146103625761018e565b80632f745c591161014b5780636352211e116101255780636352211e1461026e5780636b2c64bc1461028157806370a08231146102ca578063715018a6146102dd5761018e565b80632f745c591461023557806342842e0e146102485780634f6ccce71461025b5761018e565b806301ffc9a71461019357806306fdde03146101bb578063081812fc146101d0578063095ea7b3146101fb57806318160ddd1461021057806323b872dd14610222575b600080fd5b6101a66101a1366004611b8a565b610443565b60405190151581526020015b60405180910390f35b6101c3610470565b6040516101b29190611cba565b6101e36101de366004611bc2565b610502565b6040516001600160a01b0390911681526020016101b2565b61020e610209366004611b61565b610529565b005b6008545b6040519081526020016101b2565b61020e610230366004611a17565b610644565b610214610243366004611b61565b610675565b61020e610256366004611a17565b61070e565b610214610269366004611bc2565b610729565b6101e361027c366004611bc2565b6107ca565b6102bb61028f366004611bc2565b600d602052600090815260409020805460019091015460ff81169061010090046001600160a01b031683565b6040516101b293929190611db4565b6102146102d83660046119cb565b61082a565b61020e6108b0565b61020e6102f3366004611bc2565b6108c4565b6101e3610306366004611bc2565b6000908152600d602052604090206001015461010090046001600160a01b031690565b600a546001600160a01b03166101e3565b6101c3610980565b610355610350366004611bc2565b61098f565b6040516101b29190611d6d565b61020e610370366004611b27565b610a39565b61020e610383366004611a52565b610a48565b6103ae610396366004611bc2565b6000908152600d602052604090206001015460ff1690565b6040516101b29190611cac565b6101c36103c9366004611bc2565b610a80565b61020e6103dc3660046119cb565b610af4565b6101a66103ef3660046119e5565b6001600160a01b03918216600090815260056020908152604080832093909416825291909152205460ff1690565b61020e61042b366004611a17565b610c3a565b61020e61043e3660046119cb565b610cc6565b60006001600160e01b0319821663780e9d6360e01b1480610468575061046882610d3f565b90505b919050565b60606000805461047f90611e50565b80601f01602080910402602001604051908101604052809291908181526020018280546104ab90611e50565b80156104f85780601f106104cd576101008083540402835291602001916104f8565b820191906000526020600020905b8154815290600101906020018083116104db57829003601f168201915b5050505050905090565b600061050d82610d8f565b506000908152600460205260409020546001600160a01b031690565b6000610534826107ca565b9050806001600160a01b0316836001600160a01b031614156105a75760405162461bcd60e51b815260206004820152602160248201527f4552433732313a20617070726f76616c20746f2063757272656e74206f776e656044820152603960f91b60648201526084015b60405180910390fd5b336001600160a01b03821614806105c357506105c381336103ef565b6106355760405162461bcd60e51b815260206004820152603e60248201527f4552433732313a20617070726f76652063616c6c6572206973206e6f7420746f60448201527f6b656e206f776e6572206e6f7220617070726f76656420666f7220616c6c0000606482015260840161059e565b61063f8383610dee565b505050565b61064e3382610e5c565b61066a5760405162461bcd60e51b815260040161059e90611d1f565b61063f838383610edb565b60006106808361082a565b82106106e25760405162461bcd60e51b815260206004820152602b60248201527f455243373231456e756d657261626c653a206f776e657220696e646578206f7560448201526a74206f6620626f756e647360a81b606482015260840161059e565b506001600160a01b03821660009081526006602090815260408083208484529091529020545b92915050565b61063f83838360405180602001604052806000815250610a48565b600061073460085490565b82106107975760405162461bcd60e51b815260206004820152602c60248201527f455243373231456e756d657261626c653a20676c6f62616c20696e646578206f60448201526b7574206f6620626f756e647360a01b606482015260840161059e565b600882815481106107b857634e487b7160e01b600052603260045260246000fd5b90600052602060002001549050919050565b6000818152600260205260408120546001600160a01b0316806104685760405162461bcd60e51b8152602060048201526018602482015277115490cdcc8c4e881a5b9d985b1a59081d1bdad95b88125160421b604482015260640161059e565b60006001600160a01b0382166108945760405162461bcd60e51b815260206004820152602960248201527f4552433732313a2061646472657373207a65726f206973206e6f7420612076616044820152683634b21037bbb732b960b91b606482015260840161059e565b506001600160a01b031660009081526003602052604090205490565b6108b8611082565b6108c260006110dc565b565b600a546001600160a01b0316331461091e5760405162461bcd60e51b815260206004820181905260248201527f4f776e61626c653a2063616c6c6572206973206e6f7420746865206f776e6572604482015260640161059e565b6109278161112e565b60405181815233907f92ce4a84af823fde49114ac61b99af381d4f4ddb7b6dd791675b976e715a32829060200160405180910390a26000908152600d6020526040812090815560010180546001600160a81b0319169055565b60606001805461047f90611e50565b60408051606081018252600080825260208201819052918101919091526000828152600d6020908152604091829020825160608101909352805483526001810154909183019060ff1660048111156109f757634e487b7160e01b600052602160045260246000fd5b6004811115610a1657634e487b7160e01b600052602160045260246000fd5b81526001919091015461010090046001600160a01b031660209091015292915050565b610a443383836111d6565b5050565b610a523383610e5c565b610a6e5760405162461bcd60e51b815260040161059e90611d1f565b610a7a8484848461129d565b50505050565b6060610a8b82610d8f565b6000610aa260408051602081019091526000815290565b90506000815111610ac25760405180602001604052806000815250610aed565b80610acc846112d0565b604051602001610add929190611c40565b6040516020818303038152906040525b9392505050565b610afc611082565b60006040518060600160405280600c548152602001610b196113eb565b6004811115610b3857634e487b7160e01b600052602160045260246000fd5b81526001600160a01b038416602091820152600c546000908152600d8252604090208251815590820151600180830180549495508594909160ff1990911690836004811115610b9757634e487b7160e01b600052602160045260246000fd5b021790555060408201518160010160016101000a8154816001600160a01b0302191690836001600160a01b03160217905550905050610bd882600c54611494565b816001600160a01b03167f5bfb5ce1e4ac48f20bce26cdc505ca5b986db3fbd46d14d528a318e59b69a3a8600c548360200151604051610c19929190611da0565b60405180910390a2600c8054906000610c3183611e8b565b91905055505050565b6000818152600d602052604090206001018054610100600160a81b0319166101006001600160a01b03851602179055610c74838383610644565b816001600160a01b0316836001600160a01b03167ff2f92295e862301924eada071e693196705ca8058dc4385b5d02adac29dee3ac83604051610cb991815260200190565b60405180910390a3505050565b610cce611082565b6001600160a01b038116610d335760405162461bcd60e51b815260206004820152602660248201527f4f776e61626c653a206e6577206f776e657220697320746865207a65726f206160448201526564647265737360d01b606482015260840161059e565b610d3c816110dc565b50565b60006001600160e01b031982166380ac58cd60e01b1480610d7057506001600160e01b03198216635b5e139f60e01b145b8061046857506301ffc9a760e01b6001600160e01b0319831614610468565b6000818152600260205260409020546001600160a01b0316610d3c5760405162461bcd60e51b8152602060048201526018602482015277115490cdcc8c4e881a5b9d985b1a59081d1bdad95b88125160421b604482015260640161059e565b600081815260046020526040902080546001600160a01b0319166001600160a01b0384169081179091558190610e23826107ca565b6001600160a01b03167f8c5be1e5ebec7d5bd14f71427d1e84f3dd0314c0f7b2291e5b200ac8c7c3b92560405160405180910390a45050565b600080610e68836107ca565b9050806001600160a01b0316846001600160a01b03161480610eaf57506001600160a01b0380821660009081526005602090815260408083209388168352929052205460ff165b80610ed35750836001600160a01b0316610ec884610502565b6001600160a01b0316145b949350505050565b826001600160a01b0316610eee826107ca565b6001600160a01b031614610f525760405162461bcd60e51b815260206004820152602560248201527f4552433732313a207472616e736665722066726f6d20696e636f72726563742060448201526437bbb732b960d91b606482015260840161059e565b6001600160a01b038216610fb45760405162461bcd60e51b8152602060048201526024808201527f4552433732313a207472616e7366657220746f20746865207a65726f206164646044820152637265737360e01b606482015260840161059e565b610fbf8383836114ae565b610fca600082610dee565b6001600160a01b0383166000908152600360205260408120805460019290610ff3908490611e0d565b90915550506001600160a01b0382166000908152600360205260408120805460019290611021908490611de1565b909155505060008181526002602052604080822080546001600160a01b0319166001600160a01b0386811691821790925591518493918716917fddf252ad1be2c89b69c2b068fc378daa952ba7f163c4a11628f55a4df523b3ef91a461063f565b600a546001600160a01b031633146108c25760405162461bcd60e51b815260206004820181905260248201527f4f776e61626c653a2063616c6c6572206973206e6f7420746865206f776e6572604482015260640161059e565b600a80546001600160a01b038381166001600160a01b0319831681179093556040519116919082907f8be0079c531659141344cd1fd0a4f28419497f9722a3daafe3b4186f6b6457e090600090a35050565b6000611139826107ca565b9050611147816000846114ae565b611152600083610dee565b6001600160a01b038116600090815260036020526040812080546001929061117b908490611e0d565b909155505060008281526002602052604080822080546001600160a01b0319169055518391906001600160a01b038416907fddf252ad1be2c89b69c2b068fc378daa952ba7f163c4a11628f55a4df523b3ef908390a4610a44565b816001600160a01b0316836001600160a01b031614156112385760405162461bcd60e51b815260206004820152601960248201527f4552433732313a20617070726f766520746f2063616c6c657200000000000000604482015260640161059e565b6001600160a01b03838116600081815260056020908152604080832094871680845294825291829020805460ff191686151590811790915591519182527f17307eab39ab6107e8899845ad3d59bd9653f200f220920489ca2b5937696c319101610cb9565b6112a8848484610edb565b6112b48484848461156b565b610a7a5760405162461bcd60e51b815260040161059e90611ccd565b6060816112f557506040805180820190915260018152600360fc1b602082015261046b565b8160005b811561131f578061130981611e8b565b91506113189050600a83611df9565b91506112f9565b60008167ffffffffffffffff81111561134857634e487b7160e01b600052604160045260246000fd5b6040519080825280601f01601f191660200182016040528015611372576020820181803683370190505b5090505b8415610ed357611387600183611e0d565b9150611394600a86611ea6565b61139f906030611de1565b60f81b8183815181106113c257634e487b7160e01b600052603260045260246000fd5b60200101906001600160f81b031916908160001a9053506113e4600a86611df9565b9450611376565b600b5460405163dba2586160e01b8152600060048083018290526024830152916001600160a01b03169063dba2586190604401602060405180830381600087803b15801561143857600080fd5b505af115801561144c573d6000803e3d6000fd5b505050506040513d601f19601f820116820180604052508101906114709190611bda565b600481111561148f57634e487b7160e01b600052602160045260246000fd5b905090565b610a44828260405180602001604052806000815250611678565b6001600160a01b0383166115095761150481600880546000838152600960205260408120829055600182018355919091527ff3f7a9fe364faab93b216da50a3214154f22a0a2b415b23a84c8169e8b636ee30155565b61152c565b816001600160a01b0316836001600160a01b03161461152c5761152c83826116ab565b6001600160a01b0382166115485761154381611748565b61063f565b826001600160a01b0316826001600160a01b03161461063f5761063f8282611821565b60006001600160a01b0384163b1561166d57604051630a85bd0160e11b81526001600160a01b0385169063150b7a02906115af903390899088908890600401611c6f565b602060405180830381600087803b1580156115c957600080fd5b505af19250505080156115f9575060408051601f3d908101601f191682019092526115f691810190611ba6565b60015b611653573d808015611627576040519150601f19603f3d011682016040523d82523d6000602084013e61162c565b606091505b50805161164b5760405162461bcd60e51b815260040161059e90611ccd565b805181602001fd5b6001600160e01b031916630a85bd0160e11b149050610ed3565b506001949350505050565b6116828383611865565b61168f600084848461156b565b61063f5760405162461bcd60e51b815260040161059e90611ccd565b600060016116b88461082a565b6116c29190611e0d565b600083815260076020526040902054909150808214611715576001600160a01b03841660009081526006602090815260408083208584528252808320548484528184208190558352600790915290208190555b5060009182526007602090815260408084208490556001600160a01b039094168352600681528383209183525290812055565b60085460009061175a90600190611e0d565b6000838152600960205260408120546008805493945090928490811061179057634e487b7160e01b600052603260045260246000fd5b9060005260206000200154905080600883815481106117bf57634e487b7160e01b600052603260045260246000fd5b600091825260208083209091019290925582815260099091526040808220849055858252812055600880548061180557634e487b7160e01b600052603160045260246000fd5b6001900381819060005260206000200160009055905550505050565b600061182c8361082a565b6001600160a01b039093166000908152600660209081526040808320868452825280832085905593825260079052919091209190915550565b6001600160a01b0382166118bb5760405162461bcd60e51b815260206004820181905260248201527f4552433732313a206d696e7420746f20746865207a65726f2061646472657373604482015260640161059e565b6000818152600260205260409020546001600160a01b0316156119205760405162461bcd60e51b815260206004820152601c60248201527f4552433732313a20746f6b656e20616c7265616479206d696e74656400000000604482015260640161059e565b61192c600083836114ae565b6001600160a01b0382166000908152600360205260408120805460019290611955908490611de1565b909155505060008181526002602052604080822080546001600160a01b0319166001600160a01b03861690811790915590518392907fddf252ad1be2c89b69c2b068fc378daa952ba7f163c4a11628f55a4df523b3ef908290a4610a44565b80356001600160a01b038116811461046b57600080fd5b6000602082840312156119dc578081fd5b610aed826119b4565b600080604083850312156119f7578081fd5b611a00836119b4565b9150611a0e602084016119b4565b90509250929050565b600080600060608486031215611a2b578081fd5b611a34846119b4565b9250611a42602085016119b4565b9150604084013590509250925092565b60008060008060808587031215611a67578081fd5b611a70856119b4565b9350611a7e602086016119b4565b925060408501359150606085013567ffffffffffffffff80821115611aa1578283fd5b818701915087601f830112611ab4578283fd5b813581811115611ac657611ac6611ee6565b604051601f8201601f19908116603f01168101908382118183101715611aee57611aee611ee6565b816040528281528a6020848701011115611b06578586fd5b82602086016020830137918201602001949094529598949750929550505050565b60008060408385031215611b39578182fd5b611b42836119b4565b915060208301358015158114611b56578182fd5b809150509250929050565b60008060408385031215611b73578182fd5b611b7c836119b4565b946020939093013593505050565b600060208284031215611b9b578081fd5b8135610aed81611efc565b600060208284031215611bb7578081fd5b8151610aed81611efc565b600060208284031215611bd3578081fd5b5035919050565b600060208284031215611beb578081fd5b5051919050565b60008151808452611c0a816020860160208601611e24565b601f01601f19169290920160200192915050565b60058110611c3c57634e487b7160e01b600052602160045260246000fd5b9052565b60008351611c52818460208801611e24565b835190830190611c66818360208801611e24565b01949350505050565b6001600160a01b0385811682528416602082015260408101839052608060608201819052600090611ca290830184611bf2565b9695505050505050565b602081016107088284611c1e565b600060208252610aed6020830184611bf2565b60208082526032908201527f4552433732313a207472616e7366657220746f206e6f6e20455243373231526560408201527131b2b4bb32b91034b6b83632b6b2b73a32b960711b606082015260800190565b6020808252602e908201527f4552433732313a2063616c6c6572206973206e6f7420746f6b656e206f776e6560408201526d1c881b9bdc88185c1c1c9bdd995960921b606082015260800190565b815181526020808301516060830191611d8890840182611c1e565b506040928301516001600160a01b0316919092015290565b82815260408101610aed6020830184611c1e565b83815260608101611dc86020830185611c1e565b6001600160a01b03929092166040919091015292915050565b60008219821115611df457611df4611eba565b500190565b600082611e0857611e08611ed0565b500490565b600082821015611e1f57611e1f611eba565b500390565b60005b83811015611e3f578181015183820152602001611e27565b83811115610a7a5750506000910152565b600281046001821680611e6457607f821691505b60208210811415611e8557634e487b7160e01b600052602260045260246000fd5b50919050565b6000600019821415611e9f57611e9f611eba565b5060010190565b600082611eb557611eb5611ed0565b500690565b634e487b7160e01b600052601160045260246000fd5b634e487b7160e01b600052601260045260246000fd5b634e487b7160e01b600052604160045260246000fd5b6001600160e01b031981168114610d3c57600080fdfea2646970667358221220be67b2bbfa01568b83e495731f33a0520658f68d66f51584af1aad67f1e4bcba64736f6c63430008020033",
  "linkReferences": {},
  "deployedLinkReferences": {}
}