{
  "_format": "hh-sol-artifact-1",
  "contractName": "Move2Earn",
  "sourceName": "contracts/Move2Earn.sol",
  "abi": [
    {
      "inputs": [
        {
          "internalType": "address",
          "name": "_isneakerNFTAddress",
          "type": "address"
        },
        {
          "internalType": "address",
          "name": "_iMysteryBoxAddress",
          "type": "address"
        }
      ],
      "stateMutability": "nonpayable",
      "type": "constructor"
    },
    {
      "anonymous": false,
      "inputs": [
        {
          "indexed": true,
          "internalType": "address",
          "name": "previousOwner",
          "type": "address"
        },
        {
          "indexed": true,
          "internalType": "address",
          "name": "newOwner",
          "type": "address"
        }
      ],
      "name": "OwnershipTransferred",
      "type": "event"
    },
    {
      "anonymous": false,
      "inputs": [
        {
          "indexed": false,
          "internalType": "address",
          "name": "_user",
          "type": "address"
        },
        {
          "indexed": false,
          "internalType": "uint256",
          "name": "GSTTokenAmount",
          "type": "uint256"
        },
        {
          "indexed": false,
          "internalType": "uint256",
          "name": "GMTTokenAmount",
          "type": "uint256"
        },
        {
          "indexed": false,
          "internalType": "uint256",
          "name": "time",
          "type": "uint256"
        }
      ],
      "name": "Reward",
      "type": "event"
    },
    {
      "inputs": [
        {
          "internalType": "address",
          "name": "_user",
          "type": "address"
        }
      ],
      "name": "getUserEnergy",
      "outputs": [
        {
          "internalType": "uint8",
          "name": "energy",
          "type": "uint8"
        },
        {
          "internalType": "uint8",
          "name": "maxEnergy",
          "type": "uint8"
        }
      ],
      "stateMutability": "view",
      "type": "function"
    },
    {
      "inputs": [
        {
          "internalType": "uint256",
          "name": "_tokenId",
          "type": "uint256"
        },
        {
          "internalType": "uint16",
          "name": "_avgSpeed",
          "type": "uint16"
        },
        {
          "internalType": "uint16",
          "name": "_duration",
          "type": "uint16"
        },
        {
          "internalType": "bool",
          "name": "_gpsSignal",
          "type": "bool"
        }
      ],
      "name": "move2Earn",
      "outputs": [],
      "stateMutability": "nonpayable",
      "type": "function"
    },
    {
      "inputs": [],
      "name": "owner",
      "outputs": [
        {
          "internalType": "address",
          "name": "",
          "type": "address"
        }
      ],
      "stateMutability": "view",
      "type": "function"
    },
    {
      "inputs": [
        {
          "internalType": "address",
          "name": "_user",
          "type": "address"
        }
      ],
      "name": "refillUserEnergy",
      "outputs": [],
      "stateMutability": "nonpayable",
      "type": "function"
    },
    {
      "inputs": [],
      "name": "renounceOwnership",
      "outputs": [],
      "stateMutability": "nonpayable",
      "type": "function"
    },
    {
      "inputs": [
        {
          "internalType": "address",
          "name": "newOwner",
          "type": "address"
        }
      ],
      "name": "transferOwnership",
      "outputs": [],
      "stateMutability": "nonpayable",
      "type": "function"
    },
    {
      "inputs": [
        {
          "internalType": "address",
          "name": "_user",
          "type": "address"
        }
      ],
      "name": "updateUserMaxEnergy",
      "outputs": [],
      "stateMutability": "nonpayable",
      "type": "function"
    }
  ],
  "bytecode": "0x608060405234801561001057600080fd5b506040516111dd3803806111dd83398101604081905261002f916100d5565b61003833610069565b600180546001600160a01b039384166001600160a01b03199182161790915560028054929093169116179055610107565b600080546001600160a01b038381166001600160a01b0319831681178455604051919092169283917f8be0079c531659141344cd1fd0a4f28419497f9722a3daafe3b4186f6b6457e09190a35050565b80516001600160a01b03811681146100d057600080fd5b919050565b600080604083850312156100e7578182fd5b6100f0836100b9565b91506100fe602084016100b9565b90509250929050565b6110c7806101166000396000f3fe608060405234801561001057600080fd5b506004361061007d5760003560e01c8063879077c71161005b578063879077c7146100b25780638da5cb5b14610107578063caa75d0b14610122578063f2fde38b146101355761007d565b80633d64791414610082578063715018a614610097578063754faf401461009f575b600080fd5b610095610090366004610cf5565b610148565b005b61009561017c565b6100956100ad366004610cf5565b610190565b6100e86100c0366004610cf5565b6001600160a01b031660009081526003602052604090205460ff808216926101009092041690565b6040805160ff9384168152929091166020830152015b60405180910390f35b6000546040516001600160a01b0390911681526020016100fe565b610095610130366004610e94565b610287565b610095610143366004610cf5565b610990565b610150610a09565b6001600160a01b031660009081526003602052604090208054610100810460ff1660ff19909116179055565b610184610a09565b61018e6000610a63565b565b6001600160a01b03811660009081526003602052604090208054601460ff90911611156102045760405162461bcd60e51b815260206004820152601d60248201527f4d6f7665324561726e3a204d617820656e65726779207265616368656400000060448201526064015b60405180910390fd5b805460ff16610228578054600260ff199091161761ff001916610200178155610283565b8054610100900460ff1681600161023e83610ffc565b82546101009290920a60ff818102199093169183160217909155825416905081600061026983610ffc565b91906101000a81548160ff021916908360ff160217905550505b5050565b60015460405163f60372c560e01b8152600481018690526001600160a01b039091169063f60372c59060240160206040518083038186803b1580156102cb57600080fd5b505afa1580156102df573d6000803e3d6000fd5b505050506040513d601f19601f820116820180604052508101906103039190610d18565b6001600160a01b0316336001600160a01b0316146103715760405162461bcd60e51b815260206004820152602560248201527f4d6f7665324561726e3a204f6e6c79206f776e65722063616e2075736520736e60448201526432b0b5b2b960d91b60648201526084016101fb565b3360009081526003602052604090205460ff166103e05760405162461bcd60e51b815260206004820152602760248201527f4d6f7665324561726e3a20596f7520646f6e2774206861766520656e6f75676860448201526620656e6572677960c81b60648201526084016101fb565b806104375760405162461bcd60e51b815260206004820152602160248201527f4d6f7665324561726e3a20475053207369676e616c20697320726571756972656044820152601960fa1b60648201526084016101fb565b60015460405163dd59477960e01b8152600481018690526000916001600160a01b03169063dd5947799060240160006040518083038186803b15801561047c57600080fd5b505afa158015610490573d6000803e3d6000fd5b505050506040513d6000823e601f3d908101601f191682016040526104b89190810190610d34565b90506014816040015161ffff161180156104da57506014816020015161ffff16115b6105305760405162461bcd60e51b815260206004820152602160248201527f4d6f7665324561726e3a20536e65616b657220697320746f6f2064616d6167656044820152601960fa1b60648201526084016101fb565b60608101516020015160649060ff1661ffff8616118061055b575060608201515160ff1661ffff8616105b15610564575060325b6000610571600586610f55565b61057c906001610f17565b3360009081526003602052604090205490915060ff90811690821611156105b257503360009081526003602052604090205460ff165b60006105c2846101000151610ab3565b905060006105d38560400151610b4d565b905060006105e48660200151610b4d565b90506000620f42408261ffff168461ffff168860ff168860ff168b6080015160000151629896806106159190610f8a565b61062a60ff8b16670de0b6b3a7640000610fa9565b67ffffffffffffffff1661063e9190610f3d565b6106489190610f8a565b6106529190610f8a565b61065c9190610f8a565b6106669190610f8a565b6106709190610f76565b90508661016001511561077c576001546001600160a01b0316637356a2df3361069a600285610f76565b6106a5600286610f76565b6040516001600160e01b031960e086901b1681526001600160a01b03909316600484015260248301919091526044820152606401600060405180830381600087803b1580156106f357600080fd5b505af1158015610707573d6000803e3d6000fd5b505050507fe417c38cb96e748006d0ef1a56fec0de428abac103b6644bc30c745f54f543456107333390565b61073e600284610f76565b610749600285610f76565b604080516001600160a01b03909416845260208401929092529082015242606082015260800160405180910390a161084d565b6001546001600160a01b0316637356a2df336040516001600160e01b031960e084901b1681526001600160a01b0390911660048201526024810184905260006044820152606401600060405180830381600087803b1580156107dd57600080fd5b505af11580156107f1573d6000803e3d6000fd5b505050507fe417c38cb96e748006d0ef1a56fec0de428abac103b6644bc30c745f54f5434561081d3390565b604080516001600160a01b0390921682526020820184905260009082015242606082015260800160405180910390a15b60015460405163f4408adf60e01b8152600481018d905260ff87166024820181905260448201526001600160a01b039091169063f4408adf90606401600060405180830381600087803b1580156108a357600080fd5b505af11580156108b7573d6000803e3d6000fd5b5050505084600360006108c73390565b6001600160a01b031681526020810191909152604001600090812080549091906108f590849060ff16610fd9565b825460ff9182166101009390930a9283029190920219909116179055506002546001600160a01b0316636a62784261092a3390565b6040516001600160e01b031960e084901b1681526001600160a01b039091166004820152602401600060405180830381600087803b15801561096b57600080fd5b505af115801561097f573d6000803e3d6000fd5b505050505050505050505050505050565b610998610a09565b6001600160a01b0381166109fd5760405162461bcd60e51b815260206004820152602660248201527f4f776e61626c653a206e6577206f776e657220697320746865207a65726f206160448201526564647265737360d01b60648201526084016101fb565b610a0681610a63565b50565b6000546001600160a01b0316331461018e5760405162461bcd60e51b815260206004820181905260248201527f4f776e61626c653a2063616c6c6572206973206e6f7420746865206f776e657260448201526064016101fb565b600080546001600160a01b038381166001600160a01b0319831681178455604051919092169283917f8be0079c531659141344cd1fd0a4f28419497f9722a3daafe3b4186f6b6457e09190a35050565b600080826003811115610ad657634e487b7160e01b600052602160045260246000fd5b1415610ae457506004610b48565b6001826003811115610b0657634e487b7160e01b600052602160045260246000fd5b1415610b1457506005610b48565b6002826003811115610b3657634e487b7160e01b600052602160045260246000fd5b1415610b4457506006610b48565b5060075b919050565b6000605a8261ffff1610610b6357506064610b48565b60328261ffff1610610b775750605a610b48565b50600a919050565b8051610b488161105e565b600082601f830112610b9a578081fd5b8151602067ffffffffffffffff821115610bb657610bb6611048565b808202610bc4828201610ee6565b838152828101908684018388018501891015610bde578687fd5b8693505b85841015610c00578051835260019390930192918401918401610be2565b50979650505050505050565b600082601f830112610c1c578081fd5b610c266040610ee6565b808385604086011115610c37578384fd5b835b6002811015610c6057610c4b82610ce4565b84526020938401939190910190600101610c39565b509095945050505050565b8051610b4881611073565b805160058110610b4857600080fd5b805160048110610b4857600080fd5b600060808284031215610ca5578081fd5b610caf6080610ee6565b90508151815260208201516020820152604082015160408201526060820151606082015292915050565b8051610b4881611081565b805160ff81168114610b4857600080fd5b600060208284031215610d06578081fd5b8135610d118161105e565b9392505050565b600060208284031215610d29578081fd5b8151610d118161105e565b600060208284031215610d45578081fd5b815167ffffffffffffffff80821115610d5c578283fd5b908301906102408286031215610d70578283fd5b6101c0610d7c81610ee6565b83518152610d8c60208501610cd9565b6020820152610d9d60408501610cd9565b6040820152610daf8760608601610c0c565b6060820152610dc18760a08601610c94565b6080820152610120610dd4818601610b7f565b60a0830152610140610de7818701610ce4565b60c0840152610160610dfa818801610c76565b60e0850152610180610e0d818901610c85565b6101008601526101a0610e21818a01610ce4565b86860152958801519587871115610e3657898afd5b610e428c888b01610b8a565b84870152610e536101e08a01610c6b565b8387015261020089015182870152610220890151965087871115610e7557898afd5b610e818c888b01610b8a565b9086015250929998505050505050505050565b60008060008060808587031215610ea9578283fd5b843593506020850135610ebb81611081565b92506040850135610ecb81611081565b91506060850135610edb81611073565b939692955090935050565b604051601f8201601f1916810167ffffffffffffffff81118282101715610f0f57610f0f611048565b604052919050565b600061ffff808316818516808303821115610f3457610f3461101c565b01949350505050565b60008219821115610f5057610f5061101c565b500190565b600061ffff80841680610f6a57610f6a611032565b92169190910492915050565b600082610f8557610f85611032565b500490565b6000816000190483118215151615610fa457610fa461101c565b500290565b600067ffffffffffffffff80831681851681830481118215151615610fd057610fd061101c565b02949350505050565b600060ff821660ff841680821015610ff357610ff361101c565b90039392505050565b600060ff821660ff8114156110135761101361101c565b60010192915050565b634e487b7160e01b600052601160045260246000fd5b634e487b7160e01b600052601260045260246000fd5b634e487b7160e01b600052604160045260246000fd5b6001600160a01b0381168114610a0657600080fd5b8015158114610a0657600080fd5b61ffff81168114610a0657600080fdfea2646970667358221220ebe8f38343bf92e685d92aaf4c35f2533e467c3d47354681bebe7f55b7a41d3764736f6c63430008020033",
  "linkReferences": {},
  "deployedLinkReferences": {}
}