{
  "_format": "hh-sol-artifact-1",
  "contractName": "MysteryBox",
  "sourceName": "contracts/MysteryBox.sol",
  "abi": [
    {
      "inputs": [
        {
          "internalType": "address",
          "name": "_iRandom",
          "type": "address"
        },
        {
          "internalType": "address",
          "name": "_iGem",
          "type": "address"
        }
      ],
      "stateMutability": "nonpayable",
      "type": "constructor"
    },
    {
      "anonymous": false,
      "inputs": [
        {
          "indexed": false,
          "internalType": "address",
          "name": "owner",
          "type": "address"
        },
        {
          "indexed": false,
          "internalType": "uint256",
          "name": "tokenId",
          "type": "uint256"
        }
      ],
      "name": "BurnMysteryBox",
      "type": "event"
    },
    {
      "anonymous": false,
      "inputs": [
        {
          "indexed": true,
          "internalType": "address",
          "name": "_owner",
          "type": "address"
        },
        {
          "indexed": true,
          "internalType": "uint256",
          "name": "_id",
          "type": "uint256"
        }
      ],
      "name": "MintMysteryBox",
      "type": "event"
    },
    {
      "anonymous": false,
      "inputs": [
        {
          "indexed": true,
          "internalType": "address",
          "name": "previousOwner",
          "type": "address"
        },
        {
          "indexed": true,
          "internalType": "address",
          "name": "newOwner",
          "type": "address"
        }
      ],
      "name": "OwnershipTransferred",
      "type": "event"
    },
    {
      "inputs": [
        {
          "internalType": "address",
          "name": "_address",
          "type": "address"
        }
      ],
      "name": "balanceOf",
      "outputs": [
        {
          "internalType": "uint256",
          "name": "",
          "type": "uint256"
        }
      ],
      "stateMutability": "view",
      "type": "function"
    },
    {
      "inputs": [],
      "name": "coolDownTime",
      "outputs": [
        {
          "internalType": "uint256",
          "name": "",
          "type": "uint256"
        }
      ],
      "stateMutability": "view",
      "type": "function"
    },
    {
      "inputs": [
        {
          "internalType": "uint256",
          "name": "_tokenId",
          "type": "uint256"
        }
      ],
      "name": "getMysteryBox",
      "outputs": [
        {
          "components": [
            {
              "internalType": "uint256",
              "name": "id",
              "type": "uint256"
            },
            {
              "internalType": "address",
              "name": "owner",
              "type": "address"
            },
            {
              "internalType": "uint256",
              "name": "coolDown",
              "type": "uint256"
            }
          ],
          "internalType": "struct MysteryBox.MysBox",
          "name": "",
          "type": "tuple"
        }
      ],
      "stateMutability": "view",
      "type": "function"
    },
    {
      "inputs": [
        {
          "internalType": "address",
          "name": "_to",
          "type": "address"
        }
      ],
      "name": "mint",
      "outputs": [],
      "stateMutability": "nonpayable",
      "type": "function"
    },
    {
      "inputs": [
        {
          "internalType": "uint256",
          "name": "_tokenId",
          "type": "uint256"
        }
      ],
      "name": "open",
      "outputs": [],
      "stateMutability": "nonpayable",
      "type": "function"
    },
    {
      "inputs": [],
      "name": "owner",
      "outputs": [
        {
          "internalType": "address",
          "name": "",
          "type": "address"
        }
      ],
      "stateMutability": "view",
      "type": "function"
    },
    {
      "inputs": [
        {
          "internalType": "uint256",
          "name": "_tokenId",
          "type": "uint256"
        }
      ],
      "name": "ownerOf",
      "outputs": [
        {
          "internalType": "address",
          "name": "owner",
          "type": "address"
        }
      ],
      "stateMutability": "view",
      "type": "function"
    },
    {
      "inputs": [],
      "name": "renounceOwnership",
      "outputs": [],
      "stateMutability": "nonpayable",
      "type": "function"
    },
    {
      "inputs": [
        {
          "internalType": "uint256",
          "name": "_coolDownTime",
          "type": "uint256"
        }
      ],
      "name": "setCoolDownTime",
      "outputs": [],
      "stateMutability": "nonpayable",
      "type": "function"
    },
    {
      "inputs": [
        {
          "internalType": "address",
          "name": "_owner",
          "type": "address"
        },
        {
          "internalType": "uint256",
          "name": "_index",
          "type": "uint256"
        }
      ],
      "name": "tokenOwnByIndex",
      "outputs": [
        {
          "internalType": "uint256",
          "name": "",
          "type": "uint256"
        }
      ],
      "stateMutability": "view",
      "type": "function"
    },
    {
      "inputs": [
        {
          "internalType": "address",
          "name": "newOwner",
          "type": "address"
        }
      ],
      "name": "transferOwnership",
      "outputs": [],
      "stateMutability": "nonpayable",
      "type": "function"
    }
  ],
  "bytecode": "0x608060405234801561001057600080fd5b50604051610d0b380380610d0b83398101604081905261002f916100e0565b61003833610074565b600180546001600160a01b039384166001600160a01b03199182161782556002805493909416921691909117909155600355603c600455610112565b600080546001600160a01b038381166001600160a01b0319831681178455604051919092169283917f8be0079c531659141344cd1fd0a4f28419497f9722a3daafe3b4186f6b6457e09190a35050565b80516001600160a01b03811681146100db57600080fd5b919050565b600080604083850312156100f2578182fd5b6100fb836100c4565b9150610109602084016100c4565b90509250929050565b610bea806101216000396000f3fe608060405234801561001057600080fd5b50600436106100a95760003560e01c80636e16de11116100715780636e16de111461016557806370a0823114610178578063715018a6146101a15780638da5cb5b146101a9578063d2ce0db2146101ba578063f2fde38b146101c3576100a9565b80631141679b146100ae5780632fb61311146100d45780636352211e14610112578063690e7c091461013d5780636a62784214610152575b600080fd5b6100c16100bc366004610a82565b6101d6565b6040519081526020015b60405180910390f35b6100e76100e2366004610aab565b61026b565b60408051825181526020808401516001600160a01b03169082015291810151908201526060016100cb565b610125610120366004610aab565b6102dd565b6040516001600160a01b0390911681526020016100cb565b61015061014b366004610aab565b610342565b005b610150610160366004610a61565b610528565b610150610173366004610aab565b6106a1565b6100c1610186366004610a61565b6001600160a01b031660009081526009602052604090205490565b6101506106ae565b6000546001600160a01b0316610125565b6100c160045481565b6101506101d1366004610a61565b6106c2565b6001600160a01b03821660009081526009602052604081205482106102425760405162461bcd60e51b815260206004820152601e60248201527f4d797374657279426f783a20696e646578206f7574206f6620626f756e64000060448201526064015b60405180910390fd5b506001600160a01b03919091166000908152600660209081526040808320938352929052205490565b61029860405180606001604052806000815260200160006001600160a01b03168152602001600081525090565b5060008181526005602090815260409182902082516060810184528154815260018201546001600160a01b03169281019290925260020154918101919091525b919050565b6000818152600860205260409020546001600160a01b0316806102d85760405162461bcd60e51b815260206004820152601c60248201527f4d797374657279426f783a20696e76616c696420746f6b656e206964000000006044820152606401610239565b61034b816102dd565b6001600160a01b0316336001600160a01b03161461036857600080fd5b60006005600083815260200190815260200160002090506103ae6040518060400160405280600881526020016710d3d395149050d560c21b81525042836002015461073b565b806002015442116104195760405162461bcd60e51b815260206004820152602f60248201527f4d797374657279426f783a207761697420756e74696c206d7973746572426f7860448201526e1034b99031b7b7b632b2103237bbb760891b6064820152608401610239565b6001805460405163dba2586160e01b81526004810192909252600360248301526000916001600160a01b039091169063dba2586190604401602060405180830381600087803b15801561046b57600080fd5b505af115801561047f573d6000803e3d6000fd5b505050506040513d601f19601f820116820180604052508101906104a39190610ac3565b6002549091506001600160a01b031663691562a0336040516001600160e01b031960e084901b1681526001600160a01b03909116600482015260ff84166024820152604401600060405180830381600087803b15801561050257600080fd5b505af1158015610516573d6000803e3d6000fd5b5050505061052383610782565b505050565b6001600160a01b0381166105755760405162461bcd60e51b81526020600482015260146024820152731859191c995cdcc81a5cc81b9bdd081d985b1a5960621b6044820152606401610239565b6040805160608101825260035481526001600160a01b038316602082015260009181016105a342601e610b3d565b905260038054600090815260056020908152604080832085518155858301516001820180546001600160a01b039283166001600160a01b03199182161790915587840151600290930192909255855490891680865260068552838620600980875285882080548952918752858820849055815493885260078752858820939093559654865260088552928520805490921683179091559083529052815492935061064c83610b83565b90915550506003546040516001600160a01b038416907fdd75ea85c99f423a56c4de8bff05493a4f93f16aab0481d8d17aa1910d1e26a390600090a36003805490600061069883610b83565b91905055505050565b6106a961097f565b600455565b6106b661097f565b6106c060006109d9565b565b6106ca61097f565b6001600160a01b03811661072f5760405162461bcd60e51b815260206004820152602660248201527f4f776e61626c653a206e6577206f776e657220697320746865207a65726f206160448201526564647265737360d01b6064820152608401610239565b610738816109d9565b50565b61052383838360405160240161075393929190610adb565b60408051601f198184030181529190526020810180516001600160e01b031663969cdd0360e01b179052610a29565b61078b816102dd565b6001600160a01b0316336001600160a01b031614806107b457506000546001600160a01b031633145b61080e5760405162461bcd60e51b815260206004820152602560248201527f4d797374657279426f783a20556e61747574686f72697a656420746f206275726044820152641b881b999d60da1b6064820152608401610239565b6000818152600860209081526040808320546001600160a01b0316835260068252808320600990925282205490919061084990600190610b55565b815260208082019290925260409081016000908120548482526008845282822080546001600160a01b0390811684526006808752858520888652600788528686205486528752858520939093559054168252835281812060099093529081205490919082906108ba90600190610b55565b8152602080820192909252604090810160009081209390935583835260078252808320839055600582528083208381556001810180546001600160a01b03191690556002018390553383526009909152812080549161091883610b6c565b9091555050600081815260086020526040902080546001600160a01b03191690557f6ae3f1915fd8a54829674c84ac17cba4121a6b890c9b673efc3ad7537623871533604080516001600160a01b039092168252602082018490520160405180910390a150565b6000546001600160a01b031633146106c05760405162461bcd60e51b815260206004820181905260248201527f4f776e61626c653a2063616c6c6572206973206e6f7420746865206f776e65726044820152606401610239565b600080546001600160a01b038381166001600160a01b0319831681178455604051919092169283917f8be0079c531659141344cd1fd0a4f28419497f9722a3daafe3b4186f6b6457e09190a35050565b80516a636f6e736f6c652e6c6f67602083016000808483855afa5050505050565b80356001600160a01b03811681146102d857600080fd5b600060208284031215610a72578081fd5b610a7b82610a4a565b9392505050565b60008060408385031215610a94578081fd5b610a9d83610a4a565b946020939093013593505050565b600060208284031215610abc578081fd5b5035919050565b600060208284031215610ad4578081fd5b5051919050565b6000606082528451806060840152815b81811015610b085760208188018101516080868401015201610aeb565b81811115610b195782608083860101525b5060208301949094525060408101919091526080601f909201601f19160101919050565b60008219821115610b5057610b50610b9e565b500190565b600082821015610b6757610b67610b9e565b500390565b600081610b7b57610b7b610b9e565b506000190190565b6000600019821415610b9757610b97610b9e565b5060010190565b634e487b7160e01b600052601160045260246000fdfea2646970667358221220807acfb21f532c08aba2eba7fca98c332a886f6c35c5d0d11d57aae5f558890f64736f6c63430008020033",
  "linkReferences": {},
  "deployedLinkReferences": {}
}