{
  "_format": "hh-sol-artifact-1",
  "contractName": "MysteryBox",
  "sourceName": "contracts/MysteryBox.sol",
  "abi": [
    {
      "inputs": [
        {
          "internalType": "address",
          "name": "_iRandom",
          "type": "address"
        },
        {
          "internalType": "address",
          "name": "_iGem",
          "type": "address"
        }
      ],
      "stateMutability": "nonpayable",
      "type": "constructor"
    },
    {
      "anonymous": false,
      "inputs": [
        {
          "indexed": false,
          "internalType": "address",
          "name": "owner",
          "type": "address"
        },
        {
          "indexed": false,
          "internalType": "uint256",
          "name": "tokenId",
          "type": "uint256"
        }
      ],
      "name": "BurnMysteryBox",
      "type": "event"
    },
    {
      "anonymous": false,
      "inputs": [
        {
          "indexed": true,
          "internalType": "address",
          "name": "_owner",
          "type": "address"
        },
        {
          "indexed": true,
          "internalType": "uint256",
          "name": "_id",
          "type": "uint256"
        }
      ],
      "name": "MintMysteryBox",
      "type": "event"
    },
    {
      "anonymous": false,
      "inputs": [
        {
          "indexed": true,
          "internalType": "address",
          "name": "previousOwner",
          "type": "address"
        },
        {
          "indexed": true,
          "internalType": "address",
          "name": "newOwner",
          "type": "address"
        }
      ],
      "name": "OwnershipTransferred",
      "type": "event"
    },
    {
      "inputs": [
        {
          "internalType": "address",
          "name": "_address",
          "type": "address"
        }
      ],
      "name": "balanceOf",
      "outputs": [
        {
          "internalType": "uint256",
          "name": "",
          "type": "uint256"
        }
      ],
      "stateMutability": "view",
      "type": "function"
    },
    {
      "inputs": [
        {
          "internalType": "uint256",
          "name": "_tokenId",
          "type": "uint256"
        }
      ],
      "name": "getMysteryBox",
      "outputs": [
        {
          "components": [
            {
              "internalType": "uint256",
              "name": "id",
              "type": "uint256"
            },
            {
              "internalType": "address",
              "name": "owner",
              "type": "address"
            },
            {
              "internalType": "uint256",
              "name": "coolDown",
              "type": "uint256"
            }
          ],
          "internalType": "struct MysteryBox.MysBox",
          "name": "",
          "type": "tuple"
        }
      ],
      "stateMutability": "view",
      "type": "function"
    },
    {
      "inputs": [
        {
          "internalType": "address",
          "name": "_to",
          "type": "address"
        }
      ],
      "name": "mint",
      "outputs": [],
      "stateMutability": "nonpayable",
      "type": "function"
    },
    {
      "inputs": [
        {
          "internalType": "uint256",
          "name": "_tokenId",
          "type": "uint256"
        }
      ],
      "name": "open",
      "outputs": [],
      "stateMutability": "nonpayable",
      "type": "function"
    },
    {
      "inputs": [],
      "name": "owner",
      "outputs": [
        {
          "internalType": "address",
          "name": "",
          "type": "address"
        }
      ],
      "stateMutability": "view",
      "type": "function"
    },
    {
      "inputs": [
        {
          "internalType": "uint256",
          "name": "_tokenId",
          "type": "uint256"
        }
      ],
      "name": "ownerOf",
      "outputs": [
        {
          "internalType": "address",
          "name": "owner",
          "type": "address"
        }
      ],
      "stateMutability": "view",
      "type": "function"
    },
    {
      "inputs": [],
      "name": "renounceOwnership",
      "outputs": [],
      "stateMutability": "nonpayable",
      "type": "function"
    },
    {
      "inputs": [
        {
          "internalType": "uint256",
          "name": "_coolDownTime",
          "type": "uint256"
        }
      ],
      "name": "setCoolDownTime",
      "outputs": [],
      "stateMutability": "nonpayable",
      "type": "function"
    },
    {
      "inputs": [
        {
          "internalType": "address",
          "name": "_owner",
          "type": "address"
        },
        {
          "internalType": "uint256",
          "name": "_index",
          "type": "uint256"
        }
      ],
      "name": "tokenOwnByIndex",
      "outputs": [
        {
          "internalType": "uint256",
          "name": "",
          "type": "uint256"
        }
      ],
      "stateMutability": "view",
      "type": "function"
    },
    {
      "inputs": [
        {
          "internalType": "address",
          "name": "newOwner",
          "type": "address"
        }
      ],
      "name": "transferOwnership",
      "outputs": [],
      "stateMutability": "nonpayable",
      "type": "function"
    }
  ],
  "bytecode": "0x608060405234801561001057600080fd5b50604051610bf6380380610bf683398101604081905261002f916100eb565b6100383361007f565b600180546001600160a01b038085166001600160a01b03199283161783556002805491851691909216179055600381905561007490429061011d565b600455506101419050565b600080546001600160a01b038381166001600160a01b0319831681178455604051919092169283917f8be0079c531659141344cd1fd0a4f28419497f9722a3daafe3b4186f6b6457e09190a35050565b80516001600160a01b03811681146100e657600080fd5b919050565b600080604083850312156100fd578182fd5b610106836100cf565b9150610114602084016100cf565b90509250929050565b6000821982111561013c57634e487b7160e01b81526011600452602481fd5b500190565b610aa6806101506000396000f3fe608060405234801561001057600080fd5b506004361061009e5760003560e01c80636e16de11116100665780636e16de111461015a57806370a082311461016d578063715018a6146101965780638da5cb5b1461019e578063f2fde38b146101af5761009e565b80631141679b146100a35780632fb61311146100c95780636352211e14610107578063690e7c09146101325780636a62784214610147575b600080fd5b6100b66100b13660046109b8565b6101c2565b6040519081526020015b60405180910390f35b6100dc6100d73660046109e1565b610257565b60408051825181526020808401516001600160a01b03169082015291810151908201526060016100c0565b61011a6101153660046109e1565b6102c9565b6040516001600160a01b0390911681526020016100c0565b6101456101403660046109e1565b61032e565b005b610145610155366004610997565b6104dc565b6101456101683660046109e1565b61063f565b6100b661017b366004610997565b6001600160a01b031660009081526009602052604090205490565b61014561064c565b6000546001600160a01b031661011a565b6101456101bd366004610997565b610660565b6001600160a01b038216600090815260096020526040812054821061022e5760405162461bcd60e51b815260206004820152601e60248201527f4d797374657279426f783a20696e646578206f7574206f6620626f756e64000060448201526064015b60405180910390fd5b506001600160a01b03919091166000908152600660209081526040808320938352929052205490565b61028460405180606001604052806000815260200160006001600160a01b03168152602001600081525090565b5060008181526005602090815260409182902082516060810184528154815260018201546001600160a01b03169281019290925260020154918101919091525b919050565b6000818152600860205260409020546001600160a01b0316806102c45760405162461bcd60e51b815260206004820152601c60248201527f4d797374657279426f783a20696e76616c696420746f6b656e206964000000006044820152606401610225565b610337816102c9565b6001600160a01b0316336001600160a01b03161461035457600080fd5b6000818152600560205260409020600281015442116103cd5760405162461bcd60e51b815260206004820152602f60248201527f4d797374657279426f783a207761697420756e74696c206d7973746572426f7860448201526e1034b99031b7b7b632b2103237bbb760891b6064820152608401610225565b6001805460405163dba2586160e01b81526004810192909252600360248301526000916001600160a01b039091169063dba2586190604401602060405180830381600087803b15801561041f57600080fd5b505af1158015610433573d6000803e3d6000fd5b505050506040513d601f19601f8201168201806040525081019061045791906109f9565b6002549091506001600160a01b031663691562a0336040516001600160e01b031960e084901b1681526001600160a01b03909116600482015260ff84166024820152604401600060405180830381600087803b1580156104b657600080fd5b505af11580156104ca573d6000803e3d6000fd5b505050506104d7836106d9565b505050565b6104e46108d6565b6001600160a01b0381166105315760405162461bcd60e51b81526020600482015260146024820152731859191c995cdcc81a5cc81b9bdd081d985b1a5960621b6044820152606401610225565b60408051606081018252600380548083526001600160a01b038581166020808601828152600454878901908152600095865260058352888620885181559151600183018054919096166001600160a01b0319918216179095555160029091015584548285526006825287852060098084528987208054885291845289872083905581549287526007845289872092909255955485526008825296842080549093168217909255825293909352805491926105ea83610a3f565b90915550506003546040516001600160a01b038416907fdd75ea85c99f423a56c4de8bff05493a4f93f16aab0481d8d17aa1910d1e26a390600090a36003805490600061063683610a3f565b91905055505050565b6106476108d6565b600455565b6106546108d6565b61065e6000610930565b565b6106686108d6565b6001600160a01b0381166106cd5760405162461bcd60e51b815260206004820152602660248201527f4f776e61626c653a206e6577206f776e657220697320746865207a65726f206160448201526564647265737360d01b6064820152608401610225565b6106d681610930565b50565b6106e2816102c9565b6001600160a01b0316336001600160a01b0316148061070b57506000546001600160a01b031633145b6107655760405162461bcd60e51b815260206004820152602560248201527f4d797374657279426f783a20556e61747574686f72697a656420746f206275726044820152641b881b999d60da1b6064820152608401610225565b6000818152600860209081526040808320546001600160a01b031683526006825280832060099092528220549091906107a090600190610a11565b815260208082019290925260409081016000908120548482526008845282822080546001600160a01b03908116845260068087528585208886526007885286862054865287528585209390935590541682528352818120600990935290812054909190829061081190600190610a11565b8152602080820192909252604090810160009081209390935583835260078252808320839055600582528083208381556001810180546001600160a01b03191690556002018390553383526009909152812080549161086f83610a28565b9091555050600081815260086020526040902080546001600160a01b03191690557f6ae3f1915fd8a54829674c84ac17cba4121a6b890c9b673efc3ad7537623871533604080516001600160a01b039092168252602082018490520160405180910390a150565b6000546001600160a01b0316331461065e5760405162461bcd60e51b815260206004820181905260248201527f4f776e61626c653a2063616c6c6572206973206e6f7420746865206f776e65726044820152606401610225565b600080546001600160a01b038381166001600160a01b0319831681178455604051919092169283917f8be0079c531659141344cd1fd0a4f28419497f9722a3daafe3b4186f6b6457e09190a35050565b80356001600160a01b03811681146102c457600080fd5b6000602082840312156109a8578081fd5b6109b182610980565b9392505050565b600080604083850312156109ca578081fd5b6109d383610980565b946020939093013593505050565b6000602082840312156109f2578081fd5b5035919050565b600060208284031215610a0a578081fd5b5051919050565b600082821015610a2357610a23610a5a565b500390565b600081610a3757610a37610a5a565b506000190190565b6000600019821415610a5357610a53610a5a565b5060010190565b634e487b7160e01b600052601160045260246000fdfea2646970667358221220bcf3dd9d4adb5ff019e83a69b35a5d87bb20cb4a9d42755bf989c37c8b9e9e7f64736f6c63430008020033",
  "linkReferences": {},
  "deployedLinkReferences": {}
}