{
  "_format": "hh-sol-artifact-1",
  "contractName": "ShoeBoxNFT",
  "sourceName": "contracts/ShoeBoxNFT.sol",
  "abi": [
    {
      "inputs": [
        {
          "internalType": "address",
          "name": "_iRandom",
          "type": "address"
        },
        {
          "internalType": "address",
          "name": "_iSneaker",
          "type": "address"
        },
        {
          "internalType": "address",
          "name": "_iMintingScroll",
          "type": "address"
        }
      ],
      "stateMutability": "nonpayable",
      "type": "constructor"
    },
    {
      "anonymous": false,
      "inputs": [
        {
          "indexed": true,
          "internalType": "address",
          "name": "owner",
          "type": "address"
        },
        {
          "indexed": true,
          "internalType": "address",
          "name": "approved",
          "type": "address"
        },
        {
          "indexed": true,
          "internalType": "uint256",
          "name": "tokenId",
          "type": "uint256"
        }
      ],
      "name": "Approval",
      "type": "event"
    },
    {
      "anonymous": false,
      "inputs": [
        {
          "indexed": true,
          "internalType": "address",
          "name": "owner",
          "type": "address"
        },
        {
          "indexed": true,
          "internalType": "address",
          "name": "operator",
          "type": "address"
        },
        {
          "indexed": false,
          "internalType": "bool",
          "name": "approved",
          "type": "bool"
        }
      ],
      "name": "ApprovalForAll",
      "type": "event"
    },
    {
      "anonymous": false,
      "inputs": [
        {
          "indexed": true,
          "internalType": "address",
          "name": "_to",
          "type": "address"
        },
        {
          "indexed": false,
          "internalType": "uint256",
          "name": "_id",
          "type": "uint256"
        },
        {
          "indexed": false,
          "internalType": "enum Constants.Quality",
          "name": "_quality",
          "type": "uint8"
        }
      ],
      "name": "MintShoeBox",
      "type": "event"
    },
    {
      "anonymous": false,
      "inputs": [
        {
          "indexed": false,
          "internalType": "address",
          "name": "owner",
          "type": "address"
        },
        {
          "indexed": false,
          "internalType": "uint256",
          "name": "id",
          "type": "uint256"
        }
      ],
      "name": "OpenShoeBox",
      "type": "event"
    },
    {
      "anonymous": false,
      "inputs": [
        {
          "indexed": true,
          "internalType": "address",
          "name": "previousOwner",
          "type": "address"
        },
        {
          "indexed": true,
          "internalType": "address",
          "name": "newOwner",
          "type": "address"
        }
      ],
      "name": "OwnershipTransferred",
      "type": "event"
    },
    {
      "anonymous": false,
      "inputs": [
        {
          "indexed": true,
          "internalType": "address",
          "name": "from",
          "type": "address"
        },
        {
          "indexed": true,
          "internalType": "address",
          "name": "to",
          "type": "address"
        },
        {
          "indexed": true,
          "internalType": "uint256",
          "name": "tokenId",
          "type": "uint256"
        }
      ],
      "name": "Transfer",
      "type": "event"
    },
    {
      "anonymous": false,
      "inputs": [
        {
          "indexed": true,
          "internalType": "address",
          "name": "from",
          "type": "address"
        },
        {
          "indexed": true,
          "internalType": "address",
          "name": "to",
          "type": "address"
        },
        {
          "indexed": true,
          "internalType": "uint256",
          "name": "tokenId",
          "type": "uint256"
        }
      ],
      "name": "TransferShoeBox",
      "type": "event"
    },
    {
      "inputs": [
        {
          "internalType": "address",
          "name": "to",
          "type": "address"
        },
        {
          "internalType": "uint256",
          "name": "tokenId",
          "type": "uint256"
        }
      ],
      "name": "approve",
      "outputs": [],
      "stateMutability": "nonpayable",
      "type": "function"
    },
    {
      "inputs": [
        {
          "internalType": "address",
          "name": "owner",
          "type": "address"
        }
      ],
      "name": "balanceOf",
      "outputs": [
        {
          "internalType": "uint256",
          "name": "",
          "type": "uint256"
        }
      ],
      "stateMutability": "view",
      "type": "function"
    },
    {
      "inputs": [
        {
          "internalType": "uint256",
          "name": "_tokenId",
          "type": "uint256"
        }
      ],
      "name": "burn",
      "outputs": [],
      "stateMutability": "nonpayable",
      "type": "function"
    },
    {
      "inputs": [
        {
          "internalType": "uint256",
          "name": "tokenId",
          "type": "uint256"
        }
      ],
      "name": "getApproved",
      "outputs": [
        {
          "internalType": "address",
          "name": "",
          "type": "address"
        }
      ],
      "stateMutability": "view",
      "type": "function"
    },
    {
      "inputs": [
        {
          "internalType": "enum Constants.Quality",
          "name": "_quality1",
          "type": "uint8"
        },
        {
          "internalType": "enum Constants.Quality",
          "name": "_quality2",
          "type": "uint8"
        }
      ],
      "name": "getProbability",
      "outputs": [
        {
          "internalType": "uint8[]",
          "name": "",
          "type": "uint8[]"
        }
      ],
      "stateMutability": "view",
      "type": "function"
    },
    {
      "inputs": [
        {
          "internalType": "uint256",
          "name": "_tokenId",
          "type": "uint256"
        }
      ],
      "name": "getShoeBox",
      "outputs": [
        {
          "components": [
            {
              "internalType": "uint256",
              "name": "id",
              "type": "uint256"
            },
            {
              "internalType": "address",
              "name": "owner",
              "type": "address"
            },
            {
              "internalType": "uint256",
              "name": "parentSneaker1",
              "type": "uint256"
            },
            {
              "internalType": "uint256",
              "name": "parentSneaker2",
              "type": "uint256"
            },
            {
              "internalType": "enum Constants.Quality",
              "name": "quality",
              "type": "uint8"
            },
            {
              "internalType": "enum Constants.SneakerType",
              "name": "sneakerType",
              "type": "uint8"
            }
          ],
          "internalType": "struct ShoeBoxNFT.ShoeBox",
          "name": "",
          "type": "tuple"
        }
      ],
      "stateMutability": "view",
      "type": "function"
    },
    {
      "inputs": [
        {
          "internalType": "address",
          "name": "owner",
          "type": "address"
        },
        {
          "internalType": "address",
          "name": "operator",
          "type": "address"
        }
      ],
      "name": "isApprovedForAll",
      "outputs": [
        {
          "internalType": "bool",
          "name": "",
          "type": "bool"
        }
      ],
      "stateMutability": "view",
      "type": "function"
    },
    {
      "inputs": [
        {
          "internalType": "uint256",
          "name": "_sneakerId1",
          "type": "uint256"
        },
        {
          "internalType": "uint256",
          "name": "_sneakerId2",
          "type": "uint256"
        },
        {
          "internalType": "uint256",
          "name": "_mintingScrollId1",
          "type": "uint256"
        },
        {
          "internalType": "uint256",
          "name": "_mintingScrollId2",
          "type": "uint256"
        }
      ],
      "name": "mint",
      "outputs": [],
      "stateMutability": "nonpayable",
      "type": "function"
    },
    {
      "inputs": [],
      "name": "name",
      "outputs": [
        {
          "internalType": "string",
          "name": "",
          "type": "string"
        }
      ],
      "stateMutability": "view",
      "type": "function"
    },
    {
      "inputs": [
        {
          "internalType": "uint256",
          "name": "_tokenId",
          "type": "uint256"
        }
      ],
      "name": "open",
      "outputs": [],
      "stateMutability": "nonpayable",
      "type": "function"
    },
    {
      "inputs": [],
      "name": "owner",
      "outputs": [
        {
          "internalType": "address",
          "name": "",
          "type": "address"
        }
      ],
      "stateMutability": "view",
      "type": "function"
    },
    {
      "inputs": [
        {
          "internalType": "uint256",
          "name": "tokenId",
          "type": "uint256"
        }
      ],
      "name": "ownerOf",
      "outputs": [
        {
          "internalType": "address",
          "name": "",
          "type": "address"
        }
      ],
      "stateMutability": "view",
      "type": "function"
    },
    {
      "inputs": [],
      "name": "renounceOwnership",
      "outputs": [],
      "stateMutability": "nonpayable",
      "type": "function"
    },
    {
      "inputs": [
        {
          "internalType": "address",
          "name": "from",
          "type": "address"
        },
        {
          "internalType": "address",
          "name": "to",
          "type": "address"
        },
        {
          "internalType": "uint256",
          "name": "tokenId",
          "type": "uint256"
        }
      ],
      "name": "safeTransferFrom",
      "outputs": [],
      "stateMutability": "nonpayable",
      "type": "function"
    },
    {
      "inputs": [
        {
          "internalType": "address",
          "name": "from",
          "type": "address"
        },
        {
          "internalType": "address",
          "name": "to",
          "type": "address"
        },
        {
          "internalType": "uint256",
          "name": "tokenId",
          "type": "uint256"
        },
        {
          "internalType": "bytes",
          "name": "data",
          "type": "bytes"
        }
      ],
      "name": "safeTransferFrom",
      "outputs": [],
      "stateMutability": "nonpayable",
      "type": "function"
    },
    {
      "inputs": [
        {
          "internalType": "address",
          "name": "operator",
          "type": "address"
        },
        {
          "internalType": "bool",
          "name": "approved",
          "type": "bool"
        }
      ],
      "name": "setApprovalForAll",
      "outputs": [],
      "stateMutability": "nonpayable",
      "type": "function"
    },
    {
      "inputs": [
        {
          "internalType": "bytes4",
          "name": "interfaceId",
          "type": "bytes4"
        }
      ],
      "name": "supportsInterface",
      "outputs": [
        {
          "internalType": "bool",
          "name": "",
          "type": "bool"
        }
      ],
      "stateMutability": "view",
      "type": "function"
    },
    {
      "inputs": [],
      "name": "symbol",
      "outputs": [
        {
          "internalType": "string",
          "name": "",
          "type": "string"
        }
      ],
      "stateMutability": "view",
      "type": "function"
    },
    {
      "inputs": [
        {
          "internalType": "uint256",
          "name": "index",
          "type": "uint256"
        }
      ],
      "name": "tokenByIndex",
      "outputs": [
        {
          "internalType": "uint256",
          "name": "",
          "type": "uint256"
        }
      ],
      "stateMutability": "view",
      "type": "function"
    },
    {
      "inputs": [
        {
          "internalType": "address",
          "name": "owner",
          "type": "address"
        },
        {
          "internalType": "uint256",
          "name": "index",
          "type": "uint256"
        }
      ],
      "name": "tokenOfOwnerByIndex",
      "outputs": [
        {
          "internalType": "uint256",
          "name": "",
          "type": "uint256"
        }
      ],
      "stateMutability": "view",
      "type": "function"
    },
    {
      "inputs": [
        {
          "internalType": "uint256",
          "name": "tokenId",
          "type": "uint256"
        }
      ],
      "name": "tokenURI",
      "outputs": [
        {
          "internalType": "string",
          "name": "",
          "type": "string"
        }
      ],
      "stateMutability": "view",
      "type": "function"
    },
    {
      "inputs": [],
      "name": "totalSupply",
      "outputs": [
        {
          "internalType": "uint256",
          "name": "",
          "type": "uint256"
        }
      ],
      "stateMutability": "view",
      "type": "function"
    },
    {
      "inputs": [
        {
          "internalType": "address",
          "name": "from",
          "type": "address"
        },
        {
          "internalType": "address",
          "name": "to",
          "type": "address"
        },
        {
          "internalType": "uint256",
          "name": "tokenId",
          "type": "uint256"
        }
      ],
      "name": "transferFrom",
      "outputs": [],
      "stateMutability": "nonpayable",
      "type": "function"
    },
    {
      "inputs": [
        {
          "internalType": "address",
          "name": "newOwner",
          "type": "address"
        }
      ],
      "name": "transferOwnership",
      "outputs": [],
      "stateMutability": "nonpayable",
      "type": "function"
    },
    {
      "inputs": [
        {
          "internalType": "address",
          "name": "_from",
          "type": "address"
        },
        {
          "internalType": "address",
          "name": "_to",
          "type": "address"
        },
        {
          "internalType": "uint256",
          "name": "_tokenId",
          "type": "uint256"
        }
      ],
      "name": "transferShoeBox",
      "outputs": [],
      "stateMutability": "nonpayable",
      "type": "function"
    }
  ],
  "bytecode": "0x60806040523480156200001157600080fd5b50604051620046613803806200466183398101604081905262000034916200105e565b60408051808201825260088152670a6d0deca4084def60c31b6020808301918252835180850190945260038452620a684b60eb1b9084015281519192916200007f9160009162000ef8565b5080516200009590600190602084019062000ef8565b505050620000b2620000ac6200017660201b60201c565b6200017a565b6001600e556001600160a01b038316620001125760405162461bcd60e51b815260206004820152601c60248201527f6952616e646f6d2061646472657373206973206e6f742076616c696400000000604482015260640160405180910390fd5b600b80546001600160a01b038086166001600160a01b031992831617909255600c8054858416908316179055600d80549284169290911691909117905562000159620001cc565b62000163620008ce565b6200016d62000aa7565b505050620010e4565b3390565b600a80546001600160a01b038381166001600160a01b0319831681179093556040519116919082907f8be0079c531659141344cd1fd0a4f28419497f9722a3daafe3b4186f6b6457e090600090a35050565b6040805160a081018252606481526000602080830182905292820181905260608201819052608082018190528052600080516020620046018339815191529091526200023c907f708af3637a57d6531c38e3c4583eeafa8c56b41340b2abffa2ccba77788205ce90600562000f87565b506040805160a0810182526032815260316020808301919091526001928201839052600060608301819052608083018190529290925260008051602062004601833981519152909152620002b4907f9d7b4b86750ebdfb3286f1d6d6e10e6737ad0e2b51f87675faad0f7f4a752dff90600562000f87565b506040805160a0810182526032815260006020808301829052603193830193909352600160608301526080820181905260029052600080516020620046018339815191529091526200032a907f6c1032f3a03883eb44928204d99058698a6a4063c0fee5f4077ad35871c61ae190600562000f87565b506040805160a0810182526032815260006020808301829052928201819052603160608301526001608083015260039052600080516020620046018339815191529091526200039d907fa5885a979809277f2296a51f707e49064a4aab7cb585309ac40b0d3b3d27eb0990600562000f87565b506040805160a081018252603280825260006020808401829052938301819052606083018190526080830191909152600490526000805160206200460183398151915290915262000412907f0be1d78b9a29126ef62eafda7f94713338d9db6d05b6adf300ba51fcf54ab20590600562000f87565b506040805160a08101825260008082526062602080840191909152600293830193909352606082018190526080820181905260019052600080516020620045818339815191529091526200048a907f1061b5517c6e1813fa4a07d1613ee4384e750538d69c4513a8df591da5f938ac90600562000f87565b506040805160a081018252600080825260316020808401919091526032938301939093526001606083015260808201819052600290526000805160206200458183398151915290915262000502907f35ac6e3f5d662ce5e5646170c540f4363ae8e58a5f27a153e746ced9ed5d3a6a90600562000f87565b506040805160a081018252600080825260316020808401829052600194840194909452606083015260808201819052600390526000805160206200458183398151915290915262000577907f27ecb3381e588894c8c3289f7225118941ced1dba06d926a22dc78e1f95b879090600562000f87565b506040805160a0810182526000808252603160208084019190915260019383019390935260608201819052603260808301526004905260008051602062004581833981519152909152620005ef907f79770c9b7871c6f48a4ee7f11b62a97cc89b020ba23b8e44b340b9b9577fc0f690600562000f87565b506040805160a081018252600080825260208083018290526062938301939093526002606083018190526080830182905290526000805160206200462183398151915290915262000664907f3e22aba1abb747000726bbdaf7b6f6b581a8044a0b8c87e3a7dab47bdb2d9cb590600562000f87565b506040805160a0810182526000808252602080830182905260319383019390935260326060830152600160808301526003905260008051602062004621833981519152909152620006d9907fdbe4e24770d296076e9d255f64f0f560a2e62f5a24b27c720de249547c15863b90600562000f87565b506040805160a08101825260008082526020808301829052603193830193909352600160608301526032608083015260049052600080516020620046218339815191529091526200074e907f500dacc4909c4ffd0c28f15cc9ecdd42eff74f457164e7dbe1e11e80bf1c067590600562000f87565b506040805160a08101825260008082526020808301829052928201819052606260608301526002608083015260039052600080516020620045e1833981519152909152620007c0907f727222e605b161903a1d94f4c4ba65d8f868ffb46c709f8714da2fb894daf1c490600562000f87565b506040805160a08101825260008082526020808301829052928201819052603160608301526033608083015260049052600080516020620045e183398151915290915262000832907f970c96410e7c9cf81bd2faca4f968dc34140babeabd96cb85de769b772276b7190600562000f87565b506040805160a0810182526000808252602080830182905292820181905260608201819052606460808301526004808252601090935290917f1588ac671d87f82adc0e6ae8ab009c0de98f92a20243897597e566bc59b9c12691905b6004811115620008ae57634e487b7160e01b600052602160045260246000fd5b81526020810191909152604001600020620008cb91600562000f87565b50565b6040805160a08101825260618152600360208083019190915260009282018390526060820183905260808201839052918052601190915262000934907f4ad3b33220dddc71b994a52d72c06b10862965f7d926534c05c00fb7e819e7b790600562000f87565b506040805160a081018252601981526049602080830191909152600292820192909252600060608201819052608082018190526001905260119091526200099f907f17bc176d2408558f6e4111feebc3cab4e16b63e967be91cde721f4c8a488b55290600562000f87565b506040805160a0810182526000808252601b602080840191909152604793830193909352600260608301819052608083018290529052601190915262000a09907f08037d7b151cc412d25674a4e66b334d9ae9d2e5517a7feaae5cdb828bf1c62890600562000f87565b506040805160a08101825260008082526020808301829052601e93830193909352604460608301526002608083015260039052601190915262000a70907f9bfbaa59f8e10e7868f8b402de9d605a390c45ddaebd8c9de3c6f31e733c87ff90600562000f87565b506040805160a08101825260008082526020820181905291810182905260236060820152604160808201529060119060046200088e565b604080516080810182526055815260066020808301829052928201526003606082015260008052600080516020620045c183398151915290915262000b10907f8db2c085df7021c9e8f8b03b60c31294774ad24a7785b21e9fc96c5bad3c4ec190600462000f87565b5060408051608081018252602d808252602080830191909152600792820192909252600360608201526001600052600080516020620045c183398151915290915262000b80907f53e7d4ebcba0e1e5b31dace7c1ebe1135fa0d042a8fe38107e6f3eadab5161ee90600462000f87565b5060408051608081018252602d808252600760208084019190915292820152600360608201526002600052600080516020620045c183398151915290915262000bed907fa9ef358dbf82e16b2280e8ee94346dcf9cd10170a1c4b005c82c8175e9b931b290600462000f87565b5060408051608081018252605081526006602080830182905292820152600860608201526003600052600080516020620045c183398151915290915262000c58907fe7c2d40d6cd19dfada1b92a77cae4f29d362406987b389f7280b97924605d2cb90600462000f87565b50604080516080810182526006808252605560208084019190915292820152600360608201526001600052600080516020620045a183398151915290915262000cc5907f628fdbde3854960024793e7005a3e0b50e92e3c7fc7dc51f304693482c1d904d90600462000f87565b506040805160808101825260078152602d602080830182905292820152600360608201526002600052600080516020620045a183398151915290915262000d30907ffc706dc0b3ead6395cd253c27f6fa469aa729ed9ac5bd9a2ffaf1beee31b915f90600462000f87565b50604080516080810182526006808252605060208084019190915292820152600860608201526003600052600080516020620045a183398151915290915262000d9d907fff014f7a4bdf2dd4d24b079aefe9d201f134599d609f82bb2b73ff527533fe9590600462000f87565b506040805160808101825260068082526020808301919091526055928201929092526003606082015260026000526000805160206200464183398151915290915262000e0d907fcc68abcee42f68dd3e5c80e2b8a5d9719c417e0495f74b45f9084f5e5ba7044a90600462000f87565b506040805160808101825260068082526020808301919091526050928201929092526008606082015260036000526000805160206200464183398151915290915262000e7d907fce5171cd5ae5cf33090bc67df7323b931e7dae06bc67d482ca1b5668b01542ac90600462000f87565b506040805160808101825260198082526020808301829052928201819052606082015260036000527f0f36ad39aee03e7108cc48f54934702a5f0d4066f10344cebf8198978d86976a909152620008cb907f86bbcc7439e701fc61f916e48a756bfc118a55483dd539d7f0ef3464c548ed8b90600462000f87565b82805462000f0690620010a7565b90600052602060002090601f01602090048101928262000f2a576000855562000f75565b82601f1062000f4557805160ff191683800117855562000f75565b8280016001018555821562000f75579182015b8281111562000f7557825182559160200191906001019062000f58565b5062000f839291506200102a565b5090565b82805482825590600052602060002090601f0160209004810192821562000f755791602002820160005b8382111562000ff157835183826101000a81548160ff021916908360ff160217905550926020019260010160208160000104928301926001030262000fb1565b8015620010205782816101000a81549060ff021916905560010160208160000104928301926001030262000ff1565b505062000f839291505b5b8082111562000f8357600081556001016200102b565b80516001600160a01b03811681146200105957600080fd5b919050565b60008060006060848603121562001073578283fd5b6200107e8462001041565b92506200108e6020850162001041565b91506200109e6040850162001041565b90509250925092565b600281046001821680620010bc57607f821691505b60208210811415620010de57634e487b7160e01b600052602260045260246000fd5b50919050565b61348d80620010f46000396000f3fe608060405234801561001057600080fd5b50600436106101735760003560e01c8063690e7c09116100de578063a22cb46511610097578063c87b56dd11610071578063c87b56dd1461032c578063cf9e56da1461033f578063e985e9c51461035f578063f2fde38b1461039b57610173565b8063a22cb465146102f3578063af4f6a4c14610306578063b88d4fde1461031957610173565b8063690e7c091461028c5780636b51b77a1461029f57806370a08231146102bf578063715018a6146102d25780638da5cb5b146102da57806395d89b41146102eb57610173565b80632f745c59116101305780632f745c591461021a57806342842e0e1461022d57806342966c68146102405780634f6ccce7146102535780636352211e146102665780636582ccd31461027957610173565b806301ffc9a71461017857806306fdde03146101a0578063081812fc146101b5578063095ea7b3146101e057806318160ddd146101f557806323b872dd14610207575b600080fd5b61018b610186366004612ee1565b6103ae565b60405190151581526020015b60405180910390f35b6101a86103db565b604051610197919061317b565b6101c86101c3366004612fa7565b61046d565b6040516001600160a01b039091168152602001610197565b6101f36101ee366004612eb6565b610494565b005b6008545b604051908152602001610197565b6101f3610215366004612d89565b6105af565b6101f9610228366004612eb6565b6105e0565b6101f361023b366004612d89565b610676565b6101f361024e366004612fa7565b610691565b6101f9610261366004612fa7565b610743565b6101c8610274366004612fa7565b6107e4565b6101f3610287366004612fd7565b610844565b6101f361029a366004612fa7565b611526565b6102b26102ad366004612f35565b6117bd565b6040516101979190613134565b6101f96102cd366004612d19565b6118d4565b6101f361195a565b600a546001600160a01b03166101c8565b6101a861196e565b6101f3610301366004612e85565b61197d565b6101f3610314366004612d89565b61198c565b6101f3610327366004612dc9565b611a07565b6101a861033a366004612fa7565b611a3f565b61035261034d366004612fa7565b611ab3565b604051610197919061322e565b61018b61036d366004612d51565b6001600160a01b03918216600090815260056020908152604080832093909416825291909152205460ff1690565b6101f36103a9366004612d19565b611bb2565b60006001600160e01b0319821663780e9d6360e01b14806103d357506103d382611c2b565b90505b919050565b6060600080546103ea90613363565b80601f016020809104026020016040519081016040528092919081815260200182805461041690613363565b80156104635780601f1061043857610100808354040283529160200191610463565b820191906000526020600020905b81548152906001019060200180831161044657829003601f168201915b5050505050905090565b600061047882611c7b565b506000908152600460205260409020546001600160a01b031690565b600061049f826107e4565b9050806001600160a01b0316836001600160a01b031614156105125760405162461bcd60e51b815260206004820152602160248201527f4552433732313a20617070726f76616c20746f2063757272656e74206f776e656044820152603960f91b60648201526084015b60405180910390fd5b336001600160a01b038216148061052e575061052e813361036d565b6105a05760405162461bcd60e51b815260206004820152603e60248201527f4552433732313a20617070726f76652063616c6c6572206973206e6f7420746f60448201527f6b656e206f776e6572206e6f7220617070726f76656420666f7220616c6c00006064820152608401610509565b6105aa8383611cda565b505050565b6105b93382611d48565b6105d55760405162461bcd60e51b8152600401610509906131e0565b6105aa838383611dc7565b60006105eb836118d4565b821061064d5760405162461bcd60e51b815260206004820152602b60248201527f455243373231456e756d657261626c653a206f776e657220696e646578206f7560448201526a74206f6620626f756e647360a81b6064820152608401610509565b506001600160a01b03919091166000908152600660209081526040808320938352929052205490565b6105aa83838360405180602001604052806000815250611a07565b61069a816107e4565b6001600160a01b0316336001600160a01b0316146106fa5760405162461bcd60e51b815260206004820152601f60248201527f53686f65426f784e46543a204f6e6c79206f776e65722063616e206275726e006044820152606401610509565b61070381611f6e565b6000908152600f602052604081208181556001810180546001600160a01b0319169055600281018290556003810191909155600401805461ffff19169055565b600061074e60085490565b82106107b15760405162461bcd60e51b815260206004820152602c60248201527f455243373231456e756d657261626c653a20676c6f62616c20696e646578206f60448201526b7574206f6620626f756e647360a01b6064820152608401610509565b600882815481106107d257634e487b7160e01b600052603260045260246000fd5b90600052602060002001549050919050565b6000818152600260205260408120546001600160a01b0316806103d35760405162461bcd60e51b8152602060048201526018602482015277115490cdcc8c4e881a5b9d985b1a59081d1bdad95b88125160421b6044820152606401610509565b828414156108a45760405162461bcd60e51b815260206004820152602760248201527f53686f65426f784e46543a2063616e6e6f74206d696e7420322073616d6520736044820152666e65616b65727360c81b6064820152608401610509565b8082141561090b5760405162461bcd60e51b815260206004820152602e60248201527f53686f65426f784e46543a2063616e6e6f74206d696e7420322073616d65206d60448201526d696e74696e67207363726f6c6c7360901b6064820152608401610509565b600c5460405163f60372c560e01b81526004810186905233916001600160a01b03169063f60372c59060240160206040518083038186803b15801561094f57600080fd5b505afa158015610963573d6000803e3d6000fd5b505050506040513d601f19601f820116820180604052508101906109879190612d35565b6001600160a01b0316148015610a1f5750600c5460405163f60372c560e01b81526004810185905233916001600160a01b03169063f60372c59060240160206040518083038186803b1580156109dc57600080fd5b505afa1580156109f0573d6000803e3d6000fd5b505050506040513d601f19601f82011682018060405250810190610a149190612d35565b6001600160a01b0316145b610a835760405162461bcd60e51b815260206004820152602f60248201527f53686f65426f784e46543a204f6e6c7920736e65616b6572206f776e6572206360448201526e0c2dc40dad2dce840a6d0deca84def608b1b6064820152608401610509565b600d54604051638791fc8360e01b81526004810184905233916001600160a01b031690638791fc839060240160206040518083038186803b158015610ac757600080fd5b505afa158015610adb573d6000803e3d6000fd5b505050506040513d601f19601f82011682018060405250810190610aff9190612d35565b6001600160a01b0316148015610b975750600d54604051638791fc8360e01b81526004810183905233916001600160a01b031690638791fc839060240160206040518083038186803b158015610b5457600080fd5b505afa158015610b68573d6000803e3d6000fd5b505050506040513d601f19601f82011682018060405250810190610b8c9190612d35565b6001600160a01b0316145b610c095760405162461bcd60e51b815260206004820152603860248201527f53686f65426f784e46543a204f6e6c79206d696e74696e67207363726f6c6c2060448201527f6f776e65722063616e206d696e742053686f65426f782e2e00000000000000006064820152608401610509565b600d5460405163bbe0e21760e01b8152600481018490526000916001600160a01b03169063bbe0e2179060240160206040518083038186803b158015610c4e57600080fd5b505afa158015610c62573d6000803e3d6000fd5b505050506040513d601f19601f82011682018060405250810190610c869190612f19565b600d5460405163bbe0e21760e01b8152600481018590529192506000916001600160a01b039091169063bbe0e2179060240160206040518083038186803b158015610cd057600080fd5b505afa158015610ce4573d6000803e3d6000fd5b505050506040513d601f19601f82011682018060405250810190610d089190612f19565b600c546040516341be2eb960e11b8152600481018990529192506000916001600160a01b039091169063837c5d7290602401604080518083038186803b158015610d5157600080fd5b505afa158015610d65573d6000803e3d6000fd5b505050506040513d601f19601f82011682018060405250810190610d899190612f62565b600c546040516341be2eb960e11b8152600481018990529192506000916001600160a01b039091169063837c5d7290602401604080518083038186803b158015610dd257600080fd5b505afa158015610de6573d6000803e3d6000fd5b505050506040513d601f19601f82011682018060405250810190610e0a9190612f62565b82519091506004811115610e2e57634e487b7160e01b600052602160045260246000fd5b846004811115610e4e57634e487b7160e01b600052602160045260246000fd5b1480610e98575080516004811115610e7657634e487b7160e01b600052602160045260246000fd5b846004811115610e9657634e487b7160e01b600052602160045260246000fd5b145b8015610f2a575081516004811115610ec057634e487b7160e01b600052602160045260246000fd5b836004811115610ee057634e487b7160e01b600052602160045260246000fd5b1480610f2a575080516004811115610f0857634e487b7160e01b600052602160045260246000fd5b836004811115610f2857634e487b7160e01b600052602160045260246000fd5b145b610fab5760405162461bcd60e51b815260206004820152604660248201527f53686f65426f784e46543a2032206d696e74696e67207363726f6c6c7320686160448201527f766520646966666572656e74207175616c69747920776974682074686520736e60648201526565616b65727360d01b608482015260a401610509565b60006110ca6010600085600001516004811115610fd857634e487b7160e01b600052602160045260246000fd5b6004811115610ff757634e487b7160e01b600052602160045260246000fd5b815260200190815260200160002060008460000151600481111561102b57634e487b7160e01b600052602160045260246000fd5b600481111561104a57634e487b7160e01b600052602160045260246000fd5b81526020019081526020016000208054806020026020016040519081016040528092919081815260200182805480156110c057602002820191906000526020600020906000905b825461010083900a900460ff168152602060019283018181049485019490930390920291018084116110915790505b5050505050612016565b905060006111eb60126000866020015160038111156110f957634e487b7160e01b600052602160045260246000fd5b600381111561111857634e487b7160e01b600052602160045260246000fd5b815260200190815260200160002060008660200151600381111561114c57634e487b7160e01b600052602160045260246000fd5b600381111561116b57634e487b7160e01b600052602160045260246000fd5b81526020019081526020016000208054806020026020016040519081016040528092919081815260200182805480156111e157602002820191906000526020600020906000905b825461010083900a900460ff168152602060019283018181049485019490930390920291018084116111b25790505b50505050506122e4565b905060006040518060c00160405280600e5481526020016112093390565b6001600160a01b031681526020018c81526020018b815260200184600481111561124357634e487b7160e01b600052602160045260246000fd5b815260200183600381111561126857634e487b7160e01b600052602160045260246000fd5b9052905061127833600e546124d3565b600e546000908152600f60209081526040918290208351815590830151600180830180546001600160a01b0319166001600160a01b0390931692909217909155918301516002820155606083015160038201556080830151600480830180548695919260ff199091169190849081111561130257634e487b7160e01b600052602160045260246000fd5b021790555060a082015160048201805461ff00191661010083600381111561133a57634e487b7160e01b600052602160045260246000fd5b021790555050600c5460405163621f93df60e11b8152600481018e90526001600160a01b03909116915063c43f27be90602401600060405180830381600087803b15801561138757600080fd5b505af115801561139b573d6000803e3d6000fd5b5050600c5460405163621f93df60e11b8152600481018e90526001600160a01b03909116925063c43f27be9150602401600060405180830381600087803b1580156113e557600080fd5b505af11580156113f9573d6000803e3d6000fd5b5050600d546040516340069d8960e11b8152600481018d90526001600160a01b03909116925063800d3b129150602401600060405180830381600087803b15801561144357600080fd5b505af1158015611457573d6000803e3d6000fd5b5050600d546040516340069d8960e11b8152600481018c90526001600160a01b03909116925063800d3b129150602401600060405180830381600087803b1580156114a157600080fd5b505af11580156114b5573d6000803e3d6000fd5b505050506114c03390565b6001600160a01b03167faf08a989739a575839f92184623ab7be337fe4d296fb15c2b2ff66cef84f193d600e54856040516114fc92919061328a565b60405180910390a2600e805490600061151483613398565b91905055505050505050505050505050565b61152f816107e4565b6001600160a01b0316336001600160a01b03161461158f5760405162461bcd60e51b815260206004820152601f60248201527f53686f65426f784e46543a204f6e6c79206f776e65722063616e206f70656e006044820152606401610509565b6000818152600f60209081526040808320815160c0810183528154815260018201546001600160a01b03169381019390935260028101549183019190915260038101546060830152600480820154608084019160ff9091169081111561160557634e487b7160e01b600052602160045260246000fd5b600481111561162457634e487b7160e01b600052602160045260246000fd5b81526020016004820160019054906101000a900460ff16600381111561165a57634e487b7160e01b600052602160045260246000fd5b600381111561167957634e487b7160e01b600052602160045260246000fd5b90525060408051600280825260608201835292935060009290916020830190803683370190505090508160400151816000815181106116c857634e487b7160e01b600052603260045260246000fd5b6020026020010181815250508160600151816001815181106116fa57634e487b7160e01b600052603260045260246000fd5b6020908102919091010152600c54608083015160a0840151604051626c424960e71b81526001600160a01b039093169263362124809261174092339287906004016130c4565b600060405180830381600087803b15801561175a57600080fd5b505af115801561176e573d6000803e3d6000fd5b5050505061177b83611f6e565b50506000908152600f602052604081208181556001810180546001600160a01b0319169055600281018290556003810191909155600401805461ffff19169055565b6060601060008460048111156117e357634e487b7160e01b600052602160045260246000fd5b600481111561180257634e487b7160e01b600052602160045260246000fd5b8152602001908152602001600020600083600481111561183257634e487b7160e01b600052602160045260246000fd5b600481111561185157634e487b7160e01b600052602160045260246000fd5b81526020019081526020016000208054806020026020016040519081016040528092919081815260200182805480156118c757602002820191906000526020600020906000905b825461010083900a900460ff168152602060019283018181049485019490930390920291018084116118985790505b5050505050905092915050565b60006001600160a01b03821661193e5760405162461bcd60e51b815260206004820152602960248201527f4552433732313a2061646472657373207a65726f206973206e6f7420612076616044820152683634b21037bbb732b960b91b6064820152608401610509565b506001600160a01b031660009081526003602052604090205490565b6119626124ed565b61196c6000612547565b565b6060600180546103ea90613363565b611988338383612599565b5050565b6000818152600f6020526040902060010180546001600160a01b0319166001600160a01b0384161790556119c18383836105af565b80826001600160a01b0316846001600160a01b03167fdbf34f9e87323ab06872865d533fd0630e8191cf07e64bda04159722d5871c1360405160405180910390a4505050565b611a113383611d48565b611a2d5760405162461bcd60e51b8152600401610509906131e0565b611a3984848484612668565b50505050565b6060611a4a82611c7b565b6000611a6160408051602081019091526000815290565b90506000815111611a815760405180602001604052806000815250611aac565b80611a8b8461269b565b604051602001611a9c929190613058565b6040516020818303038152906040525b9392505050565b611abb612cbc565b6000828152600f6020908152604091829020825160c0810184528154815260018201546001600160a01b03169281019290925260028101549282019290925260038201546060820152600480830154919291608084019160ff90911690811115611b3557634e487b7160e01b600052602160045260246000fd5b6004811115611b5457634e487b7160e01b600052602160045260246000fd5b81526020016004820160019054906101000a900460ff166003811115611b8a57634e487b7160e01b600052602160045260246000fd5b6003811115611ba957634e487b7160e01b600052602160045260246000fd5b90525092915050565b611bba6124ed565b6001600160a01b038116611c1f5760405162461bcd60e51b815260206004820152602660248201527f4f776e61626c653a206e6577206f776e657220697320746865207a65726f206160448201526564647265737360d01b6064820152608401610509565b611c2881612547565b50565b60006001600160e01b031982166380ac58cd60e01b1480611c5c57506001600160e01b03198216635b5e139f60e01b145b806103d357506301ffc9a760e01b6001600160e01b03198316146103d3565b6000818152600260205260409020546001600160a01b0316611c285760405162461bcd60e51b8152602060048201526018602482015277115490cdcc8c4e881a5b9d985b1a59081d1bdad95b88125160421b6044820152606401610509565b600081815260046020526040902080546001600160a01b0319166001600160a01b0384169081179091558190611d0f826107e4565b6001600160a01b03167f8c5be1e5ebec7d5bd14f71427d1e84f3dd0314c0f7b2291e5b200ac8c7c3b92560405160405180910390a45050565b600080611d54836107e4565b9050806001600160a01b0316846001600160a01b03161480611d9b57506001600160a01b0380821660009081526005602090815260408083209388168352929052205460ff165b80611dbf5750836001600160a01b0316611db48461046d565b6001600160a01b0316145b949350505050565b826001600160a01b0316611dda826107e4565b6001600160a01b031614611e3e5760405162461bcd60e51b815260206004820152602560248201527f4552433732313a207472616e736665722066726f6d20696e636f72726563742060448201526437bbb732b960d91b6064820152608401610509565b6001600160a01b038216611ea05760405162461bcd60e51b8152602060048201526024808201527f4552433732313a207472616e7366657220746f20746865207a65726f206164646044820152637265737360e01b6064820152608401610509565b611eab8383836127b6565b611eb6600082611cda565b6001600160a01b0383166000908152600360205260408120805460019290611edf908490613320565b90915550506001600160a01b0382166000908152600360205260408120805460019290611f0d9084906132cf565b909155505060008181526002602052604080822080546001600160a01b0319166001600160a01b0386811691821790925591518493918716917fddf252ad1be2c89b69c2b068fc378daa952ba7f163c4a11628f55a4df523b3ef91a46105aa565b6000611f79826107e4565b9050611f87816000846127b6565b611f92600083611cda565b6001600160a01b0381166000908152600360205260408120805460019290611fbb908490613320565b909155505060008281526002602052604080822080546001600160a01b0319169055518391906001600160a01b038416907fddf252ad1be2c89b69c2b068fc378daa952ba7f163c4a11628f55a4df523b3ef908390a4611988565b600b5460405163dba2586160e01b8152600060048201819052606460248301529182916001600160a01b039091169063dba2586190604401602060405180830381600087803b15801561206857600080fd5b505af115801561207c573d6000803e3d6000fd5b505050506040513d601f19601f820116820180604052508101906120a09190612fbf565b9050826000815181106120c357634e487b7160e01b600052603260045260246000fd5b602002602001015160ff168160ff1610156120e25760009150506103d6565b8260018151811061210357634e487b7160e01b600052603260045260246000fd5b60200260200101518360008151811061212c57634e487b7160e01b600052603260045260246000fd5b602002602001015161213e91906132e7565b60ff168160ff1610156121555760019150506103d6565b8260028151811061217657634e487b7160e01b600052603260045260246000fd5b60200260200101518360018151811061219f57634e487b7160e01b600052603260045260246000fd5b6020026020010151846000815181106121c857634e487b7160e01b600052603260045260246000fd5b60200260200101516121da91906132e7565b6121e491906132e7565b60ff168160ff1610156121fb5760029150506103d6565b8260038151811061221c57634e487b7160e01b600052603260045260246000fd5b60200260200101518360028151811061224557634e487b7160e01b600052603260045260246000fd5b60200260200101518460018151811061226e57634e487b7160e01b600052603260045260246000fd5b60200260200101518560008151811061229757634e487b7160e01b600052603260045260246000fd5b60200260200101516122a991906132e7565b6122b391906132e7565b6122bd91906132e7565b60ff168160ff1610156122d45760039150506103d6565b60049150506103d6565b50919050565b600b5460405163dba2586160e01b8152600060048201819052606460248301529182916001600160a01b039091169063dba2586190604401602060405180830381600087803b15801561233657600080fd5b505af115801561234a573d6000803e3d6000fd5b505050506040513d601f19601f8201168201806040525081019061236e9190612fbf565b90508260008151811061239157634e487b7160e01b600052603260045260246000fd5b602002602001015160ff168160ff1610156123b05760009150506103d6565b826001815181106123d157634e487b7160e01b600052603260045260246000fd5b6020026020010151836000815181106123fa57634e487b7160e01b600052603260045260246000fd5b602002602001015161240c91906132e7565b60ff168160ff1610156124235760019150506103d6565b8260028151811061244457634e487b7160e01b600052603260045260246000fd5b60200260200101518360018151811061246d57634e487b7160e01b600052603260045260246000fd5b60200260200101518460008151811061249657634e487b7160e01b600052603260045260246000fd5b60200260200101516124a891906132e7565b6124b291906132e7565b60ff168160ff1610156124c95760029150506103d6565b60039150506103d6565b611988828260405180602001604052806000815250612873565b600a546001600160a01b0316331461196c5760405162461bcd60e51b815260206004820181905260248201527f4f776e61626c653a2063616c6c6572206973206e6f7420746865206f776e65726044820152606401610509565b600a80546001600160a01b038381166001600160a01b0319831681179093556040519116919082907f8be0079c531659141344cd1fd0a4f28419497f9722a3daafe3b4186f6b6457e090600090a35050565b816001600160a01b0316836001600160a01b031614156125fb5760405162461bcd60e51b815260206004820152601960248201527f4552433732313a20617070726f766520746f2063616c6c6572000000000000006044820152606401610509565b6001600160a01b03838116600081815260056020908152604080832094871680845294825291829020805460ff191686151590811790915591519182527f17307eab39ab6107e8899845ad3d59bd9653f200f220920489ca2b5937696c31910160405180910390a3505050565b612673848484611dc7565b61267f848484846128a6565b611a395760405162461bcd60e51b81526004016105099061318e565b6060816126c057506040805180820190915260018152600360fc1b60208201526103d6565b8160005b81156126ea57806126d481613398565b91506126e39050600a8361330c565b91506126c4565b60008167ffffffffffffffff81111561271357634e487b7160e01b600052604160045260246000fd5b6040519080825280601f01601f19166020018201604052801561273d576020820181803683370190505b5090505b8415611dbf57612752600183613320565b915061275f600a866133b3565b61276a9060306132cf565b60f81b81838151811061278d57634e487b7160e01b600052603260045260246000fd5b60200101906001600160f81b031916908160001a9053506127af600a8661330c565b9450612741565b6001600160a01b0383166128115761280c81600880546000838152600960205260408120829055600182018355919091527ff3f7a9fe364faab93b216da50a3214154f22a0a2b415b23a84c8169e8b636ee30155565b612834565b816001600160a01b0316836001600160a01b0316146128345761283483826129b3565b6001600160a01b0382166128505761284b81612a50565b6105aa565b826001600160a01b0316826001600160a01b0316146105aa576105aa8282612b29565b61287d8383612b6d565b61288a60008484846128a6565b6105aa5760405162461bcd60e51b81526004016105099061318e565b60006001600160a01b0384163b156129a857604051630a85bd0160e11b81526001600160a01b0385169063150b7a02906128ea903390899088908890600401613087565b602060405180830381600087803b15801561290457600080fd5b505af1925050508015612934575060408051601f3d908101601f1916820190925261293191810190612efd565b60015b61298e573d808015612962576040519150601f19603f3d011682016040523d82523d6000602084013e612967565b606091505b5080516129865760405162461bcd60e51b81526004016105099061318e565b805181602001fd5b6001600160e01b031916630a85bd0160e11b149050611dbf565b506001949350505050565b600060016129c0846118d4565b6129ca9190613320565b600083815260076020526040902054909150808214612a1d576001600160a01b03841660009081526006602090815260408083208584528252808320548484528184208190558352600790915290208190555b5060009182526007602090815260408084208490556001600160a01b039094168352600681528383209183525290812055565b600854600090612a6290600190613320565b60008381526009602052604081205460088054939450909284908110612a9857634e487b7160e01b600052603260045260246000fd5b906000526020600020015490508060088381548110612ac757634e487b7160e01b600052603260045260246000fd5b6000918252602080832090910192909255828152600990915260408082208490558582528120556008805480612b0d57634e487b7160e01b600052603160045260246000fd5b6001900381819060005260206000200160009055905550505050565b6000612b34836118d4565b6001600160a01b039093166000908152600660209081526040808320868452825280832085905593825260079052919091209190915550565b6001600160a01b038216612bc35760405162461bcd60e51b815260206004820181905260248201527f4552433732313a206d696e7420746f20746865207a65726f20616464726573736044820152606401610509565b6000818152600260205260409020546001600160a01b031615612c285760405162461bcd60e51b815260206004820152601c60248201527f4552433732313a20746f6b656e20616c7265616479206d696e746564000000006044820152606401610509565b612c34600083836127b6565b6001600160a01b0382166000908152600360205260408120805460019290612c5d9084906132cf565b909155505060008181526002602052604080822080546001600160a01b0319166001600160a01b03861690811790915590518392907fddf252ad1be2c89b69c2b068fc378daa952ba7f163c4a11628f55a4df523b3ef908290a4611988565b6040518060c001604052806000815260200160006001600160a01b03168152602001600081526020016000815260200160006004811115612d0d57634e487b7160e01b600052602160045260246000fd5b81526020016000905290565b600060208284031215612d2a578081fd5b8135611aac8161341f565b600060208284031215612d46578081fd5b8151611aac8161341f565b60008060408385031215612d63578081fd5b8235612d6e8161341f565b91506020830135612d7e8161341f565b809150509250929050565b600080600060608486031215612d9d578081fd5b8335612da88161341f565b92506020840135612db88161341f565b929592945050506040919091013590565b60008060008060808587031215612dde578081fd5b8435612de98161341f565b9350602085810135612dfa8161341f565b935060408601359250606086013567ffffffffffffffff80821115612e1d578384fd5b818801915088601f830112612e30578384fd5b813581811115612e4257612e42613409565b612e54601f8201601f1916850161329e565b91508082528984828501011115612e69578485fd5b8084840185840137810190920192909252939692955090935050565b60008060408385031215612e97578182fd5b8235612ea28161341f565b915060208301358015158114612d7e578182fd5b60008060408385031215612ec8578182fd5b8235612ed38161341f565b946020939093013593505050565b600060208284031215612ef2578081fd5b8135611aac81613434565b600060208284031215612f0e578081fd5b8151611aac81613434565b600060208284031215612f2a578081fd5b8151611aac8161344a565b60008060408385031215612f47578182fd5b8235612f528161344a565b91506020830135612d7e8161344a565b600060408284031215612f73578081fd5b612f7d604061329e565b8251612f888161344a565b8152602083015160048110612f9b578283fd5b60208201529392505050565b600060208284031215612fb8578081fd5b5035919050565b600060208284031215612fd0578081fd5b5051919050565b60008060008060808587031215612fec578182fd5b5050823594602084013594506040840135936060013592509050565b60008151808452613020816020860160208601613337565b601f01601f19169290920160200192915050565b60058110613044576130446133f3565b9052565b60048110613044576130446133f3565b6000835161306a818460208801613337565b83519083019061307e818360208801613337565b01949350505050565b6001600160a01b03858116825284166020820152604081018390526080606082018190526000906130ba90830184613008565b9695505050505050565b6001600160a01b038516815260006080820160206130e481850188613034565b6130f16040850187613048565b608060608501528451918290528085019160a0850190845b8181101561312557845183529383019391830191600101613109565b50909998505050505050505050565b6020808252825182820181905260009190848201906040850190845b8181101561316f57835160ff1683529284019291840191600101613150565b50909695505050505050565b600060208252611aac6020830184613008565b60208082526032908201527f4552433732313a207472616e7366657220746f206e6f6e20455243373231526560408201527131b2b4bb32b91034b6b83632b6b2b73a32b960711b606082015260800190565b6020808252602e908201527f4552433732313a2063616c6c6572206973206e6f7420746f6b656e206f776e6560408201526d1c881b9bdc88185c1c1c9bdd995960921b606082015260800190565b815181526020808301516001600160a01b031690820152604080830151908201526060808301519082015260808083015160c083019161327090840182613034565b5060a083015161328360a0840182613048565b5092915050565b82815260408101611aac6020830184613034565b604051601f8201601f1916810167ffffffffffffffff811182821017156132c7576132c7613409565b604052919050565b600082198211156132e2576132e26133c7565b500190565b600060ff821660ff84168060ff03821115613304576133046133c7565b019392505050565b60008261331b5761331b6133dd565b500490565b600082821015613332576133326133c7565b500390565b60005b8381101561335257818101518382015260200161333a565b83811115611a395750506000910152565b60028104600182168061337757607f821691505b602082108114156122de57634e487b7160e01b600052602260045260246000fd5b60006000198214156133ac576133ac6133c7565b5060010190565b6000826133c2576133c26133dd565b500690565b634e487b7160e01b600052601160045260246000fd5b634e487b7160e01b600052601260045260246000fd5b634e487b7160e01b600052602160045260246000fd5b634e487b7160e01b600052604160045260246000fd5b6001600160a01b0381168114611c2857600080fd5b6001600160e01b031981168114611c2857600080fd5b60058110611c2857600080fdfea2646970667358221220c84d9d0b6f94c30d884445e20bd9c1bcb9ac8aa4b497c26c14222072917713f364736f6c634300080200338c6065603763fec3f5742441d3833f3f43b982453612d76adb39a885e3006b5f71a67924699a20698523213e55fe499d539379d7769cd5567e2c45d583f815a37e7fa33969761a458e04f477e039a608702b4f924981d6653935a8319a08ad7bb3edd0d534d647cffdae9f1294f11ad21f3fcf2814bea44c92bbb8d384a57d9e6e0956cda88cad152e89927e53611735b61a5c762d1428573c6931b0a5efcb01853b2fefe141400fef543280f93d98bd49996069f632d0d20236afeeed8e46a28e1fee8c88a9e04123b21e90cae2727a7715bf522a1e46eb5934ccd05203a6b2",
  "linkReferences": {},
  "deployedLinkReferences": {}
}