{
  "_format": "hh-sol-artifact-1",
  "contractName": "SneakerNFT",
  "sourceName": "contracts/SneakerNFT.sol",
  "abi": [
    {
      "inputs": [
        {
          "internalType": "address",
          "name": "_iRandom",
          "type": "address"
        }
      ],
      "stateMutability": "nonpayable",
      "type": "constructor"
    },
    {
      "anonymous": false,
      "inputs": [
        {
          "indexed": true,
          "internalType": "address",
          "name": "owner",
          "type": "address"
        },
        {
          "indexed": true,
          "internalType": "address",
          "name": "approved",
          "type": "address"
        },
        {
          "indexed": true,
          "internalType": "uint256",
          "name": "tokenId",
          "type": "uint256"
        }
      ],
      "name": "Approval",
      "type": "event"
    },
    {
      "anonymous": false,
      "inputs": [
        {
          "indexed": true,
          "internalType": "address",
          "name": "owner",
          "type": "address"
        },
        {
          "indexed": true,
          "internalType": "address",
          "name": "operator",
          "type": "address"
        },
        {
          "indexed": false,
          "internalType": "bool",
          "name": "approved",
          "type": "bool"
        }
      ],
      "name": "ApprovalForAll",
      "type": "event"
    },
    {
      "anonymous": false,
      "inputs": [
        {
          "indexed": false,
          "internalType": "uint256",
          "name": "tokenId",
          "type": "uint256"
        },
        {
          "indexed": false,
          "internalType": "address",
          "name": "_owner",
          "type": "address"
        },
        {
          "indexed": false,
          "internalType": "uint256",
          "name": "time",
          "type": "uint256"
        }
      ],
      "name": "BurnSneaker",
      "type": "event"
    },
    {
      "anonymous": false,
      "inputs": [
        {
          "indexed": false,
          "internalType": "uint8",
          "name": "_minSpeed",
          "type": "uint8"
        },
        {
          "indexed": false,
          "internalType": "uint8",
          "name": "_maxSpeed",
          "type": "uint8"
        }
      ],
      "name": "GenerateSpeed",
      "type": "event"
    },
    {
      "anonymous": false,
      "inputs": [
        {
          "indexed": false,
          "internalType": "uint16",
          "name": "efficiency",
          "type": "uint16"
        },
        {
          "indexed": false,
          "internalType": "uint16",
          "name": "luck",
          "type": "uint16"
        },
        {
          "indexed": false,
          "internalType": "uint16",
          "name": "comfort",
          "type": "uint16"
        },
        {
          "indexed": false,
          "internalType": "uint16",
          "name": "resilience",
          "type": "uint16"
        }
      ],
      "name": "GenerateStats",
      "type": "event"
    },
    {
      "anonymous": false,
      "inputs": [
        {
          "indexed": false,
          "internalType": "uint256",
          "name": "tokenId",
          "type": "uint256"
        },
        {
          "indexed": false,
          "internalType": "address",
          "name": "_owner",
          "type": "address"
        },
        {
          "indexed": false,
          "internalType": "uint8",
          "name": "level",
          "type": "uint8"
        }
      ],
      "name": "Leveling",
      "type": "event"
    },
    {
      "anonymous": false,
      "inputs": [
        {
          "indexed": false,
          "internalType": "uint256",
          "name": "tokenId",
          "type": "uint256"
        },
        {
          "indexed": false,
          "internalType": "address",
          "name": "_owner",
          "type": "address"
        },
        {
          "components": [
            {
              "internalType": "uint256",
              "name": "id",
              "type": "uint256"
            },
            {
              "internalType": "uint16",
              "name": "durability",
              "type": "uint16"
            },
            {
              "internalType": "uint16",
              "name": "hp",
              "type": "uint16"
            },
            {
              "internalType": "uint8[2]",
              "name": "speed",
              "type": "uint8[2]"
            },
            {
              "components": [
                {
                  "internalType": "uint256",
                  "name": "efficiency",
                  "type": "uint256"
                },
                {
                  "internalType": "uint256",
                  "name": "luck",
                  "type": "uint256"
                },
                {
                  "internalType": "uint256",
                  "name": "comfort",
                  "type": "uint256"
                },
                {
                  "internalType": "uint256",
                  "name": "resilience",
                  "type": "uint256"
                }
              ],
              "internalType": "struct SneakerNFT.SneakerAttributes",
              "name": "attributes",
              "type": "tuple"
            },
            {
              "internalType": "address",
              "name": "owner",
              "type": "address"
            },
            {
              "internalType": "uint8",
              "name": "level",
              "type": "uint8"
            },
            {
              "internalType": "enum Constants.Quality",
              "name": "quality",
              "type": "uint8"
            },
            {
              "internalType": "enum Constants.SneakerType",
              "name": "sneakerType",
              "type": "uint8"
            },
            {
              "internalType": "uint8",
              "name": "mintCount",
              "type": "uint8"
            },
            {
              "internalType": "uint256[]",
              "name": "mintFrom",
              "type": "uint256[]"
            },
            {
              "internalType": "bool",
              "name": "isEarningGMT",
              "type": "bool"
            },
            {
              "internalType": "uint256",
              "name": "coolingTime",
              "type": "uint256"
            },
            {
              "internalType": "uint256[]",
              "name": "sockets",
              "type": "uint256[]"
            }
          ],
          "indexed": false,
          "internalType": "struct SneakerNFT.Sneaker",
          "name": "sneaker",
          "type": "tuple"
        }
      ],
      "name": "MintSneaker",
      "type": "event"
    },
    {
      "anonymous": false,
      "inputs": [
        {
          "indexed": true,
          "internalType": "address",
          "name": "previousOwner",
          "type": "address"
        },
        {
          "indexed": true,
          "internalType": "address",
          "name": "newOwner",
          "type": "address"
        }
      ],
      "name": "OwnershipTransferred",
      "type": "event"
    },
    {
      "anonymous": false,
      "inputs": [
        {
          "indexed": false,
          "internalType": "address",
          "name": "_owner",
          "type": "address"
        },
        {
          "indexed": false,
          "internalType": "uint256",
          "name": "tokenId",
          "type": "uint256"
        },
        {
          "indexed": false,
          "internalType": "uint256",
          "name": "cost",
          "type": "uint256"
        }
      ],
      "name": "RepairSneaker",
      "type": "event"
    },
    {
      "anonymous": false,
      "inputs": [
        {
          "indexed": false,
          "internalType": "uint256",
          "name": "tokenId",
          "type": "uint256"
        },
        {
          "indexed": false,
          "internalType": "uint8",
          "name": "durabilityDecay",
          "type": "uint8"
        },
        {
          "indexed": false,
          "internalType": "uint8",
          "name": "hpDecay",
          "type": "uint8"
        }
      ],
      "name": "SneakerDecay",
      "type": "event"
    },
    {
      "anonymous": false,
      "inputs": [
        {
          "indexed": true,
          "internalType": "address",
          "name": "from",
          "type": "address"
        },
        {
          "indexed": true,
          "internalType": "address",
          "name": "to",
          "type": "address"
        },
        {
          "indexed": true,
          "internalType": "uint256",
          "name": "tokenId",
          "type": "uint256"
        }
      ],
      "name": "Transfer",
      "type": "event"
    },
    {
      "anonymous": false,
      "inputs": [
        {
          "indexed": false,
          "internalType": "address",
          "name": "_from",
          "type": "address"
        },
        {
          "indexed": false,
          "internalType": "address",
          "name": "_to",
          "type": "address"
        },
        {
          "indexed": false,
          "internalType": "uint256",
          "name": "tokenId",
          "type": "uint256"
        }
      ],
      "name": "TransferSneaker",
      "type": "event"
    },
    {
      "inputs": [
        {
          "internalType": "enum Constants.Quality",
          "name": "_quality",
          "type": "uint8"
        }
      ],
      "name": "_getExtraAttributeFromQuality",
      "outputs": [
        {
          "internalType": "uint8",
          "name": "_extraAttribute",
          "type": "uint8"
        }
      ],
      "stateMutability": "pure",
      "type": "function"
    },
    {
      "inputs": [
        {
          "internalType": "address",
          "name": "to",
          "type": "address"
        },
        {
          "internalType": "uint256",
          "name": "tokenId",
          "type": "uint256"
        }
      ],
      "name": "approve",
      "outputs": [],
      "stateMutability": "nonpayable",
      "type": "function"
    },
    {
      "inputs": [
        {
          "internalType": "address",
          "name": "owner",
          "type": "address"
        }
      ],
      "name": "balanceOf",
      "outputs": [
        {
          "internalType": "uint256",
          "name": "",
          "type": "uint256"
        }
      ],
      "stateMutability": "view",
      "type": "function"
    },
    {
      "inputs": [
        {
          "internalType": "uint256",
          "name": "_tokenId",
          "type": "uint256"
        }
      ],
      "name": "burnSneaker",
      "outputs": [],
      "stateMutability": "nonpayable",
      "type": "function"
    },
    {
      "inputs": [
        {
          "internalType": "uint256",
          "name": "_tokenId",
          "type": "uint256"
        },
        {
          "internalType": "uint8",
          "name": "_durabilityDecay",
          "type": "uint8"
        },
        {
          "internalType": "uint8",
          "name": "hpDecay",
          "type": "uint8"
        }
      ],
      "name": "decaySneaker",
      "outputs": [],
      "stateMutability": "nonpayable",
      "type": "function"
    },
    {
      "inputs": [
        {
          "internalType": "uint256",
          "name": "_tokenId",
          "type": "uint256"
        },
        {
          "internalType": "uint256",
          "name": "_gemId",
          "type": "uint256"
        },
        {
          "internalType": "uint8",
          "name": "_socketSlot",
          "type": "uint8"
        }
      ],
      "name": "equipGem",
      "outputs": [],
      "stateMutability": "nonpayable",
      "type": "function"
    },
    {
      "inputs": [
        {
          "internalType": "uint256",
          "name": "tokenId",
          "type": "uint256"
        }
      ],
      "name": "getApproved",
      "outputs": [
        {
          "internalType": "address",
          "name": "",
          "type": "address"
        }
      ],
      "stateMutability": "view",
      "type": "function"
    },
    {
      "inputs": [
        {
          "internalType": "uint256",
          "name": "_tokenId",
          "type": "uint256"
        }
      ],
      "name": "getAttributesOfSneaker",
      "outputs": [
        {
          "components": [
            {
              "internalType": "uint256",
              "name": "efficiency",
              "type": "uint256"
            },
            {
              "internalType": "uint256",
              "name": "luck",
              "type": "uint256"
            },
            {
              "internalType": "uint256",
              "name": "comfort",
              "type": "uint256"
            },
            {
              "internalType": "uint256",
              "name": "resilience",
              "type": "uint256"
            }
          ],
          "internalType": "struct SneakerNFT.SneakerAttributes",
          "name": "attributes",
          "type": "tuple"
        }
      ],
      "stateMutability": "view",
      "type": "function"
    },
    {
      "inputs": [],
      "name": "getDecimal",
      "outputs": [
        {
          "internalType": "uint8",
          "name": "",
          "type": "uint8"
        }
      ],
      "stateMutability": "view",
      "type": "function"
    },
    {
      "inputs": [],
      "name": "getIdCounter",
      "outputs": [
        {
          "internalType": "uint256",
          "name": "",
          "type": "uint256"
        }
      ],
      "stateMutability": "view",
      "type": "function"
    },
    {
      "inputs": [
        {
          "internalType": "uint256",
          "name": "_tokenId",
          "type": "uint256"
        }
      ],
      "name": "getOwnerOfSneaker",
      "outputs": [
        {
          "internalType": "address",
          "name": "owner",
          "type": "address"
        }
      ],
      "stateMutability": "view",
      "type": "function"
    },
    {
      "inputs": [
        {
          "internalType": "uint256",
          "name": "_tokenId",
          "type": "uint256"
        }
      ],
      "name": "getQualityNType",
      "outputs": [
        {
          "components": [
            {
              "internalType": "enum Constants.Quality",
              "name": "quality",
              "type": "uint8"
            },
            {
              "internalType": "enum Constants.SneakerType",
              "name": "sneakerType",
              "type": "uint8"
            }
          ],
          "internalType": "struct SneakerNFT.QualityNType",
          "name": "result",
          "type": "tuple"
        }
      ],
      "stateMutability": "view",
      "type": "function"
    },
    {
      "inputs": [
        {
          "internalType": "uint256",
          "name": "_tokenId",
          "type": "uint256"
        }
      ],
      "name": "getSneaker",
      "outputs": [
        {
          "components": [
            {
              "internalType": "uint256",
              "name": "id",
              "type": "uint256"
            },
            {
              "internalType": "uint16",
              "name": "durability",
              "type": "uint16"
            },
            {
              "internalType": "uint16",
              "name": "hp",
              "type": "uint16"
            },
            {
              "internalType": "uint8[2]",
              "name": "speed",
              "type": "uint8[2]"
            },
            {
              "components": [
                {
                  "internalType": "uint256",
                  "name": "efficiency",
                  "type": "uint256"
                },
                {
                  "internalType": "uint256",
                  "name": "luck",
                  "type": "uint256"
                },
                {
                  "internalType": "uint256",
                  "name": "comfort",
                  "type": "uint256"
                },
                {
                  "internalType": "uint256",
                  "name": "resilience",
                  "type": "uint256"
                }
              ],
              "internalType": "struct SneakerNFT.SneakerAttributes",
              "name": "attributes",
              "type": "tuple"
            },
            {
              "internalType": "address",
              "name": "owner",
              "type": "address"
            },
            {
              "internalType": "uint8",
              "name": "level",
              "type": "uint8"
            },
            {
              "internalType": "enum Constants.Quality",
              "name": "quality",
              "type": "uint8"
            },
            {
              "internalType": "enum Constants.SneakerType",
              "name": "sneakerType",
              "type": "uint8"
            },
            {
              "internalType": "uint8",
              "name": "mintCount",
              "type": "uint8"
            },
            {
              "internalType": "uint256[]",
              "name": "mintFrom",
              "type": "uint256[]"
            },
            {
              "internalType": "bool",
              "name": "isEarningGMT",
              "type": "bool"
            },
            {
              "internalType": "uint256",
              "name": "coolingTime",
              "type": "uint256"
            },
            {
              "internalType": "uint256[]",
              "name": "sockets",
              "type": "uint256[]"
            }
          ],
          "internalType": "struct SneakerNFT.Sneaker",
          "name": "sneaker",
          "type": "tuple"
        }
      ],
      "stateMutability": "view",
      "type": "function"
    },
    {
      "inputs": [
        {
          "internalType": "address",
          "name": "_gstToken",
          "type": "address"
        },
        {
          "internalType": "address",
          "name": "_gmtToken",
          "type": "address"
        },
        {
          "internalType": "address",
          "name": "_igem",
          "type": "address"
        },
        {
          "internalType": "address",
          "name": "_iShoeBox",
          "type": "address"
        },
        {
          "internalType": "address",
          "name": "_iMove2Earn",
          "type": "address"
        }
      ],
      "name": "initialize",
      "outputs": [],
      "stateMutability": "nonpayable",
      "type": "function"
    },
    {
      "inputs": [
        {
          "internalType": "address",
          "name": "owner",
          "type": "address"
        },
        {
          "internalType": "address",
          "name": "operator",
          "type": "address"
        }
      ],
      "name": "isApprovedForAll",
      "outputs": [
        {
          "internalType": "bool",
          "name": "",
          "type": "bool"
        }
      ],
      "stateMutability": "view",
      "type": "function"
    },
    {
      "inputs": [
        {
          "internalType": "uint256",
          "name": "_tokenId",
          "type": "uint256"
        }
      ],
      "name": "levelingSneaker",
      "outputs": [],
      "stateMutability": "nonpayable",
      "type": "function"
    },
    {
      "inputs": [
        {
          "internalType": "address",
          "name": "_sender",
          "type": "address"
        },
        {
          "internalType": "enum Constants.Quality",
          "name": "_quality",
          "type": "uint8"
        },
        {
          "internalType": "enum Constants.SneakerType",
          "name": "_type",
          "type": "uint8"
        },
        {
          "internalType": "uint256[]",
          "name": "mintFrom",
          "type": "uint256[]"
        }
      ],
      "name": "mint",
      "outputs": [],
      "stateMutability": "nonpayable",
      "type": "function"
    },
    {
      "inputs": [],
      "name": "name",
      "outputs": [
        {
          "internalType": "string",
          "name": "",
          "type": "string"
        }
      ],
      "stateMutability": "view",
      "type": "function"
    },
    {
      "inputs": [],
      "name": "owner",
      "outputs": [
        {
          "internalType": "address",
          "name": "",
          "type": "address"
        }
      ],
      "stateMutability": "view",
      "type": "function"
    },
    {
      "inputs": [
        {
          "internalType": "uint256",
          "name": "tokenId",
          "type": "uint256"
        }
      ],
      "name": "ownerOf",
      "outputs": [
        {
          "internalType": "address",
          "name": "",
          "type": "address"
        }
      ],
      "stateMutability": "view",
      "type": "function"
    },
    {
      "inputs": [],
      "name": "renounceOwnership",
      "outputs": [],
      "stateMutability": "nonpayable",
      "type": "function"
    },
    {
      "inputs": [
        {
          "internalType": "uint256",
          "name": "_tokenId",
          "type": "uint256"
        }
      ],
      "name": "repairSneaker",
      "outputs": [],
      "stateMutability": "nonpayable",
      "type": "function"
    },
    {
      "inputs": [
        {
          "internalType": "address",
          "name": "from",
          "type": "address"
        },
        {
          "internalType": "address",
          "name": "to",
          "type": "address"
        },
        {
          "internalType": "uint256",
          "name": "tokenId",
          "type": "uint256"
        }
      ],
      "name": "safeTransferFrom",
      "outputs": [],
      "stateMutability": "nonpayable",
      "type": "function"
    },
    {
      "inputs": [
        {
          "internalType": "address",
          "name": "from",
          "type": "address"
        },
        {
          "internalType": "address",
          "name": "to",
          "type": "address"
        },
        {
          "internalType": "uint256",
          "name": "tokenId",
          "type": "uint256"
        },
        {
          "internalType": "bytes",
          "name": "data",
          "type": "bytes"
        }
      ],
      "name": "safeTransferFrom",
      "outputs": [],
      "stateMutability": "nonpayable",
      "type": "function"
    },
    {
      "inputs": [
        {
          "internalType": "address",
          "name": "operator",
          "type": "address"
        },
        {
          "internalType": "bool",
          "name": "approved",
          "type": "bool"
        }
      ],
      "name": "setApprovalForAll",
      "outputs": [],
      "stateMutability": "nonpayable",
      "type": "function"
    },
    {
      "inputs": [
        {
          "internalType": "address",
          "name": "_iRandom",
          "type": "address"
        }
      ],
      "name": "setIRandom",
      "outputs": [],
      "stateMutability": "nonpayable",
      "type": "function"
    },
    {
      "inputs": [
        {
          "internalType": "uint256",
          "name": "_tokenId",
          "type": "uint256"
        },
        {
          "internalType": "bool",
          "name": "_isEarningGMT",
          "type": "bool"
        }
      ],
      "name": "setIsEarningGMT",
      "outputs": [],
      "stateMutability": "nonpayable",
      "type": "function"
    },
    {
      "inputs": [
        {
          "internalType": "bytes4",
          "name": "interfaceId",
          "type": "bytes4"
        }
      ],
      "name": "supportsInterface",
      "outputs": [
        {
          "internalType": "bool",
          "name": "",
          "type": "bool"
        }
      ],
      "stateMutability": "view",
      "type": "function"
    },
    {
      "inputs": [],
      "name": "symbol",
      "outputs": [
        {
          "internalType": "string",
          "name": "",
          "type": "string"
        }
      ],
      "stateMutability": "view",
      "type": "function"
    },
    {
      "inputs": [
        {
          "internalType": "uint256",
          "name": "index",
          "type": "uint256"
        }
      ],
      "name": "tokenByIndex",
      "outputs": [
        {
          "internalType": "uint256",
          "name": "",
          "type": "uint256"
        }
      ],
      "stateMutability": "view",
      "type": "function"
    },
    {
      "inputs": [
        {
          "internalType": "address",
          "name": "owner",
          "type": "address"
        },
        {
          "internalType": "uint256",
          "name": "index",
          "type": "uint256"
        }
      ],
      "name": "tokenOfOwnerByIndex",
      "outputs": [
        {
          "internalType": "uint256",
          "name": "",
          "type": "uint256"
        }
      ],
      "stateMutability": "view",
      "type": "function"
    },
    {
      "inputs": [
        {
          "internalType": "uint256",
          "name": "tokenId",
          "type": "uint256"
        }
      ],
      "name": "tokenURI",
      "outputs": [
        {
          "internalType": "string",
          "name": "",
          "type": "string"
        }
      ],
      "stateMutability": "view",
      "type": "function"
    },
    {
      "inputs": [],
      "name": "totalSupply",
      "outputs": [
        {
          "internalType": "uint256",
          "name": "",
          "type": "uint256"
        }
      ],
      "stateMutability": "view",
      "type": "function"
    },
    {
      "inputs": [
        {
          "internalType": "address",
          "name": "from",
          "type": "address"
        },
        {
          "internalType": "address",
          "name": "to",
          "type": "address"
        },
        {
          "internalType": "uint256",
          "name": "tokenId",
          "type": "uint256"
        }
      ],
      "name": "transferFrom",
      "outputs": [],
      "stateMutability": "nonpayable",
      "type": "function"
    },
    {
      "inputs": [
        {
          "internalType": "address",
          "name": "newOwner",
          "type": "address"
        }
      ],
      "name": "transferOwnership",
      "outputs": [],
      "stateMutability": "nonpayable",
      "type": "function"
    },
    {
      "inputs": [
        {
          "internalType": "address",
          "name": "_from",
          "type": "address"
        },
        {
          "internalType": "address",
          "name": "_to",
          "type": "address"
        },
        {
          "internalType": "uint256",
          "name": "_tokenId",
          "type": "uint256"
        }
      ],
      "name": "transferSneaker",
      "outputs": [],
      "stateMutability": "nonpayable",
      "type": "function"
    },
    {
      "inputs": [
        {
          "internalType": "uint256",
          "name": "_tokenId",
          "type": "uint256"
        }
      ],
      "name": "updateMintCount",
      "outputs": [],
      "stateMutability": "nonpayable",
      "type": "function"
    },
    {
      "inputs": [
        {
          "internalType": "address",
          "name": "_user",
          "type": "address"
        },
        {
          "internalType": "uint256",
          "name": "_GSTTokenAmount",
          "type": "uint256"
        },
        {
          "internalType": "uint256",
          "name": "_GMTTokenAmount",
          "type": "uint256"
        }
      ],
      "name": "userReward",
      "outputs": [],
      "stateMutability": "nonpayable",
      "type": "function"
    }
  ],
  "bytecode": "0x60806040526011805460ff1916600a1790553480156200001e57600080fd5b506040516200535a3803806200535a8339810160408190526200004191620001d7565b604080518082018252600781526629a722a0a5a2a960c91b602080830191825283518085019094526003845262534e4b60e81b9084015281518493916200008c916000919062000131565b508051620000a290600190602084019062000131565b5050600a80546001600160a01b0319166001600160a01b03939093169290921790915550620000d8620000d23390565b620000df565b5062000244565b600b80546001600160a01b038381166001600160a01b0319831681179093556040519116919082907f8be0079c531659141344cd1fd0a4f28419497f9722a3daafe3b4186f6b6457e090600090a35050565b8280546200013f9062000207565b90600052602060002090601f016020900481019282620001635760008555620001ae565b82601f106200017e57805160ff1916838001178555620001ae565b82800160010185558215620001ae579182015b82811115620001ae57825182559160200191906001019062000191565b50620001bc929150620001c0565b5090565b5b80821115620001bc5760008155600101620001c1565b600060208284031215620001e9578081fd5b81516001600160a01b038116811462000200578182fd5b9392505050565b6002810460018216806200021c57607f821691505b602082108114156200023e57634e487b7160e01b600052602260045260246000fd5b50919050565b61510680620002546000396000f3fe608060405234801561001057600080fd5b50600436106102325760003560e01c80636976fc5311610130578063b88d4fde116100b8578063e3f6ff861161007c578063e3f6ff8614610501578063e985e9c514610514578063f2fde38b14610550578063f4408adf14610563578063f60372c51461057657610232565b8063b88d4fde14610495578063c43f27be146104a8578063c87b56dd146104bb578063dd594779146104ce578063e1d5c632146104ee57610232565b8063837c5d72116100ff578063837c5d7214610429578063864b82da146104495780638da5cb5b1461046957806395d89b411461047a578063a22cb4651461048257610232565b80636976fc53146103e857806370a08231146103fb578063715018a61461040e5780637356a2df1461041657610232565b80632b147765116101be578063364bfe2611610182578063364bfe261461036c57806342842e0e1461039c5780634f6ccce7146103af5780634fb8d3b4146103c25780636352211e146103d557610232565b80632b147765146103075780632b15150f1461031a5780632f745c591461032d57806334ce10c414610340578063362124801461035957610232565b8063095ea7b311610205578063095ea7b3146102b45780630ca9203d146102c75780631459457a146102d957806318160ddd146102ec57806323b872dd146102f457610232565b806301ffc9a71461023757806305c969aa1461025f57806306fdde0314610274578063081812fc14610289575b600080fd5b61024a610245366004614799565b610589565b60405190151581526020015b60405180910390f35b61027261026d36600461486c565b6105b6565b005b61027c610782565b6040516102569190614bb7565b61029c61029736600461486c565b610814565b6040516001600160a01b039091168152602001610256565b6102726102c236600461471e565b61083b565b6010545b604051908152602001610256565b6102726102e73660046144a8565b610951565b6008546102cb565b610272610302366004614518565b610a68565b61027261031536600461486c565b610a99565b610272610328366004614518565b610bb8565b6102cb61033b36600461471e565b610dfe565b60115460ff165b60405160ff9091168152602001610256565b610272610367366004614641565b610e97565b61027261037a366004614438565b600a80546001600160a01b0319166001600160a01b0392909216919091179055565b6102726103aa366004614518565b611399565b6102cb6103bd36600461486c565b6113b4565b6102726103d036600461486c565b611455565b61029c6103e336600461486c565b611751565b6102726103f63660046148c0565b6117b1565b6102cb610409366004614438565b612463565b6102726124e9565b610272610424366004614749565b6124fd565b61043c61043736600461486c565b6126a3565b6040516102569190614cc7565b61045c61045736600461486c565b612748565b6040516102569190614cf3565b600b546001600160a01b031661029c565b61027c6127bb565b610272610490366004614614565b6127ca565b6102726104a3366004614558565b6127d9565b6102726104b636600461486c565b61280b565b61027c6104c936600461486c565b612950565b6104e16104dc36600461486c565b6129c4565b6040516102569190614d1e565b6103476104fc3660046147d1565b612c54565b61027261050f36600461489c565b612d45565b61024a610522366004614470565b6001600160a01b03918216600090815260056020908152604080832093909416825291909152205460ff1690565b61027261055e366004614438565b612e54565b6102726105713660046148f8565b612ecd565b61029c61058436600461486c565b61310d565b60006001600160e01b0319821663780e9d6360e01b14806105ae57506105ae82613118565b90505b919050565b806105c081611751565b6001600160a01b0316336001600160a01b0316146105f95760405162461bcd60e51b81526004016105f090614c1c565b60405180910390fd5b600082815260126020526040812060010154662386f26fc10000906106299062010000900461ffff166064614f13565b61ffff166106379190614ef4565b600084815260126020526040902060010154662386f26fc10000906106619061ffff166064614f13565b61ffff1661066f9190614ef4565b6106799190614d8c565b600c546040516323b872dd60e01b81529192506001600160a01b0316906323b872dd906106ae90339030908690600401614b56565b602060405180830381600087803b1580156106c857600080fd5b505af11580156106dc573d6000803e3d6000fd5b505050506040513d601f19601f82011682018060405250810190610700919061477d565b5060008381526012602052604090206001018054606461ffff199091161763ffff00001916626400001790557f083a73924aef10619013c731979f0e7d000e22ebe506c1e3a89fd71a803e959a6107543390565b604080516001600160a01b0390921682526020820186905281018390526060015b60405180910390a1505050565b60606000805461079190614f79565b80601f01602080910402602001604051908101604052809291908181526020018280546107bd90614f79565b801561080a5780601f106107df5761010080835404028352916020019161080a565b820191906000526020600020905b8154815290600101906020018083116107ed57829003601f168201915b5050505050905090565b600061081f82613168565b506000908152600460205260409020546001600160a01b031690565b600061084682611751565b9050806001600160a01b0316836001600160a01b031614156108b45760405162461bcd60e51b815260206004820152602160248201527f4552433732313a20617070726f76616c20746f2063757272656e74206f776e656044820152603960f91b60648201526084016105f0565b336001600160a01b03821614806108d057506108d08133610522565b6109425760405162461bcd60e51b815260206004820152603e60248201527f4552433732313a20617070726f76652063616c6c6572206973206e6f7420746f60448201527f6b656e206f776e6572206e6f7220617070726f76656420666f7220616c6c000060648201526084016105f0565b61094c83836131c7565b505050565b610959613235565b6001600160a01b0385161580159061097957506001600160a01b03841615155b801561098d57506001600160a01b03831615155b6109d95760405162461bcd60e51b815260206004820152601760248201527f61646472657373203078206973206e6f742076616c696400000000000000000060448201526064016105f0565b600c80546001600160a01b03199081166001600160a01b0397881617909155600d8054821695871695909517909455600e805485169386169384179055600f8054909416908516908117909355600091825260136020526040808320805460ff199081166001908117909255929095168352808320805483168617905592825291902080549091169091179055565b610a72338261328f565b610a8e5760405162461bcd60e51b81526004016105f090614c79565b61094c83838361330e565b80610aa381611751565b6001600160a01b0316336001600160a01b031614610ad35760405162461bcd60e51b81526004016105f090614c1c565b610adc826134b5565b600082815260126020526040812081815560018101805463ffffffff1916905560028101829055600381018290556004810182905560058101829055600681018290556007810180546001600160c01b031916905590610b3f60088301826141cd565b60098201805460ff191690556000600a8301819055610b6290600b8401906141cd565b50507fd654df5c4345731ce3f4d414176e888da7f05f73dd610cedcc74cbae5a9aec9d82610b8d3390565b604080519283526001600160a01b039091166020830152429082015260600160405180910390a15050565b6000818152601260205260409020610bd1848484610a68565b7ffcb70461689af9da262d3e2ac94316ee4774008a90786aee24b28d5a6b28649e848484604051610c0493929190614b56565b60405180910390a16007810180546001600160a01b0385166001600160a01b031990911617905560008281526012602052604090208154815560018083018054918301805461ffff191661ffff938416178082559154620100009081900490931690920263ffff0000199091161790558190610c88600280830190808501906141eb565b50600382810154908201556004808301548183015560058084015490830155600680840154908301556007808401805491840180546001600160a01b0319166001600160a01b0390931692909217808355815460ff600160a01b91829004811690910260ff60a01b19909216919091178084559154600160a81b908190049091169360ff60a81b19909216918490811115610d3357634e487b7160e01b600052602160045260246000fd5b0217905550600782810154908201805460ff600160b01b93849004169260ff60b01b1990911690836003811115610d7a57634e487b7160e01b600052602160045260246000fd5b0217905550600782810154908201805460ff60b81b1916600160b81b9283900460ff1690920291909117905560088083018054610dba928401919061422e565b50600982810154908201805460ff191660ff9092161515919091179055600a8083015490820155600b8083018054610df5928401919061422e565b50505050505050565b6000610e0983612463565b8210610e6b5760405162461bcd60e51b815260206004820152602b60248201527f455243373231456e756d657261626c653a206f776e657220696e646578206f7560448201526a74206f6620626f756e647360a81b60648201526084016105f0565b506001600160a01b03821660009081526006602090815260408083208484529091529020545b92915050565b600b546001600160a01b0316331480610ebf57503360009081526013602052604090205460ff165b610f1a5760405162461bcd60e51b815260206004820152602660248201527f536e65616b65724e46543a20556e617574686f72697a656420746f204620536e60448201526565616b65727360d01b60648201526084016105f0565b600080600080610f298761355d565b604080516080810190915260115494985092965090945092506000918190610f559060ff16600a614e23565b610f639061ffff8916614ef4565b8152601154602090910190610f7c9060ff16600a614e23565b610f8a9061ffff8816614ef4565b8152601154602090910190610fa39060ff16600a614e23565b610fb19061ffff8716614ef4565b8152601154602090910190610fca9060ff16600a614e23565b610fd89061ffff8616614ef4565b90529050600080610fe8896135cd565b915091506000604051806101c001604052806010548152602001606461ffff168152602001606461ffff16815260200160405180604001604052808660ff1660ff1681526020018560ff1660ff1681525081526020018581526020018d6001600160a01b03168152602001600160ff1681526020018c600481111561107d57634e487b7160e01b600052602160045260246000fd5b81526020018b60038111156110a257634e487b7160e01b600052602160045260246000fd5b8152600060208201819052604082018c905260608201819052608082015260a00160046040519080825280602002602001820160405280156110ee578160200160208202803683370190505b50905260105460009081526012602090815260409182902083518155908301516001820180549385015161ffff908116620100000263ffff0000199190931661ffff199095169490941793909316179091556060820151919250829161115a906002808401919061426d565b50608082015180516003830155602081015160048084019190915560408201516005840155606090910151600683015560a083015160078301805460c086015160ff16600160a01b0260ff60a01b196001600160a01b039094166001600160a01b031990921691909117929092169190911780825560e08501519260ff60a81b1990911690600160a81b90849081111561120457634e487b7160e01b600052602160045260246000fd5b021790555061010082015160078201805460ff60b01b1916600160b01b83600381111561124157634e487b7160e01b600052602160045260246000fd5b021790555061012082015160078201805460ff909216600160b81b0260ff60b81b1990921691909117905561014082015180516112889160088401916020909101906142fb565b5061016082015160098201805460ff1916911515919091179055610180820151600a8201556101a082015180516112c991600b8401916020909101906142fb565b509050506112d98c601054613621565b7f7ca98438e268231a76f9efac6f45f5f0fa237484843ed6441784a1bb47af514a6010548d8360405161130e93929190614d31565b60405180910390a1600f546040516301d53ebd60e61b81526001600160a01b038e811660048301529091169063754faf4090602401600060405180830381600087803b15801561135d57600080fd5b505af1158015611371573d6000803e3d6000fd5b50506010805492509050600061138683614fb4565b9190505550505050505050505050505050565b61094c838383604051806020016040528060008152506127d9565b60006113bf60085490565b82106114225760405162461bcd60e51b815260206004820152602c60248201527f455243373231456e756d657261626c653a20676c6f62616c20696e646578206f60448201526b7574206f6620626f756e647360a01b60648201526084016105f0565b6008828154811061144357634e487b7160e01b600052603260045260246000fd5b90600052602060002001549050919050565b8061145f81611751565b6001600160a01b0316336001600160a01b03161461148f5760405162461bcd60e51b81526004016105f090614c1c565b600082815260126020526040902060070154601e600160a01b90910460ff16106114fb5760405162461bcd60e51b815260206004820152601d60248201527f536e65616b65724e46543a204d6178206c6576656c207265616368656400000060448201526064016105f0565b600c546001600160a01b03166323b872dd3330670de0b6b3a76400006040518463ffffffff1660e01b815260040161153593929190614b56565b602060405180830381600087803b15801561154f57600080fd5b505af1158015611563573d6000803e3d6000fd5b505050506040513d601f19601f82011682018060405250810190611587919061477d565b5060008281526012602052604090206007810154600160a01b900460ff16600114156115c75760078101805460ff60a01b1916600560a01b179055611601565b60058160070160148282829054906101000a900460ff166115e89190614da4565b92506101000a81548160ff021916908360ff1602179055505b6011546116129060ff16600a614e23565b61161d906005614ef4565b600382018054600090611631908490614d8c565b90915550506011546116479060ff16600a614e23565b611652906005614ef4565b600482018054600090611666908490614d8c565b909155505060115461167c9060ff16600a614e23565b611687906005614ef4565b60058201805460009061169b908490614d8c565b90915550506011546116b19060ff16600a614e23565b6116bc906005614ef4565b6006820180546000906116d0908490614d8c565b90915550506007810154600160a01b900460ff16601e14156116fc5760098101805460ff191660011790555b7f3e4a641e70b9f37722c669815fb643bafd957b9d0f103d5b350f6a09127cc11f83336007840154604080519384526001600160a01b039092166020840152600160a01b900460ff1690820152606001610775565b6000818152600260205260408120546001600160a01b0316806105ae5760405162461bcd60e51b8152602060048201526018602482015277115490cdcc8c4e881a5b9d985b1a59081d1bdad95b88125160421b60448201526064016105f0565b826117bb81611751565b6001600160a01b0316336001600160a01b0316146117eb5760405162461bcd60e51b81526004016105f090614c1c565b33600e5460405163c3ae0d7f60e01b8152600481018690526001600160a01b03928316929091169063c3ae0d7f9060240160206040518083038186803b15801561183457600080fd5b505afa158015611848573d6000803e3d6000fd5b505050506040513d601f19601f8201168201806040525081019061186c9190614454565b6001600160a01b0316146118cd5760405162461bcd60e51b815260206004820152602260248201527f536e65616b65724e46543a20596f7520646f6e2774206f776e20746869732067604482015261656d60f01b60648201526084016105f0565b600084815260126020526040902060ff831661194d5760078101546005600160a01b90910460ff16101561194d5760405162461bcd60e51b815260206004820152603360248201526000805160206150b18339815191526044820152726c203520746f2075736520736f636b6574203160681b60648201526084016105f0565b8260ff16600114156119c4576007810154600a600160a01b90910460ff1610156119c45760405162461bcd60e51b815260206004820152603460248201526000805160206150b183398151915260448201527336101898103a37903ab9b29039b7b1b5b2ba101960611b60648201526084016105f0565b8260ff1660021415611a3b576007810154600f600160a01b90910460ff161015611a3b5760405162461bcd60e51b815260206004820152603460248201526000805160206150b18339815191526044820152736c20313520746f2075736520736f636b6574203360601b60648201526084016105f0565b8260ff1660031415611ab25760078101546014600160a01b90910460ff161015611ab25760405162461bcd60e51b815260206004820152603460248201526000805160206150b18339815191526044820152731b080c8c081d1bc81d5cd9481cdbd8dad95d080d60621b60648201526084016105f0565b600c546001600160a01b03166323b872dd3330670de0b6b3a76400006040518463ffffffff1660e01b8152600401611aec93929190614b56565b602060405180830381600087803b158015611b0657600080fd5b505af1158015611b1a573d6000803e3d6000fd5b505050506040513d601f19601f82011682018060405250810190611b3e919061477d565b5080600b018360ff1681548110611b6557634e487b7160e01b600052603260045260246000fd5b9060005260206000200154600014612072578381600b018460ff1681548110611b9e57634e487b7160e01b600052603260045260246000fd5b90600052602060002001541415611c035760405162461bcd60e51b815260206004820152602360248201527f536e65616b65724e46543a2047656d20697320616c72656164792065717569706044820152621c195960ea1b60648201526084016105f0565b600e54600b820180546000926001600160a01b03169163aa723bb79160ff8816908110611c4057634e487b7160e01b600052603260045260246000fd5b90600052602060002001546040518263ffffffff1660e01b8152600401611c6991815260200190565b60c06040518083038186803b158015611c8157600080fd5b505afa158015611c95573d6000803e3d6000fd5b505050506040513d601f19601f82011682018060405250810190611cb991906147eb565b60600151600e54600b840180549293506000926001600160a01b039092169163aa723bb7919060ff8916908110611d0057634e487b7160e01b600052603260045260246000fd5b90600052602060002001546040518263ffffffff1660e01b8152600401611d2991815260200190565b60c06040518083038186803b158015611d4157600080fd5b505afa158015611d55573d6000803e3d6000fd5b505050506040513d601f19601f82011682018060405250810190611d7991906147eb565b60a0015161ffff1690506000600e60009054906101000a90046001600160a01b03166001600160a01b031663aa723bb785600b018860ff1681548110611dcf57634e487b7160e01b600052603260045260246000fd5b90600052602060002001546040518263ffffffff1660e01b8152600401611df891815260200190565b60c06040518083038186803b158015611e1057600080fd5b505afa158015611e24573d6000803e3d6000fd5b505050506040513d601f19601f82011682018060405250810190611e4891906147eb565b6080015161ffff1690506000836003811115611e7457634e487b7160e01b600052602160045260246000fd5b1415611eaf57601154611e8b9060ff16600a614e23565b611e959082614ef4565b600385018054600090611ea9908490614f36565b90915550505b6003836003811115611ed157634e487b7160e01b600052602160045260246000fd5b1415611f0c57601154611ee89060ff16600a614e23565b611ef29082614ef4565b600685018054600090611f06908490614f36565b90915550505b6001836003811115611f2e57634e487b7160e01b600052602160045260246000fd5b1415611f6957601154611f459060ff16600a614e23565b611f4f9082614ef4565b600485018054600090611f63908490614f36565b90915550505b6002836003811115611f8b57634e487b7160e01b600052602160045260246000fd5b1415611fc657601154611fa29060ff16600a614e23565b611fac9082614ef4565b600585018054600090611fc0908490614f36565b90915550505b611fd1826064614d8c565b6003850154611fe1906064614ef4565b611feb9190614dc9565b6003850155611ffb826064614d8c565b600685015461200b906064614ef4565b6120159190614dc9565b6006850155612025826064614d8c565b6004850154612035906064614ef4565b61203f9190614dc9565b600485015561204f826064614d8c565b600585015461205f906064614ef4565b6120699190614dc9565b60058501555050505b600e5460405163aa723bb760e01b8152600481018690526000916001600160a01b03169063aa723bb79060240160c06040518083038186803b1580156120b757600080fd5b505afa1580156120cb573d6000803e3d6000fd5b505050506040513d601f19601f820116820180604052508101906120ef91906147eb565b60600151600e5460405163aa723bb760e01b8152600481018890529192506000916001600160a01b039091169063aa723bb79060240160c06040518083038186803b15801561213d57600080fd5b505afa158015612151573d6000803e3d6000fd5b505050506040513d601f19601f8201168201806040525081019061217591906147eb565b60a00151600e5460405163aa723bb760e01b81526004810189905261ffff90921692506000916001600160a01b039091169063aa723bb79060240160c06040518083038186803b1580156121c857600080fd5b505afa1580156121dc573d6000803e3d6000fd5b505050506040513d601f19601f8201168201806040525081019061220091906147eb565b6080015161ffff16905060646122168382614d8c565b60038601546122259190614ef4565b61222f9190614dc9565b600385015560646122408382614d8c565b600686015461224f9190614ef4565b6122599190614dc9565b6006850155606461226a8382614d8c565b60048601546122799190614ef4565b6122839190614dc9565b600485015560646122948382614d8c565b60058601546122a39190614ef4565b6122ad9190614dc9565b600585015560008360038111156122d457634e487b7160e01b600052602160045260246000fd5b141561230f576011546122eb9060ff16600a614e23565b6122f59082614ef4565b600385018054600090612309908490614d8c565b90915550505b600383600381111561233157634e487b7160e01b600052602160045260246000fd5b141561236c576011546123489060ff16600a614e23565b6123529082614ef4565b600685018054600090612366908490614d8c565b90915550505b600183600381111561238e57634e487b7160e01b600052602160045260246000fd5b14156123c9576011546123a59060ff16600a614e23565b6123af9082614ef4565b6004850180546000906123c3908490614d8c565b90915550505b60028360038111156123eb57634e487b7160e01b600052602160045260246000fd5b1415612426576011546124029060ff16600a614e23565b61240c9082614ef4565b600585018054600090612420908490614d8c565b90915550505b8684600b018760ff168154811061244d57634e487b7160e01b600052603260045260246000fd5b6000918252602090912001555050505050505050565b60006001600160a01b0382166124cd5760405162461bcd60e51b815260206004820152602960248201527f4552433732313a2061646472657373207a65726f206973206e6f7420612076616044820152683634b21037bbb732b960b91b60648201526084016105f0565b506001600160a01b031660009081526003602052604090205490565b6124f1613235565b6124fb600061363b565b565b600b546001600160a01b031633148061252557503360009081526013602052604090205460ff165b6125835760405162461bcd60e51b815260206004820152602960248201527f536e65616b65724e46543a20556e617574686f72697a656420746f206d696e7460448201526820536e65616b65727360b81b60648201526084016105f0565b811561261157600c5460405163a9059cbb60e01b81526001600160a01b038581166004830152602482018590529091169063a9059cbb90604401602060405180830381600087803b1580156125d757600080fd5b505af11580156125eb573d6000803e3d6000fd5b505050506040513d601f19601f8201168201806040525081019061260f919061477d565b505b801561094c57600d5460405163a9059cbb60e01b81526001600160a01b038581166004830152602482018490529091169063a9059cbb90604401602060405180830381600087803b15801561266557600080fd5b505af1158015612679573d6000803e3d6000fd5b505050506040513d601f19601f8201168201806040525081019061269d919061477d565b50505050565b60408051808201909152600080825260208201526040805180820182526000848152601260205291909120600701548190600160a81b900460ff1660048111156126fd57634e487b7160e01b600052602160045260246000fd5b8152600084815260126020908152604090912060070154910190600160b01b900460ff16600381111561274057634e487b7160e01b600052602160045260246000fd5b905292915050565b6127736040518060800160405280600081526020016000815260200160008152602001600081525090565b50600090815260126020908152604091829020825160808101845260038201548152600482015492810192909252600581015492820192909252600690910154606082015290565b60606001805461079190614f79565b6127d533838361368d565b5050565b6127e3338361328f565b6127ff5760405162461bcd60e51b81526004016105f090614c79565b61269d8484848461375c565b600b546001600160a01b031633148061283357503360009081526013602052604090205460ff165b6128955760405162461bcd60e51b815260206004820152602d60248201527f536e65616b65724e46543a20556e617574686f72697a656420746f207570646160448201526c1d19481b5a5b9d0818dbdd5b9d609a1b60648201526084016105f0565b6000818152601260205260409020600790810154600160b81b900460ff161061290b5760405162461bcd60e51b815260206004820152602260248201527f536e65616b65724e46543a204d6178206d696e7420636f756e74207265616368604482015261195960f21b60648201526084016105f0565b60008181526012602052604090206007018054600160b81b900460ff1690601761293483614fcf565b91906101000a81548160ff021916908360ff1602179055505050565b606061295b82613168565b600061297260408051602081019091526000815290565b9050600081511161299257604051806020016040528060008152506129bd565b8061299c8461378f565b6040516020016129ad929190614b27565b6040516020818303038152906040525b9392505050565b6129cc614336565b600082815260126020908152604080832081516101c08101835281548152600182015461ffff8082169583019590955262010000900490931683830152815180830192839052929390926060850192909160028086019290918390855b825461010083900a900460ff16815260206001928301818104948501949093039092029101808411612a29579050505050918352505060408051608080820183526003850154825260048086015460208481019190915260058701548486015260068701546060808601919091529086019390935260078601546001600160a01b0381169486019490945260ff600160a01b8504811693860193909352930192600160a81b9092041690811115612af057634e487b7160e01b600052602160045260246000fd5b6004811115612b0f57634e487b7160e01b600052602160045260246000fd5b81526020016007820160169054906101000a900460ff166003811115612b4557634e487b7160e01b600052602160045260246000fd5b6003811115612b6457634e487b7160e01b600052602160045260246000fd5b81526007820154600160b81b900460ff166020808301919091526008830180546040805182850281018501825282815294019392830182828015612bc757602002820191906000526020600020905b815481526020019060010190808311612bb3575b505050505081526020016009820160009054906101000a900460ff16151515158152602001600a8201548152602001600b8201805480602002602001604051908101604052809291908181526020018280548015612c4457602002820191906000526020600020905b815481526020019060010190808311612c30575b5050505050815250509050919050565b600080826004811115612c7757634e487b7160e01b600052602160045260246000fd5b1415612c85575060046105b1565b6001826004811115612ca757634e487b7160e01b600052602160045260246000fd5b1415612cb5575060066105b1565b6002826004811115612cd757634e487b7160e01b600052602160045260246000fd5b1415612ce5575060086105b1565b6003826004811115612d0757634e487b7160e01b600052602160045260246000fd5b1415612d155750600a6105b1565b6004826004811115612d3757634e487b7160e01b600052602160045260246000fd5b14156105b15750600c6105b1565b81612d4f81611751565b6001600160a01b0316336001600160a01b031614612d7f5760405162461bcd60e51b81526004016105f090614c1c565b60008381526012602052604090206007810154600160a01b900460ff16601e14612de55760405162461bcd60e51b8152602060048201526024808201526000805160206150b183398151915260448201526306c2033360e41b60648201526084016105f0565b60098101805484151560ff1990911617905560008481526012602052604090208154815560018083018054918301805461ffff191661ffff938416178082559154620100009081900490931690920263ffff0000199091161790558190610c88600280830190808501906141eb565b612e5c613235565b6001600160a01b038116612ec15760405162461bcd60e51b815260206004820152602660248201527f4f776e61626c653a206e6577206f776e657220697320746865207a65726f206160448201526564647265737360d01b60648201526084016105f0565b612eca8161363b565b50565b600b546001600160a01b0316331480612ef557503360009081526013602052604090205460ff165b612f535760405162461bcd60e51b815260206004820152602960248201527f536e65616b65724e46543a20556e617574686f72697a656420746f20646563616044820152683c9029b732b0b5b2b960b91b60648201526084016105f0565b60008381526012602052604090206001015460ff831661ffff90911611612fc65760405162461bcd60e51b815260206004820152602160248201527f536e65616b65724e46543a204475726162696c69747920697320746f6f206c6f6044820152607760f81b60648201526084016105f0565b60008381526012602052604090206001015460ff82166201000090910461ffff16116130345760405162461bcd60e51b815260206004820152601960248201527f536e65616b65724e46543a20485020697320746f6f206c6f770000000000000060448201526064016105f0565b6000838152601260205260408120600101805460ff8516929061305c90849061ffff16614f13565b92506101000a81548161ffff021916908361ffff1602179055508060ff166012600085815260200190815260200160002060010160028282829054906101000a900461ffff166130ac9190614f13565b92506101000a81548161ffff021916908361ffff1602179055507f01f0674524c4861ba0ae6596758d877ca0f59250d9e384b03f60d1d2a19612678383836040516107759392919092835260ff918216602084015216604082015260600190565b60006105ae82611751565b60006001600160e01b031982166380ac58cd60e01b148061314957506001600160e01b03198216635b5e139f60e01b145b806105ae57506301ffc9a760e01b6001600160e01b03198316146105ae565b6000818152600260205260409020546001600160a01b0316612eca5760405162461bcd60e51b8152602060048201526018602482015277115490cdcc8c4e881a5b9d985b1a59081d1bdad95b88125160421b60448201526064016105f0565b600081815260046020526040902080546001600160a01b0319166001600160a01b03841690811790915581906131fc82611751565b6001600160a01b03167f8c5be1e5ebec7d5bd14f71427d1e84f3dd0314c0f7b2291e5b200ac8c7c3b92560405160405180910390a45050565b600b546001600160a01b031633146124fb5760405162461bcd60e51b815260206004820181905260248201527f4f776e61626c653a2063616c6c6572206973206e6f7420746865206f776e657260448201526064016105f0565b60008061329b83611751565b9050806001600160a01b0316846001600160a01b031614806132e257506001600160a01b0380821660009081526005602090815260408083209388168352929052205460ff165b806133065750836001600160a01b03166132fb84610814565b6001600160a01b0316145b949350505050565b826001600160a01b031661332182611751565b6001600160a01b0316146133855760405162461bcd60e51b815260206004820152602560248201527f4552433732313a207472616e736665722066726f6d20696e636f72726563742060448201526437bbb732b960d91b60648201526084016105f0565b6001600160a01b0382166133e75760405162461bcd60e51b8152602060048201526024808201527f4552433732313a207472616e7366657220746f20746865207a65726f206164646044820152637265737360e01b60648201526084016105f0565b6133f28383836138aa565b6133fd6000826131c7565b6001600160a01b0383166000908152600360205260408120805460019290613426908490614f36565b90915550506001600160a01b0382166000908152600360205260408120805460019290613454908490614d8c565b909155505060008181526002602052604080822080546001600160a01b0319166001600160a01b0386811691821790925591518493918716917fddf252ad1be2c89b69c2b068fc378daa952ba7f163c4a11628f55a4df523b3ef91a461094c565b60006134c082611751565b90506134ce816000846138aa565b6134d96000836131c7565b6001600160a01b0381166000908152600360205260408120805460019290613502908490614f36565b909155505060008281526002602052604080822080546001600160a01b0319169055518391906001600160a01b038416907fddf252ad1be2c89b69c2b068fc378daa952ba7f163c4a11628f55a4df523b3ef908390a46127d5565b60008060008061356c85613967565b6040805161ffff868116825285811660208301528481168284015283166060820152905194985092965090945092507ffcacc34223abcd59332e04c23bb584c4bab065879f2f50ce71b966ce87ae490a919081900360800190a19193509193565b6000806135d983613bab565b6040805160ff8085168252831660208201529294509092507ffd48624bae13db77935d1f8ed28bccde9dbb8375027fd2d525d090654e99cd73910160405180910390a1915091565b6127d5828260405180602001604052806000815250613c7e565b600b80546001600160a01b038381166001600160a01b0319831681179093556040519116919082907f8be0079c531659141344cd1fd0a4f28419497f9722a3daafe3b4186f6b6457e090600090a35050565b816001600160a01b0316836001600160a01b031614156136ef5760405162461bcd60e51b815260206004820152601960248201527f4552433732313a20617070726f766520746f2063616c6c65720000000000000060448201526064016105f0565b6001600160a01b03838116600081815260056020908152604080832094871680845294825291829020805460ff191686151590811790915591519182527f17307eab39ab6107e8899845ad3d59bd9653f200f220920489ca2b5937696c31910160405180910390a3505050565b61376784848461330e565b61377384848484613cb1565b61269d5760405162461bcd60e51b81526004016105f090614bca565b6060816137b457506040805180820190915260018152600360fc1b60208201526105b1565b8160005b81156137de57806137c881614fb4565b91506137d79050600a83614dc9565b91506137b8565b60008167ffffffffffffffff81111561380757634e487b7160e01b600052604160045260246000fd5b6040519080825280601f01601f191660200182016040528015613831576020820181803683370190505b5090505b841561330657613846600183614f36565b9150613853600a86614fef565b61385e906030614d8c565b60f81b81838151811061388157634e487b7160e01b600052603260045260246000fd5b60200101906001600160f81b031916908160001a9053506138a3600a86614dc9565b9450613835565b6001600160a01b0383166139055761390081600880546000838152600960205260408120829055600182018355919091527ff3f7a9fe364faab93b216da50a3214154f22a0a2b415b23a84c8169e8b636ee30155565b613928565b816001600160a01b0316836001600160a01b031614613928576139288382613dbe565b6001600160a01b0382166139445761393f81613e5b565b61094c565b826001600160a01b0316826001600160a01b03161461094c5761094c8282613f34565b60008060008060008061397987613f78565b600a5460405163dba2586160e01b815260ff8085166004830152831660248201529294509092506001600160a01b03169063dba2586190604401602060405180830381600087803b1580156139cd57600080fd5b505af11580156139e1573d6000803e3d6000fd5b505050506040513d601f19601f82011682018060405250810190613a059190614884565b600a5460405163dba2586160e01b815260ff8086166004830152841660248201529197506001600160a01b03169063dba2586190604401602060405180830381600087803b158015613a5657600080fd5b505af1158015613a6a573d6000803e3d6000fd5b505050506040513d601f19601f82011682018060405250810190613a8e9190614884565b600a5460405163dba2586160e01b815260ff8086166004830152841660248201529196506001600160a01b03169063dba2586190604401602060405180830381600087803b158015613adf57600080fd5b505af1158015613af3573d6000803e3d6000fd5b505050506040513d601f19601f82011682018060405250810190613b179190614884565b600a5460405163dba2586160e01b815260ff8086166004830152841660248201529195506001600160a01b03169063dba2586190604401602060405180830381600087803b158015613b6857600080fd5b505af1158015613b7c573d6000803e3d6000fd5b505050506040513d601f19601f82011682018060405250810190613ba09190614884565b925050509193509193565b60008080836003811115613bcf57634e487b7160e01b600052602160045260246000fd5b1415613be15750600190506006613c79565b6001836003811115613c0357634e487b7160e01b600052602160045260246000fd5b1415613c15575060049050600a613c79565b6002836003811115613c3757634e487b7160e01b600052602160045260246000fd5b1415613c49575060089050600a613c79565b6003836003811115613c6b57634e487b7160e01b600052602160045260246000fd5b1415613c7957506001905060145b915091565b613c88838361407e565b613c956000848484613cb1565b61094c5760405162461bcd60e51b81526004016105f090614bca565b60006001600160a01b0384163b15613db357604051630a85bd0160e11b81526001600160a01b0385169063150b7a0290613cf5903390899088908890600401614b7a565b602060405180830381600087803b158015613d0f57600080fd5b505af1925050508015613d3f575060408051601f3d908101601f19168201909252613d3c918101906147b5565b60015b613d99573d808015613d6d576040519150601f19603f3d011682016040523d82523d6000602084013e613d72565b606091505b508051613d915760405162461bcd60e51b81526004016105f090614bca565b805181602001fd5b6001600160e01b031916630a85bd0160e11b149050613306565b506001949350505050565b60006001613dcb84612463565b613dd59190614f36565b600083815260076020526040902054909150808214613e28576001600160a01b03841660009081526006602090815260408083208584528252808320548484528184208190558352600790915290208190555b5060009182526007602090815260408084208490556001600160a01b039094168352600681528383209183525290812055565b600854600090613e6d90600190614f36565b60008381526009602052604081205460088054939450909284908110613ea357634e487b7160e01b600052603260045260246000fd5b906000526020600020015490508060088381548110613ed257634e487b7160e01b600052603260045260246000fd5b6000918252602080832090910192909255828152600990915260408082208490558582528120556008805480613f1857634e487b7160e01b600052603160045260246000fd5b6001900381819060005260206000200160009055905550505050565b6000613f3f83612463565b6001600160a01b039093166000908152600660209081526040808320868452825280832085905593825260079052919091209190915550565b60008080836004811115613f9c57634e487b7160e01b600052602160045260246000fd5b1415613fae575060019050600a613c79565b6001836004811115613fd057634e487b7160e01b600052602160045260246000fd5b1415613fe25750600890506012613c79565b600283600481111561400457634e487b7160e01b600052602160045260246000fd5b14156140165750600f90506023613c79565b600383600481111561403857634e487b7160e01b600052602160045260246000fd5b141561404a5750601c9050603f613c79565b600483600481111561406c57634e487b7160e01b600052602160045260246000fd5b1415613c795750603290506070613c79565b6001600160a01b0382166140d45760405162461bcd60e51b815260206004820181905260248201527f4552433732313a206d696e7420746f20746865207a65726f206164647265737360448201526064016105f0565b6000818152600260205260409020546001600160a01b0316156141395760405162461bcd60e51b815260206004820152601c60248201527f4552433732313a20746f6b656e20616c7265616479206d696e7465640000000060448201526064016105f0565b614145600083836138aa565b6001600160a01b038216600090815260036020526040812080546001929061416e908490614d8c565b909155505060008181526002602052604080822080546001600160a01b0319166001600160a01b03861690811790915590518392907fddf252ad1be2c89b69c2b068fc378daa952ba7f163c4a11628f55a4df523b3ef908290a46127d5565b5080546000825590600052602060002090810190612eca91906143e4565b60018301918390821561421e5791601f016020900482015b8281111561421e578254825591600101919060010190614203565b5061422a9291506143e4565b5090565b82805482825590600052602060002090810192821561421e5760005260206000209182018281111561421e578254825591600101919060010190614203565b60018301918390821561421e5791602002820160005b838211156142c157835183826101000a81548160ff021916908360ff1602179055509260200192600101602081600001049283019260010302614283565b80156142ee5782816101000a81549060ff02191690556001016020816000010492830192600103026142c1565b505061422a9291506143e4565b82805482825590600052602060002090810192821561421e579160200282015b8281111561421e57825182559160200191906001019061431b565b604051806101c0016040528060008152602001600061ffff168152602001600061ffff1681526020016143676143f9565b81526020016143976040518060800160405280600081526020016000815260200160008152602001600081525090565b815260006020820181905260408201819052606090910190815260200160008152602001600060ff1681526020016060815260200160001515815260200160008152602001606081525090565b5b8082111561422a57600081556001016143e5565b60405180604001604052806002906020820280368337509192915050565b8035600581106105b157600080fd5b805161ffff811681146105b157600080fd5b600060208284031215614449578081fd5b81356129bd8161505b565b600060208284031215614465578081fd5b81516129bd8161505b565b60008060408385031215614482578081fd5b823561448d8161505b565b9150602083013561449d8161505b565b809150509250929050565b600080600080600060a086880312156144bf578081fd5b85356144ca8161505b565b945060208601356144da8161505b565b935060408601356144ea8161505b565b925060608601356144fa8161505b565b9150608086013561450a8161505b565b809150509295509295909350565b60008060006060848603121561452c578283fd5b83356145378161505b565b925060208401356145478161505b565b929592945050506040919091013590565b6000806000806080858703121561456d578384fd5b84356145788161505b565b93506020858101356145898161505b565b935060408601359250606086013567ffffffffffffffff808211156145ac578384fd5b818801915088601f8301126145bf578384fd5b8135818111156145d1576145d1615045565b6145e3601f8201601f19168501614d5b565b915080825289848285010111156145f8578485fd5b8084840185840137810190920192909252939692955090935050565b60008060408385031215614626578182fd5b82356146318161505b565b9150602083013561449d81615070565b60008060008060808587031215614656578182fd5b84356146618161505b565b93506020614670868201614417565b9350604086013561468081615094565b9250606086013567ffffffffffffffff8082111561469c578384fd5b818801915088601f8301126146af578384fd5b8135818111156146c1576146c1615045565b83810291506146d1848301614d5b565b8181528481019084860184860187018d10156146eb578788fd5b8795505b8386101561470d5780358352600195909501949186019186016146ef565b50989b979a50959850505050505050565b60008060408385031215614730578182fd5b823561473b8161505b565b946020939093013593505050565b60008060006060848603121561475d578081fd5b83356147688161505b565b95602085013595506040909401359392505050565b60006020828403121561478e578081fd5b81516129bd81615070565b6000602082840312156147aa578081fd5b81356129bd8161507e565b6000602082840312156147c6578081fd5b81516129bd8161507e565b6000602082840312156147e2578081fd5b6129bd82614417565b600060c082840312156147fc578081fd5b61480660c0614d5b565b825181526020830151614818816150a1565b6020820152604083015161482b8161505b565b6040820152606083015161483e81615094565b606082015261484f60808401614426565b608082015261486060a08401614426565b60a08201529392505050565b60006020828403121561487d578081fd5b5035919050565b600060208284031215614895578081fd5b5051919050565b600080604083850312156148ae578182fd5b82359150602083013561449d81615070565b6000806000606084860312156148d4578081fd5b833592506020840135915060408401356148ed816150a1565b809150509250925092565b60008060006060848603121561490c578081fd5b83359250602084013561491e816150a1565b915060408401356148ed816150a1565b6000815180845260208085019450808401835b8381101561495d57815187529582019590820190600101614941565b509495945050505050565b8060005b600281101561269d57815160ff1684526020938401939091019060010161496c565b600081518084526149a6816020860160208601614f4d565b601f01601f19169290920160200192915050565b600581106149ca576149ca61502f565b9052565b600481106149ca576149ca61502f565b60006102408251845260208301516149fc602086018261ffff169052565b506040830151614a12604086018261ffff169052565b506060830151614a256060860182614968565b506080830151805160a0860152602081015160c0860152604081015160e086015260608101516101008601525060a0830151610120614a6e818701836001600160a01b03169052565b60c08501519150610140614a868188018460ff169052565b60e08601519250610160614a9c818901856149ba565b6101008701519350610180614ab3818a01866149ce565b9287015193506101a092614acb8985018660ff169052565b828801519450856101c08a0152614ae4868a018661492e565b9550818801519450614afb6101e08a018615159052565b87015161020089015250508401518583036102208701529050614b1e828261492e565b95945050505050565b60008351614b39818460208801614f4d565b835190830190614b4d818360208801614f4d565b01949350505050565b6001600160a01b039384168152919092166020820152604081019190915260600190565b6001600160a01b0385811682528416602082015260408101839052608060608201819052600090614bad9083018461498e565b9695505050505050565b6000602082526129bd602083018461498e565b60208082526032908201527f4552433732313a207472616e7366657220746f206e6f6e20455243373231526560408201527131b2b4bb32b91034b6b83632b6b2b73a32b960711b606082015260800190565b6020808252603e908201527f536e65616b65724e46543a204f6e6c79204f776e6572206f662074686973205360408201527f6e65616b65722063616e20706572666f726d207468697320616374696f6e0000606082015260800190565b6020808252602e908201527f4552433732313a2063616c6c6572206973206e6f7420746f6b656e206f776e6560408201526d1c881b9bdc88185c1c1c9bdd995960921b606082015260800190565b6000604082019050614cda8284516149ba565b6020830151614cec60208401826149ce565b5092915050565b8151815260208083015190820152604080830151908201526060808301519082015260808101610e91565b6000602082526129bd60208301846149de565b8381526001600160a01b0383166020820152606060408201819052600090614b1e908301846149de565b604051601f8201601f1916810167ffffffffffffffff81118282101715614d8457614d84615045565b604052919050565b60008219821115614d9f57614d9f615003565b500190565b600060ff821660ff84168060ff03821115614dc157614dc1615003565b019392505050565b600082614dd857614dd8615019565b500490565b80825b6001808611614def5750614e1a565b818704821115614e0157614e01615003565b80861615614e0e57918102915b9490941c938002614de0565b94509492505050565b60006129bd60001960ff851684600082614e3f575060016129bd565b81614e4c575060006129bd565b8160018114614e625760028114614e6c57614e99565b60019150506129bd565b60ff841115614e7d57614e7d615003565b6001841b915084821115614e9357614e93615003565b506129bd565b5060208310610133831016604e8410600b8410161715614ecc575081810a83811115614ec757614ec7615003565b6129bd565b614ed98484846001614ddd565b808604821115614eeb57614eeb615003565b02949350505050565b6000816000190483118215151615614f0e57614f0e615003565b500290565b600061ffff83811690831681811015614f2e57614f2e615003565b039392505050565b600082821015614f4857614f48615003565b500390565b60005b83811015614f68578181015183820152602001614f50565b8381111561269d5750506000910152565b600281046001821680614f8d57607f821691505b60208210811415614fae57634e487b7160e01b600052602260045260246000fd5b50919050565b6000600019821415614fc857614fc8615003565b5060010190565b600060ff821660ff811415614fe657614fe6615003565b60010192915050565b600082614ffe57614ffe615019565b500690565b634e487b7160e01b600052601160045260246000fd5b634e487b7160e01b600052601260045260246000fd5b634e487b7160e01b600052602160045260246000fd5b634e487b7160e01b600052604160045260246000fd5b6001600160a01b0381168114612eca57600080fd5b8015158114612eca57600080fd5b6001600160e01b031981168114612eca57600080fd5b60048110612eca57600080fd5b60ff81168114612eca57600080fdfe536e65616b65724e46543a20536e65616b6572206d757374206265206c657665a2646970667358221220429c58954846a84d94ed97b6f8674d3e95f98c0655040946ee3321fd42a8090364736f6c63430008020033",
  "linkReferences": {},
  "deployedLinkReferences": {}
}