{
  "_format": "hh-sol-artifact-1",
  "contractName": "SneakerNFT",
  "sourceName": "contracts/SneakerNFT.sol",
  "abi": [
    {
      "inputs": [
        {
          "internalType": "address",
          "name": "_iRandom",
          "type": "address"
        }
      ],
      "stateMutability": "nonpayable",
      "type": "constructor"
    },
    {
      "anonymous": false,
      "inputs": [
        {
          "indexed": true,
          "internalType": "address",
          "name": "owner",
          "type": "address"
        },
        {
          "indexed": true,
          "internalType": "address",
          "name": "approved",
          "type": "address"
        },
        {
          "indexed": true,
          "internalType": "uint256",
          "name": "tokenId",
          "type": "uint256"
        }
      ],
      "name": "Approval",
      "type": "event"
    },
    {
      "anonymous": false,
      "inputs": [
        {
          "indexed": true,
          "internalType": "address",
          "name": "owner",
          "type": "address"
        },
        {
          "indexed": true,
          "internalType": "address",
          "name": "operator",
          "type": "address"
        },
        {
          "indexed": false,
          "internalType": "bool",
          "name": "approved",
          "type": "bool"
        }
      ],
      "name": "ApprovalForAll",
      "type": "event"
    },
    {
      "anonymous": false,
      "inputs": [
        {
          "indexed": false,
          "internalType": "uint256",
          "name": "tokenId",
          "type": "uint256"
        },
        {
          "indexed": false,
          "internalType": "address",
          "name": "_owner",
          "type": "address"
        },
        {
          "indexed": false,
          "internalType": "uint256",
          "name": "time",
          "type": "uint256"
        }
      ],
      "name": "BurnSneaker",
      "type": "event"
    },
    {
      "anonymous": false,
      "inputs": [
        {
          "indexed": false,
          "internalType": "uint8",
          "name": "_minSpeed",
          "type": "uint8"
        },
        {
          "indexed": false,
          "internalType": "uint8",
          "name": "_maxSpeed",
          "type": "uint8"
        }
      ],
      "name": "GenerateSpeed",
      "type": "event"
    },
    {
      "anonymous": false,
      "inputs": [
        {
          "indexed": false,
          "internalType": "uint16",
          "name": "efficiency",
          "type": "uint16"
        },
        {
          "indexed": false,
          "internalType": "uint16",
          "name": "luck",
          "type": "uint16"
        },
        {
          "indexed": false,
          "internalType": "uint16",
          "name": "comfort",
          "type": "uint16"
        },
        {
          "indexed": false,
          "internalType": "uint16",
          "name": "resilience",
          "type": "uint16"
        }
      ],
      "name": "GenerateStats",
      "type": "event"
    },
    {
      "anonymous": false,
      "inputs": [
        {
          "indexed": false,
          "internalType": "uint256",
          "name": "tokenId",
          "type": "uint256"
        },
        {
          "indexed": false,
          "internalType": "address",
          "name": "_owner",
          "type": "address"
        },
        {
          "indexed": false,
          "internalType": "uint8",
          "name": "level",
          "type": "uint8"
        }
      ],
      "name": "Leveling",
      "type": "event"
    },
    {
      "anonymous": false,
      "inputs": [
        {
          "indexed": false,
          "internalType": "uint256",
          "name": "tokenId",
          "type": "uint256"
        },
        {
          "indexed": false,
          "internalType": "address",
          "name": "_owner",
          "type": "address"
        },
        {
          "components": [
            {
              "internalType": "uint256",
              "name": "id",
              "type": "uint256"
            },
            {
              "internalType": "uint16",
              "name": "durability",
              "type": "uint16"
            },
            {
              "internalType": "uint16",
              "name": "hp",
              "type": "uint16"
            },
            {
              "internalType": "uint8[2]",
              "name": "speed",
              "type": "uint8[2]"
            },
            {
              "components": [
                {
                  "internalType": "uint256",
                  "name": "efficiency",
                  "type": "uint256"
                },
                {
                  "internalType": "uint256",
                  "name": "luck",
                  "type": "uint256"
                },
                {
                  "internalType": "uint256",
                  "name": "comfort",
                  "type": "uint256"
                },
                {
                  "internalType": "uint256",
                  "name": "resilience",
                  "type": "uint256"
                }
              ],
              "internalType": "struct SneakerNFT.SneakerAttributes",
              "name": "attributes",
              "type": "tuple"
            },
            {
              "internalType": "address",
              "name": "owner",
              "type": "address"
            },
            {
              "internalType": "uint8",
              "name": "level",
              "type": "uint8"
            },
            {
              "internalType": "enum Constants.Quality",
              "name": "quality",
              "type": "uint8"
            },
            {
              "internalType": "enum Constants.SneakerType",
              "name": "sneakerType",
              "type": "uint8"
            },
            {
              "internalType": "uint8",
              "name": "mintCount",
              "type": "uint8"
            },
            {
              "internalType": "uint256[]",
              "name": "mintFrom",
              "type": "uint256[]"
            },
            {
              "internalType": "bool",
              "name": "isEarningGMT",
              "type": "bool"
            },
            {
              "internalType": "uint256",
              "name": "coolingTime",
              "type": "uint256"
            },
            {
              "internalType": "uint256[]",
              "name": "sockets",
              "type": "uint256[]"
            }
          ],
          "indexed": false,
          "internalType": "struct SneakerNFT.Sneaker",
          "name": "sneaker",
          "type": "tuple"
        }
      ],
      "name": "MintSneaker",
      "type": "event"
    },
    {
      "anonymous": false,
      "inputs": [
        {
          "indexed": true,
          "internalType": "address",
          "name": "previousOwner",
          "type": "address"
        },
        {
          "indexed": true,
          "internalType": "address",
          "name": "newOwner",
          "type": "address"
        }
      ],
      "name": "OwnershipTransferred",
      "type": "event"
    },
    {
      "anonymous": false,
      "inputs": [
        {
          "indexed": false,
          "internalType": "address",
          "name": "_owner",
          "type": "address"
        },
        {
          "indexed": false,
          "internalType": "uint256",
          "name": "tokenId",
          "type": "uint256"
        },
        {
          "indexed": false,
          "internalType": "uint256",
          "name": "cost",
          "type": "uint256"
        }
      ],
      "name": "RepairSneaker",
      "type": "event"
    },
    {
      "anonymous": false,
      "inputs": [
        {
          "indexed": false,
          "internalType": "uint256",
          "name": "tokenId",
          "type": "uint256"
        },
        {
          "indexed": false,
          "internalType": "uint8",
          "name": "durabilityDecay",
          "type": "uint8"
        },
        {
          "indexed": false,
          "internalType": "uint8",
          "name": "hpDecay",
          "type": "uint8"
        }
      ],
      "name": "SneakerDecay",
      "type": "event"
    },
    {
      "anonymous": false,
      "inputs": [
        {
          "indexed": true,
          "internalType": "address",
          "name": "from",
          "type": "address"
        },
        {
          "indexed": true,
          "internalType": "address",
          "name": "to",
          "type": "address"
        },
        {
          "indexed": true,
          "internalType": "uint256",
          "name": "tokenId",
          "type": "uint256"
        }
      ],
      "name": "Transfer",
      "type": "event"
    },
    {
      "anonymous": false,
      "inputs": [
        {
          "indexed": false,
          "internalType": "address",
          "name": "_from",
          "type": "address"
        },
        {
          "indexed": false,
          "internalType": "address",
          "name": "_to",
          "type": "address"
        },
        {
          "indexed": false,
          "internalType": "uint256",
          "name": "tokenId",
          "type": "uint256"
        }
      ],
      "name": "TransferSneaker",
      "type": "event"
    },
    {
      "inputs": [
        {
          "internalType": "enum Constants.Quality",
          "name": "_quality",
          "type": "uint8"
        }
      ],
      "name": "_getExtraAttributeFromQuality",
      "outputs": [
        {
          "internalType": "uint8",
          "name": "_extraAttribute",
          "type": "uint8"
        }
      ],
      "stateMutability": "pure",
      "type": "function"
    },
    {
      "inputs": [
        {
          "internalType": "address",
          "name": "to",
          "type": "address"
        },
        {
          "internalType": "uint256",
          "name": "tokenId",
          "type": "uint256"
        }
      ],
      "name": "approve",
      "outputs": [],
      "stateMutability": "nonpayable",
      "type": "function"
    },
    {
      "inputs": [
        {
          "internalType": "address",
          "name": "owner",
          "type": "address"
        }
      ],
      "name": "balanceOf",
      "outputs": [
        {
          "internalType": "uint256",
          "name": "",
          "type": "uint256"
        }
      ],
      "stateMutability": "view",
      "type": "function"
    },
    {
      "inputs": [
        {
          "internalType": "uint256",
          "name": "_tokenId",
          "type": "uint256"
        }
      ],
      "name": "burnSneaker",
      "outputs": [],
      "stateMutability": "nonpayable",
      "type": "function"
    },
    {
      "inputs": [
        {
          "internalType": "uint256",
          "name": "_tokenId",
          "type": "uint256"
        },
        {
          "internalType": "uint8",
          "name": "_durabilityDecay",
          "type": "uint8"
        },
        {
          "internalType": "uint8",
          "name": "hpDecay",
          "type": "uint8"
        }
      ],
      "name": "decaySneaker",
      "outputs": [],
      "stateMutability": "nonpayable",
      "type": "function"
    },
    {
      "inputs": [
        {
          "internalType": "uint256",
          "name": "_tokenId",
          "type": "uint256"
        },
        {
          "internalType": "uint256",
          "name": "_gemId",
          "type": "uint256"
        },
        {
          "internalType": "uint8",
          "name": "_socketSlot",
          "type": "uint8"
        }
      ],
      "name": "equipGem",
      "outputs": [],
      "stateMutability": "nonpayable",
      "type": "function"
    },
    {
      "inputs": [
        {
          "internalType": "uint256",
          "name": "tokenId",
          "type": "uint256"
        }
      ],
      "name": "getApproved",
      "outputs": [
        {
          "internalType": "address",
          "name": "",
          "type": "address"
        }
      ],
      "stateMutability": "view",
      "type": "function"
    },
    {
      "inputs": [
        {
          "internalType": "uint256",
          "name": "_tokenId",
          "type": "uint256"
        }
      ],
      "name": "getAttributesOfSneaker",
      "outputs": [
        {
          "components": [
            {
              "internalType": "uint256",
              "name": "efficiency",
              "type": "uint256"
            },
            {
              "internalType": "uint256",
              "name": "luck",
              "type": "uint256"
            },
            {
              "internalType": "uint256",
              "name": "comfort",
              "type": "uint256"
            },
            {
              "internalType": "uint256",
              "name": "resilience",
              "type": "uint256"
            }
          ],
          "internalType": "struct SneakerNFT.SneakerAttributes",
          "name": "attributes",
          "type": "tuple"
        }
      ],
      "stateMutability": "view",
      "type": "function"
    },
    {
      "inputs": [],
      "name": "getDecimal",
      "outputs": [
        {
          "internalType": "uint8",
          "name": "",
          "type": "uint8"
        }
      ],
      "stateMutability": "view",
      "type": "function"
    },
    {
      "inputs": [],
      "name": "getIdCounter",
      "outputs": [
        {
          "internalType": "uint256",
          "name": "",
          "type": "uint256"
        }
      ],
      "stateMutability": "view",
      "type": "function"
    },
    {
      "inputs": [
        {
          "internalType": "uint256",
          "name": "_tokenId",
          "type": "uint256"
        }
      ],
      "name": "getOwnerOfSneaker",
      "outputs": [
        {
          "internalType": "address",
          "name": "owner",
          "type": "address"
        }
      ],
      "stateMutability": "view",
      "type": "function"
    },
    {
      "inputs": [
        {
          "internalType": "uint256",
          "name": "_tokenId",
          "type": "uint256"
        }
      ],
      "name": "getQualityNType",
      "outputs": [
        {
          "components": [
            {
              "internalType": "enum Constants.Quality",
              "name": "quality",
              "type": "uint8"
            },
            {
              "internalType": "enum Constants.SneakerType",
              "name": "sneakerType",
              "type": "uint8"
            }
          ],
          "internalType": "struct SneakerNFT.QualityNType",
          "name": "result",
          "type": "tuple"
        }
      ],
      "stateMutability": "view",
      "type": "function"
    },
    {
      "inputs": [
        {
          "internalType": "uint256",
          "name": "_tokenId",
          "type": "uint256"
        }
      ],
      "name": "getSneaker",
      "outputs": [
        {
          "components": [
            {
              "internalType": "uint256",
              "name": "id",
              "type": "uint256"
            },
            {
              "internalType": "uint16",
              "name": "durability",
              "type": "uint16"
            },
            {
              "internalType": "uint16",
              "name": "hp",
              "type": "uint16"
            },
            {
              "internalType": "uint8[2]",
              "name": "speed",
              "type": "uint8[2]"
            },
            {
              "components": [
                {
                  "internalType": "uint256",
                  "name": "efficiency",
                  "type": "uint256"
                },
                {
                  "internalType": "uint256",
                  "name": "luck",
                  "type": "uint256"
                },
                {
                  "internalType": "uint256",
                  "name": "comfort",
                  "type": "uint256"
                },
                {
                  "internalType": "uint256",
                  "name": "resilience",
                  "type": "uint256"
                }
              ],
              "internalType": "struct SneakerNFT.SneakerAttributes",
              "name": "attributes",
              "type": "tuple"
            },
            {
              "internalType": "address",
              "name": "owner",
              "type": "address"
            },
            {
              "internalType": "uint8",
              "name": "level",
              "type": "uint8"
            },
            {
              "internalType": "enum Constants.Quality",
              "name": "quality",
              "type": "uint8"
            },
            {
              "internalType": "enum Constants.SneakerType",
              "name": "sneakerType",
              "type": "uint8"
            },
            {
              "internalType": "uint8",
              "name": "mintCount",
              "type": "uint8"
            },
            {
              "internalType": "uint256[]",
              "name": "mintFrom",
              "type": "uint256[]"
            },
            {
              "internalType": "bool",
              "name": "isEarningGMT",
              "type": "bool"
            },
            {
              "internalType": "uint256",
              "name": "coolingTime",
              "type": "uint256"
            },
            {
              "internalType": "uint256[]",
              "name": "sockets",
              "type": "uint256[]"
            }
          ],
          "internalType": "struct SneakerNFT.Sneaker",
          "name": "sneaker",
          "type": "tuple"
        }
      ],
      "stateMutability": "view",
      "type": "function"
    },
    {
      "inputs": [
        {
          "internalType": "address",
          "name": "_gstToken",
          "type": "address"
        },
        {
          "internalType": "address",
          "name": "_gmtToken",
          "type": "address"
        },
        {
          "internalType": "address",
          "name": "_igem",
          "type": "address"
        },
        {
          "internalType": "address",
          "name": "_iShoeBox",
          "type": "address"
        },
        {
          "internalType": "address",
          "name": "_iMove2Earn",
          "type": "address"
        }
      ],
      "name": "initialize",
      "outputs": [],
      "stateMutability": "nonpayable",
      "type": "function"
    },
    {
      "inputs": [
        {
          "internalType": "address",
          "name": "owner",
          "type": "address"
        },
        {
          "internalType": "address",
          "name": "operator",
          "type": "address"
        }
      ],
      "name": "isApprovedForAll",
      "outputs": [
        {
          "internalType": "bool",
          "name": "",
          "type": "bool"
        }
      ],
      "stateMutability": "view",
      "type": "function"
    },
    {
      "inputs": [
        {
          "internalType": "uint256",
          "name": "_tokenId",
          "type": "uint256"
        }
      ],
      "name": "levelingSneaker",
      "outputs": [],
      "stateMutability": "nonpayable",
      "type": "function"
    },
    {
      "inputs": [
        {
          "internalType": "address",
          "name": "_sender",
          "type": "address"
        },
        {
          "internalType": "enum Constants.Quality",
          "name": "_quality",
          "type": "uint8"
        },
        {
          "internalType": "enum Constants.SneakerType",
          "name": "_type",
          "type": "uint8"
        },
        {
          "internalType": "uint256[]",
          "name": "mintFrom",
          "type": "uint256[]"
        }
      ],
      "name": "mint",
      "outputs": [],
      "stateMutability": "nonpayable",
      "type": "function"
    },
    {
      "inputs": [],
      "name": "name",
      "outputs": [
        {
          "internalType": "string",
          "name": "",
          "type": "string"
        }
      ],
      "stateMutability": "view",
      "type": "function"
    },
    {
      "inputs": [],
      "name": "owner",
      "outputs": [
        {
          "internalType": "address",
          "name": "",
          "type": "address"
        }
      ],
      "stateMutability": "view",
      "type": "function"
    },
    {
      "inputs": [
        {
          "internalType": "uint256",
          "name": "tokenId",
          "type": "uint256"
        }
      ],
      "name": "ownerOf",
      "outputs": [
        {
          "internalType": "address",
          "name": "",
          "type": "address"
        }
      ],
      "stateMutability": "view",
      "type": "function"
    },
    {
      "inputs": [],
      "name": "renounceOwnership",
      "outputs": [],
      "stateMutability": "nonpayable",
      "type": "function"
    },
    {
      "inputs": [
        {
          "internalType": "uint256",
          "name": "_tokenId",
          "type": "uint256"
        }
      ],
      "name": "repairSneaker",
      "outputs": [],
      "stateMutability": "nonpayable",
      "type": "function"
    },
    {
      "inputs": [
        {
          "internalType": "address",
          "name": "from",
          "type": "address"
        },
        {
          "internalType": "address",
          "name": "to",
          "type": "address"
        },
        {
          "internalType": "uint256",
          "name": "tokenId",
          "type": "uint256"
        }
      ],
      "name": "safeTransferFrom",
      "outputs": [],
      "stateMutability": "nonpayable",
      "type": "function"
    },
    {
      "inputs": [
        {
          "internalType": "address",
          "name": "from",
          "type": "address"
        },
        {
          "internalType": "address",
          "name": "to",
          "type": "address"
        },
        {
          "internalType": "uint256",
          "name": "tokenId",
          "type": "uint256"
        },
        {
          "internalType": "bytes",
          "name": "data",
          "type": "bytes"
        }
      ],
      "name": "safeTransferFrom",
      "outputs": [],
      "stateMutability": "nonpayable",
      "type": "function"
    },
    {
      "inputs": [
        {
          "internalType": "address",
          "name": "operator",
          "type": "address"
        },
        {
          "internalType": "bool",
          "name": "approved",
          "type": "bool"
        }
      ],
      "name": "setApprovalForAll",
      "outputs": [],
      "stateMutability": "nonpayable",
      "type": "function"
    },
    {
      "inputs": [
        {
          "internalType": "address",
          "name": "_iRandom",
          "type": "address"
        }
      ],
      "name": "setIRandom",
      "outputs": [],
      "stateMutability": "nonpayable",
      "type": "function"
    },
    {
      "inputs": [
        {
          "internalType": "uint256",
          "name": "_tokenId",
          "type": "uint256"
        },
        {
          "internalType": "bool",
          "name": "_isEarningGMT",
          "type": "bool"
        }
      ],
      "name": "setIsEarningGMT",
      "outputs": [],
      "stateMutability": "nonpayable",
      "type": "function"
    },
    {
      "inputs": [
        {
          "internalType": "bytes4",
          "name": "interfaceId",
          "type": "bytes4"
        }
      ],
      "name": "supportsInterface",
      "outputs": [
        {
          "internalType": "bool",
          "name": "",
          "type": "bool"
        }
      ],
      "stateMutability": "view",
      "type": "function"
    },
    {
      "inputs": [],
      "name": "symbol",
      "outputs": [
        {
          "internalType": "string",
          "name": "",
          "type": "string"
        }
      ],
      "stateMutability": "view",
      "type": "function"
    },
    {
      "inputs": [
        {
          "internalType": "uint256",
          "name": "index",
          "type": "uint256"
        }
      ],
      "name": "tokenByIndex",
      "outputs": [
        {
          "internalType": "uint256",
          "name": "",
          "type": "uint256"
        }
      ],
      "stateMutability": "view",
      "type": "function"
    },
    {
      "inputs": [
        {
          "internalType": "address",
          "name": "owner",
          "type": "address"
        },
        {
          "internalType": "uint256",
          "name": "index",
          "type": "uint256"
        }
      ],
      "name": "tokenOfOwnerByIndex",
      "outputs": [
        {
          "internalType": "uint256",
          "name": "",
          "type": "uint256"
        }
      ],
      "stateMutability": "view",
      "type": "function"
    },
    {
      "inputs": [
        {
          "internalType": "uint256",
          "name": "tokenId",
          "type": "uint256"
        }
      ],
      "name": "tokenURI",
      "outputs": [
        {
          "internalType": "string",
          "name": "",
          "type": "string"
        }
      ],
      "stateMutability": "view",
      "type": "function"
    },
    {
      "inputs": [],
      "name": "totalSupply",
      "outputs": [
        {
          "internalType": "uint256",
          "name": "",
          "type": "uint256"
        }
      ],
      "stateMutability": "view",
      "type": "function"
    },
    {
      "inputs": [
        {
          "internalType": "address",
          "name": "from",
          "type": "address"
        },
        {
          "internalType": "address",
          "name": "to",
          "type": "address"
        },
        {
          "internalType": "uint256",
          "name": "tokenId",
          "type": "uint256"
        }
      ],
      "name": "transferFrom",
      "outputs": [],
      "stateMutability": "nonpayable",
      "type": "function"
    },
    {
      "inputs": [
        {
          "internalType": "address",
          "name": "newOwner",
          "type": "address"
        }
      ],
      "name": "transferOwnership",
      "outputs": [],
      "stateMutability": "nonpayable",
      "type": "function"
    },
    {
      "inputs": [
        {
          "internalType": "address",
          "name": "_from",
          "type": "address"
        },
        {
          "internalType": "address",
          "name": "_to",
          "type": "address"
        },
        {
          "internalType": "uint256",
          "name": "_tokenId",
          "type": "uint256"
        }
      ],
      "name": "transferSneaker",
      "outputs": [],
      "stateMutability": "nonpayable",
      "type": "function"
    },
    {
      "inputs": [
        {
          "internalType": "uint256",
          "name": "_tokenId",
          "type": "uint256"
        }
      ],
      "name": "updateMintCount",
      "outputs": [],
      "stateMutability": "nonpayable",
      "type": "function"
    },
    {
      "inputs": [
        {
          "internalType": "address",
          "name": "_user",
          "type": "address"
        },
        {
          "internalType": "uint256",
          "name": "_GSTTokenAmount",
          "type": "uint256"
        },
        {
          "internalType": "uint256",
          "name": "_GMTTokenAmount",
          "type": "uint256"
        }
      ],
      "name": "userReward",
      "outputs": [],
      "stateMutability": "nonpayable",
      "type": "function"
    }
  ],
  "bytecode": "0x60806040526011805460ff1916600a1790553480156200001e57600080fd5b5060405162005258380380620052588339810160408190526200004191620001d7565b604080518082018252600781526629a722a0a5a2a960c91b602080830191825283518085019094526003845262534e4b60e81b9084015281518493916200008c916000919062000131565b508051620000a290600190602084019062000131565b5050600a80546001600160a01b0319166001600160a01b03939093169290921790915550620000d8620000d23390565b620000df565b5062000244565b600b80546001600160a01b038381166001600160a01b0319831681179093556040519116919082907f8be0079c531659141344cd1fd0a4f28419497f9722a3daafe3b4186f6b6457e090600090a35050565b8280546200013f9062000207565b90600052602060002090601f016020900481019282620001635760008555620001ae565b82601f106200017e57805160ff1916838001178555620001ae565b82800160010185558215620001ae579182015b82811115620001ae57825182559160200191906001019062000191565b50620001bc929150620001c0565b5090565b5b80821115620001bc5760008155600101620001c1565b600060208284031215620001e9578081fd5b81516001600160a01b038116811462000200578182fd5b9392505050565b6002810460018216806200021c57607f821691505b602082108114156200023e57634e487b7160e01b600052602260045260246000fd5b50919050565b61500480620002546000396000f3fe608060405234801561001057600080fd5b50600436106102325760003560e01c80636976fc5311610130578063b88d4fde116100b8578063e3f6ff861161007c578063e3f6ff8614610501578063e985e9c514610514578063f2fde38b14610550578063f4408adf14610563578063f60372c51461057657610232565b8063b88d4fde14610495578063c43f27be146104a8578063c87b56dd146104bb578063dd594779146104ce578063e1d5c632146104ee57610232565b8063837c5d72116100ff578063837c5d7214610429578063864b82da146104495780638da5cb5b1461046957806395d89b411461047a578063a22cb4651461048257610232565b80636976fc53146103e857806370a08231146103fb578063715018a61461040e5780637356a2df1461041657610232565b80632b147765116101be578063364bfe2611610182578063364bfe261461036c57806342842e0e1461039c5780634f6ccce7146103af5780634fb8d3b4146103c25780636352211e146103d557610232565b80632b147765146103075780632b15150f1461031a5780632f745c591461032d57806334ce10c414610340578063362124801461035957610232565b8063095ea7b311610205578063095ea7b3146102b45780630ca9203d146102c75780631459457a146102d957806318160ddd146102ec57806323b872dd146102f457610232565b806301ffc9a71461023757806305c969aa1461025f57806306fdde0314610274578063081812fc14610289575b600080fd5b61024a6102453660046146bc565b610589565b60405190151581526020015b60405180910390f35b61027261026d36600461478f565b6105b6565b005b61027c610782565b6040516102569190614ada565b61029c61029736600461478f565b610814565b6040516001600160a01b039091168152602001610256565b6102726102c2366004614641565b61083b565b6010545b604051908152602001610256565b6102726102e73660046143cb565b610951565b6008546102cb565b61027261030236600461443b565b610a68565b61027261031536600461478f565b610a99565b61027261032836600461443b565b610bb9565b6102cb61033b366004614641565b610dff565b60115460ff165b60405160ff9091168152602001610256565b610272610367366004614564565b610e98565b61027261037a36600461435b565b600a80546001600160a01b0319166001600160a01b0392909216919091179055565b6102726103aa36600461443b565b61139a565b6102cb6103bd36600461478f565b6113b5565b6102726103d036600461478f565b611456565b61029c6103e336600461478f565b611674565b6102726103f63660046147e3565b6116d4565b6102cb61040936600461435b565b612386565b61027261240c565b61027261042436600461466c565b612420565b61043c61043736600461478f565b6125c6565b6040516102569190614bea565b61045c61045736600461478f565b61266b565b6040516102569190614c16565b600b546001600160a01b031661029c565b61027c6126de565b610272610490366004614537565b6126ed565b6102726104a336600461447b565b6126fc565b6102726104b636600461478f565b61272e565b61027c6104c936600461478f565b612873565b6104e16104dc36600461478f565b6128e7565b6040516102569190614c41565b6103476104fc3660046146f4565b612b77565b61027261050f3660046147bf565b612c68565b61024a610522366004614393565b6001600160a01b03918216600090815260056020908152604080832093909416825291909152205460ff1690565b61027261055e36600461435b565b612d77565b61027261057136600461481b565b612df0565b61029c61058436600461478f565b613030565b60006001600160e01b0319821663780e9d6360e01b14806105ae57506105ae8261303b565b90505b919050565b806105c081611674565b6001600160a01b0316336001600160a01b0316146105f95760405162461bcd60e51b81526004016105f090614b3f565b60405180910390fd5b600082815260126020526040812060010154662386f26fc10000906106299062010000900461ffff166064614e11565b61ffff166106379190614df2565b600084815260126020526040902060010154662386f26fc10000906106619061ffff166064614e11565b61ffff1661066f9190614df2565b6106799190614caf565b600c546040516323b872dd60e01b81529192506001600160a01b0316906323b872dd906106ae90339030908690600401614a79565b602060405180830381600087803b1580156106c857600080fd5b505af11580156106dc573d6000803e3d6000fd5b505050506040513d601f19601f8201168201806040525081019061070091906146a0565b5060008381526012602052604090206001018054606461ffff199091161763ffff00001916626400001790557f083a73924aef10619013c731979f0e7d000e22ebe506c1e3a89fd71a803e959a6107543390565b604080516001600160a01b0390921682526020820186905281018390526060015b60405180910390a1505050565b60606000805461079190614e77565b80601f01602080910402602001604051908101604052809291908181526020018280546107bd90614e77565b801561080a5780601f106107df5761010080835404028352916020019161080a565b820191906000526020600020905b8154815290600101906020018083116107ed57829003601f168201915b5050505050905090565b600061081f8261308b565b506000908152600460205260409020546001600160a01b031690565b600061084682611674565b9050806001600160a01b0316836001600160a01b031614156108b45760405162461bcd60e51b815260206004820152602160248201527f4552433732313a20617070726f76616c20746f2063757272656e74206f776e656044820152603960f91b60648201526084016105f0565b336001600160a01b03821614806108d057506108d08133610522565b6109425760405162461bcd60e51b815260206004820152603e60248201527f4552433732313a20617070726f76652063616c6c6572206973206e6f7420746f60448201527f6b656e206f776e6572206e6f7220617070726f76656420666f7220616c6c000060648201526084016105f0565b61094c83836130ea565b505050565b610959613158565b6001600160a01b0385161580159061097957506001600160a01b03841615155b801561098d57506001600160a01b03831615155b6109d95760405162461bcd60e51b815260206004820152601760248201527f61646472657373203078206973206e6f742076616c696400000000000000000060448201526064016105f0565b600c80546001600160a01b03199081166001600160a01b0397881617909155600d8054821695871695909517909455600e805485169386169384179055600f8054909416908516908117909355600091825260136020526040808320805460ff199081166001908117909255929095168352808320805483168617905592825291902080549091169091179055565b610a7233826131b2565b610a8e5760405162461bcd60e51b81526004016105f090614b9c565b61094c838383613231565b80610aa381611674565b6001600160a01b0316336001600160a01b031614610ad35760405162461bcd60e51b81526004016105f090614b3f565b610adc826133d8565b600082815260126020526040812081815560018101805463ffffffff1916905560028101829055600381018290556004810182905560058101829055600681018290556007810180546001600160c01b031916905590610b3f60088301826140f0565b60098201805460ff191690556000600a8301819055610b6290600b8401906140f0565b50507fd654df5c4345731ce3f4d414176e888da7f05f73dd610cedcc74cbae5a9aec9d82610b8d3390565b604080519283526001600160a01b03909116602083015242908201526060015b60405180910390a15050565b6000818152601260205260409020610bd2848484610a68565b7ffcb70461689af9da262d3e2ac94316ee4774008a90786aee24b28d5a6b28649e848484604051610c0593929190614a79565b60405180910390a16007810180546001600160a01b0385166001600160a01b031990911617905560008281526012602052604090208154815560018083018054918301805461ffff191661ffff938416178082559154620100009081900490931690920263ffff0000199091161790558190610c896002808301908085019061410e565b50600382810154908201556004808301548183015560058084015490830155600680840154908301556007808401805491840180546001600160a01b0319166001600160a01b0390931692909217808355815460ff600160a01b91829004811690910260ff60a01b19909216919091178084559154600160a81b908190049091169360ff60a81b19909216918490811115610d3457634e487b7160e01b600052602160045260246000fd5b0217905550600782810154908201805460ff600160b01b93849004169260ff60b01b1990911690836003811115610d7b57634e487b7160e01b600052602160045260246000fd5b0217905550600782810154908201805460ff60b81b1916600160b81b9283900460ff1690920291909117905560088083018054610dbb9284019190614151565b50600982810154908201805460ff191660ff9092161515919091179055600a8083015490820155600b8083018054610df69284019190614151565b50505050505050565b6000610e0a83612386565b8210610e6c5760405162461bcd60e51b815260206004820152602b60248201527f455243373231456e756d657261626c653a206f776e657220696e646578206f7560448201526a74206f6620626f756e647360a81b60648201526084016105f0565b506001600160a01b03821660009081526006602090815260408083208484529091529020545b92915050565b600b546001600160a01b0316331480610ec057503360009081526013602052604090205460ff165b610f1b5760405162461bcd60e51b815260206004820152602660248201527f536e65616b65724e46543a20556e617574686f72697a656420746f204620536e60448201526565616b65727360d01b60648201526084016105f0565b600080600080610f2a87613480565b604080516080810190915260115494985092965090945092506000918190610f569060ff16600a614d21565b610f649061ffff8916614df2565b8152601154602090910190610f7d9060ff16600a614d21565b610f8b9061ffff8816614df2565b8152601154602090910190610fa49060ff16600a614d21565b610fb29061ffff8716614df2565b8152601154602090910190610fcb9060ff16600a614d21565b610fd99061ffff8616614df2565b90529050600080610fe9896134f0565b915091506000604051806101c001604052806010548152602001606461ffff168152602001606461ffff16815260200160405180604001604052808660ff1660ff1681526020018560ff1660ff1681525081526020018581526020018d6001600160a01b03168152602001600160ff1681526020018c600481111561107e57634e487b7160e01b600052602160045260246000fd5b81526020018b60038111156110a357634e487b7160e01b600052602160045260246000fd5b8152600060208201819052604082018c905260608201819052608082015260a00160046040519080825280602002602001820160405280156110ef578160200160208202803683370190505b50905260105460009081526012602090815260409182902083518155908301516001820180549385015161ffff908116620100000263ffff0000199190931661ffff199095169490941793909316179091556060820151919250829161115b9060028084019190614190565b50608082015180516003830155602081015160048084019190915560408201516005840155606090910151600683015560a083015160078301805460c086015160ff16600160a01b0260ff60a01b196001600160a01b039094166001600160a01b031990921691909117929092169190911780825560e08501519260ff60a81b1990911690600160a81b90849081111561120557634e487b7160e01b600052602160045260246000fd5b021790555061010082015160078201805460ff60b01b1916600160b01b83600381111561124257634e487b7160e01b600052602160045260246000fd5b021790555061012082015160078201805460ff909216600160b81b0260ff60b81b19909216919091179055610140820151805161128991600884019160209091019061421e565b5061016082015160098201805460ff1916911515919091179055610180820151600a8201556101a082015180516112ca91600b84019160209091019061421e565b509050506112da8c601054613544565b7f7ca98438e268231a76f9efac6f45f5f0fa237484843ed6441784a1bb47af514a6010548d8360405161130f93929190614c54565b60405180910390a1600f546040516301d53ebd60e61b81526001600160a01b038e811660048301529091169063754faf4090602401600060405180830381600087803b15801561135e57600080fd5b505af1158015611372573d6000803e3d6000fd5b50506010805492509050600061138783614eb2565b9190505550505050505050505050505050565b61094c838383604051806020016040528060008152506126fc565b60006113c060085490565b82106114235760405162461bcd60e51b815260206004820152602c60248201527f455243373231456e756d657261626c653a20676c6f62616c20696e646578206f60448201526b7574206f6620626f756e647360a01b60648201526084016105f0565b6008828154811061144457634e487b7160e01b600052603260045260246000fd5b90600052602060002001549050919050565b8061146081611674565b6001600160a01b0316336001600160a01b0316146114905760405162461bcd60e51b81526004016105f090614b3f565b600082815260126020526040902060070154601e600160a01b90910460ff16106114fc5760405162461bcd60e51b815260206004820152601d60248201527f536e65616b65724e46543a204d6178206c6576656c207265616368656400000060448201526064016105f0565b600c546001600160a01b03166323b872dd3330670de0b6b3a76400006040518463ffffffff1660e01b815260040161153693929190614a79565b602060405180830381600087803b15801561155057600080fd5b505af1158015611564573d6000803e3d6000fd5b505050506040513d601f19601f8201168201806040525081019061158891906146a0565b5060008281526012602052604090206007018054600160a01b900460ff169060146115b283614ecd565b825460ff9182166101009390930a928302928202191691909117909155600084815260126020526040902060070154600160a01b900416601e14159050611610576000828152601260205260409020600901805460ff191660011790555b7f3e4a641e70b9f37722c669815fb643bafd957b9d0f103d5b350f6a09127cc11f82336000858152601260209081526040918290206007015482519485526001600160a01b0390931690840152600160a01b90910460ff1690820152606001610bad565b6000818152600260205260408120546001600160a01b0316806105ae5760405162461bcd60e51b8152602060048201526018602482015277115490cdcc8c4e881a5b9d985b1a59081d1bdad95b88125160421b60448201526064016105f0565b826116de81611674565b6001600160a01b0316336001600160a01b03161461170e5760405162461bcd60e51b81526004016105f090614b3f565b33600e5460405163c3ae0d7f60e01b8152600481018690526001600160a01b03928316929091169063c3ae0d7f9060240160206040518083038186803b15801561175757600080fd5b505afa15801561176b573d6000803e3d6000fd5b505050506040513d601f19601f8201168201806040525081019061178f9190614377565b6001600160a01b0316146117f05760405162461bcd60e51b815260206004820152602260248201527f536e65616b65724e46543a20596f7520646f6e2774206f776e20746869732067604482015261656d60f01b60648201526084016105f0565b600084815260126020526040902060ff83166118705760078101546005600160a01b90910460ff1610156118705760405162461bcd60e51b81526020600482015260336024820152600080516020614faf8339815191526044820152726c203520746f2075736520736f636b6574203160681b60648201526084016105f0565b8260ff16600114156118e7576007810154600a600160a01b90910460ff1610156118e75760405162461bcd60e51b81526020600482015260346024820152600080516020614faf83398151915260448201527336101898103a37903ab9b29039b7b1b5b2ba101960611b60648201526084016105f0565b8260ff166002141561195e576007810154600f600160a01b90910460ff16101561195e5760405162461bcd60e51b81526020600482015260346024820152600080516020614faf8339815191526044820152736c20313520746f2075736520736f636b6574203360601b60648201526084016105f0565b8260ff16600314156119d55760078101546014600160a01b90910460ff1610156119d55760405162461bcd60e51b81526020600482015260346024820152600080516020614faf8339815191526044820152731b080c8c081d1bc81d5cd9481cdbd8dad95d080d60621b60648201526084016105f0565b600c546001600160a01b03166323b872dd3330670de0b6b3a76400006040518463ffffffff1660e01b8152600401611a0f93929190614a79565b602060405180830381600087803b158015611a2957600080fd5b505af1158015611a3d573d6000803e3d6000fd5b505050506040513d601f19601f82011682018060405250810190611a6191906146a0565b5080600b018360ff1681548110611a8857634e487b7160e01b600052603260045260246000fd5b9060005260206000200154600014611f95578381600b018460ff1681548110611ac157634e487b7160e01b600052603260045260246000fd5b90600052602060002001541415611b265760405162461bcd60e51b815260206004820152602360248201527f536e65616b65724e46543a2047656d20697320616c72656164792065717569706044820152621c195960ea1b60648201526084016105f0565b600e54600b820180546000926001600160a01b03169163aa723bb79160ff8816908110611b6357634e487b7160e01b600052603260045260246000fd5b90600052602060002001546040518263ffffffff1660e01b8152600401611b8c91815260200190565b60c06040518083038186803b158015611ba457600080fd5b505afa158015611bb8573d6000803e3d6000fd5b505050506040513d601f19601f82011682018060405250810190611bdc919061470e565b60600151600e54600b840180549293506000926001600160a01b039092169163aa723bb7919060ff8916908110611c2357634e487b7160e01b600052603260045260246000fd5b90600052602060002001546040518263ffffffff1660e01b8152600401611c4c91815260200190565b60c06040518083038186803b158015611c6457600080fd5b505afa158015611c78573d6000803e3d6000fd5b505050506040513d601f19601f82011682018060405250810190611c9c919061470e565b60a0015161ffff1690506000600e60009054906101000a90046001600160a01b03166001600160a01b031663aa723bb785600b018860ff1681548110611cf257634e487b7160e01b600052603260045260246000fd5b90600052602060002001546040518263ffffffff1660e01b8152600401611d1b91815260200190565b60c06040518083038186803b158015611d3357600080fd5b505afa158015611d47573d6000803e3d6000fd5b505050506040513d601f19601f82011682018060405250810190611d6b919061470e565b6080015161ffff1690506000836003811115611d9757634e487b7160e01b600052602160045260246000fd5b1415611dd257601154611dae9060ff16600a614d21565b611db89082614df2565b600385018054600090611dcc908490614e34565b90915550505b6003836003811115611df457634e487b7160e01b600052602160045260246000fd5b1415611e2f57601154611e0b9060ff16600a614d21565b611e159082614df2565b600685018054600090611e29908490614e34565b90915550505b6001836003811115611e5157634e487b7160e01b600052602160045260246000fd5b1415611e8c57601154611e689060ff16600a614d21565b611e729082614df2565b600485018054600090611e86908490614e34565b90915550505b6002836003811115611eae57634e487b7160e01b600052602160045260246000fd5b1415611ee957601154611ec59060ff16600a614d21565b611ecf9082614df2565b600585018054600090611ee3908490614e34565b90915550505b611ef4826064614caf565b6003850154611f04906064614df2565b611f0e9190614cc7565b6003850155611f1e826064614caf565b6006850154611f2e906064614df2565b611f389190614cc7565b6006850155611f48826064614caf565b6004850154611f58906064614df2565b611f629190614cc7565b6004850155611f72826064614caf565b6005850154611f82906064614df2565b611f8c9190614cc7565b60058501555050505b600e5460405163aa723bb760e01b8152600481018690526000916001600160a01b03169063aa723bb79060240160c06040518083038186803b158015611fda57600080fd5b505afa158015611fee573d6000803e3d6000fd5b505050506040513d601f19601f82011682018060405250810190612012919061470e565b60600151600e5460405163aa723bb760e01b8152600481018890529192506000916001600160a01b039091169063aa723bb79060240160c06040518083038186803b15801561206057600080fd5b505afa158015612074573d6000803e3d6000fd5b505050506040513d601f19601f82011682018060405250810190612098919061470e565b60a00151600e5460405163aa723bb760e01b81526004810189905261ffff90921692506000916001600160a01b039091169063aa723bb79060240160c06040518083038186803b1580156120eb57600080fd5b505afa1580156120ff573d6000803e3d6000fd5b505050506040513d601f19601f82011682018060405250810190612123919061470e565b6080015161ffff16905060646121398382614caf565b60038601546121489190614df2565b6121529190614cc7565b600385015560646121638382614caf565b60068601546121729190614df2565b61217c9190614cc7565b6006850155606461218d8382614caf565b600486015461219c9190614df2565b6121a69190614cc7565b600485015560646121b78382614caf565b60058601546121c69190614df2565b6121d09190614cc7565b600585015560008360038111156121f757634e487b7160e01b600052602160045260246000fd5b14156122325760115461220e9060ff16600a614d21565b6122189082614df2565b60038501805460009061222c908490614caf565b90915550505b600383600381111561225457634e487b7160e01b600052602160045260246000fd5b141561228f5760115461226b9060ff16600a614d21565b6122759082614df2565b600685018054600090612289908490614caf565b90915550505b60018360038111156122b157634e487b7160e01b600052602160045260246000fd5b14156122ec576011546122c89060ff16600a614d21565b6122d29082614df2565b6004850180546000906122e6908490614caf565b90915550505b600283600381111561230e57634e487b7160e01b600052602160045260246000fd5b1415612349576011546123259060ff16600a614d21565b61232f9082614df2565b600585018054600090612343908490614caf565b90915550505b8684600b018760ff168154811061237057634e487b7160e01b600052603260045260246000fd5b6000918252602090912001555050505050505050565b60006001600160a01b0382166123f05760405162461bcd60e51b815260206004820152602960248201527f4552433732313a2061646472657373207a65726f206973206e6f7420612076616044820152683634b21037bbb732b960b91b60648201526084016105f0565b506001600160a01b031660009081526003602052604090205490565b612414613158565b61241e600061355e565b565b600b546001600160a01b031633148061244857503360009081526013602052604090205460ff165b6124a65760405162461bcd60e51b815260206004820152602960248201527f536e65616b65724e46543a20556e617574686f72697a656420746f206d696e7460448201526820536e65616b65727360b81b60648201526084016105f0565b811561253457600c5460405163a9059cbb60e01b81526001600160a01b038581166004830152602482018590529091169063a9059cbb90604401602060405180830381600087803b1580156124fa57600080fd5b505af115801561250e573d6000803e3d6000fd5b505050506040513d601f19601f8201168201806040525081019061253291906146a0565b505b801561094c57600d5460405163a9059cbb60e01b81526001600160a01b038581166004830152602482018490529091169063a9059cbb90604401602060405180830381600087803b15801561258857600080fd5b505af115801561259c573d6000803e3d6000fd5b505050506040513d601f19601f820116820180604052508101906125c091906146a0565b50505050565b60408051808201909152600080825260208201526040805180820182526000848152601260205291909120600701548190600160a81b900460ff16600481111561262057634e487b7160e01b600052602160045260246000fd5b8152600084815260126020908152604090912060070154910190600160b01b900460ff16600381111561266357634e487b7160e01b600052602160045260246000fd5b905292915050565b6126966040518060800160405280600081526020016000815260200160008152602001600081525090565b50600090815260126020908152604091829020825160808101845260038201548152600482015492810192909252600581015492820192909252600690910154606082015290565b60606001805461079190614e77565b6126f83383836135b0565b5050565b61270633836131b2565b6127225760405162461bcd60e51b81526004016105f090614b9c565b6125c08484848461367f565b600b546001600160a01b031633148061275657503360009081526013602052604090205460ff165b6127b85760405162461bcd60e51b815260206004820152602d60248201527f536e65616b65724e46543a20556e617574686f72697a656420746f207570646160448201526c1d19481b5a5b9d0818dbdd5b9d609a1b60648201526084016105f0565b6000818152601260205260409020600790810154600160b81b900460ff161061282e5760405162461bcd60e51b815260206004820152602260248201527f536e65616b65724e46543a204d6178206d696e7420636f756e74207265616368604482015261195960f21b60648201526084016105f0565b60008181526012602052604090206007018054600160b81b900460ff1690601761285783614ecd565b91906101000a81548160ff021916908360ff1602179055505050565b606061287e8261308b565b600061289560408051602081019091526000815290565b905060008151116128b557604051806020016040528060008152506128e0565b806128bf846136b2565b6040516020016128d0929190614a4a565b6040516020818303038152906040525b9392505050565b6128ef614259565b600082815260126020908152604080832081516101c08101835281548152600182015461ffff8082169583019590955262010000900490931683830152815180830192839052929390926060850192909160028086019290918390855b825461010083900a900460ff1681526020600192830181810494850194909303909202910180841161294c579050505050918352505060408051608080820183526003850154825260048086015460208481019190915260058701548486015260068701546060808601919091529086019390935260078601546001600160a01b0381169486019490945260ff600160a01b8504811693860193909352930192600160a81b9092041690811115612a1357634e487b7160e01b600052602160045260246000fd5b6004811115612a3257634e487b7160e01b600052602160045260246000fd5b81526020016007820160169054906101000a900460ff166003811115612a6857634e487b7160e01b600052602160045260246000fd5b6003811115612a8757634e487b7160e01b600052602160045260246000fd5b81526007820154600160b81b900460ff166020808301919091526008830180546040805182850281018501825282815294019392830182828015612aea57602002820191906000526020600020905b815481526020019060010190808311612ad6575b505050505081526020016009820160009054906101000a900460ff16151515158152602001600a8201548152602001600b8201805480602002602001604051908101604052809291908181526020018280548015612b6757602002820191906000526020600020905b815481526020019060010190808311612b53575b5050505050815250509050919050565b600080826004811115612b9a57634e487b7160e01b600052602160045260246000fd5b1415612ba8575060046105b1565b6001826004811115612bca57634e487b7160e01b600052602160045260246000fd5b1415612bd8575060066105b1565b6002826004811115612bfa57634e487b7160e01b600052602160045260246000fd5b1415612c08575060086105b1565b6003826004811115612c2a57634e487b7160e01b600052602160045260246000fd5b1415612c385750600a6105b1565b6004826004811115612c5a57634e487b7160e01b600052602160045260246000fd5b14156105b15750600c6105b1565b81612c7281611674565b6001600160a01b0316336001600160a01b031614612ca25760405162461bcd60e51b81526004016105f090614b3f565b60008381526012602052604090206007810154600160a01b900460ff16601e14612d085760405162461bcd60e51b815260206004820152602480820152600080516020614faf83398151915260448201526306c2033360e41b60648201526084016105f0565b60098101805484151560ff1990911617905560008481526012602052604090208154815560018083018054918301805461ffff191661ffff938416178082559154620100009081900490931690920263ffff0000199091161790558190610c896002808301908085019061410e565b612d7f613158565b6001600160a01b038116612de45760405162461bcd60e51b815260206004820152602660248201527f4f776e61626c653a206e6577206f776e657220697320746865207a65726f206160448201526564647265737360d01b60648201526084016105f0565b612ded8161355e565b50565b600b546001600160a01b0316331480612e1857503360009081526013602052604090205460ff165b612e765760405162461bcd60e51b815260206004820152602960248201527f536e65616b65724e46543a20556e617574686f72697a656420746f20646563616044820152683c9029b732b0b5b2b960b91b60648201526084016105f0565b60008381526012602052604090206001015460ff831661ffff90911611612ee95760405162461bcd60e51b815260206004820152602160248201527f536e65616b65724e46543a204475726162696c69747920697320746f6f206c6f6044820152607760f81b60648201526084016105f0565b60008381526012602052604090206001015460ff82166201000090910461ffff1611612f575760405162461bcd60e51b815260206004820152601960248201527f536e65616b65724e46543a20485020697320746f6f206c6f770000000000000060448201526064016105f0565b6000838152601260205260408120600101805460ff85169290612f7f90849061ffff16614e11565b92506101000a81548161ffff021916908361ffff1602179055508060ff166012600085815260200190815260200160002060010160028282829054906101000a900461ffff16612fcf9190614e11565b92506101000a81548161ffff021916908361ffff1602179055507f01f0674524c4861ba0ae6596758d877ca0f59250d9e384b03f60d1d2a19612678383836040516107759392919092835260ff918216602084015216604082015260600190565b60006105ae82611674565b60006001600160e01b031982166380ac58cd60e01b148061306c57506001600160e01b03198216635b5e139f60e01b145b806105ae57506301ffc9a760e01b6001600160e01b03198316146105ae565b6000818152600260205260409020546001600160a01b0316612ded5760405162461bcd60e51b8152602060048201526018602482015277115490cdcc8c4e881a5b9d985b1a59081d1bdad95b88125160421b60448201526064016105f0565b600081815260046020526040902080546001600160a01b0319166001600160a01b038416908117909155819061311f82611674565b6001600160a01b03167f8c5be1e5ebec7d5bd14f71427d1e84f3dd0314c0f7b2291e5b200ac8c7c3b92560405160405180910390a45050565b600b546001600160a01b0316331461241e5760405162461bcd60e51b815260206004820181905260248201527f4f776e61626c653a2063616c6c6572206973206e6f7420746865206f776e657260448201526064016105f0565b6000806131be83611674565b9050806001600160a01b0316846001600160a01b0316148061320557506001600160a01b0380821660009081526005602090815260408083209388168352929052205460ff165b806132295750836001600160a01b031661321e84610814565b6001600160a01b0316145b949350505050565b826001600160a01b031661324482611674565b6001600160a01b0316146132a85760405162461bcd60e51b815260206004820152602560248201527f4552433732313a207472616e736665722066726f6d20696e636f72726563742060448201526437bbb732b960d91b60648201526084016105f0565b6001600160a01b03821661330a5760405162461bcd60e51b8152602060048201526024808201527f4552433732313a207472616e7366657220746f20746865207a65726f206164646044820152637265737360e01b60648201526084016105f0565b6133158383836137cd565b6133206000826130ea565b6001600160a01b0383166000908152600360205260408120805460019290613349908490614e34565b90915550506001600160a01b0382166000908152600360205260408120805460019290613377908490614caf565b909155505060008181526002602052604080822080546001600160a01b0319166001600160a01b0386811691821790925591518493918716917fddf252ad1be2c89b69c2b068fc378daa952ba7f163c4a11628f55a4df523b3ef91a461094c565b60006133e382611674565b90506133f1816000846137cd565b6133fc6000836130ea565b6001600160a01b0381166000908152600360205260408120805460019290613425908490614e34565b909155505060008281526002602052604080822080546001600160a01b0319169055518391906001600160a01b038416907fddf252ad1be2c89b69c2b068fc378daa952ba7f163c4a11628f55a4df523b3ef908390a46126f8565b60008060008061348f8561388a565b6040805161ffff868116825285811660208301528481168284015283166060820152905194985092965090945092507ffcacc34223abcd59332e04c23bb584c4bab065879f2f50ce71b966ce87ae490a919081900360800190a19193509193565b6000806134fc83613ace565b6040805160ff8085168252831660208201529294509092507ffd48624bae13db77935d1f8ed28bccde9dbb8375027fd2d525d090654e99cd73910160405180910390a1915091565b6126f8828260405180602001604052806000815250613ba1565b600b80546001600160a01b038381166001600160a01b0319831681179093556040519116919082907f8be0079c531659141344cd1fd0a4f28419497f9722a3daafe3b4186f6b6457e090600090a35050565b816001600160a01b0316836001600160a01b031614156136125760405162461bcd60e51b815260206004820152601960248201527f4552433732313a20617070726f766520746f2063616c6c65720000000000000060448201526064016105f0565b6001600160a01b03838116600081815260056020908152604080832094871680845294825291829020805460ff191686151590811790915591519182527f17307eab39ab6107e8899845ad3d59bd9653f200f220920489ca2b5937696c31910160405180910390a3505050565b61368a848484613231565b61369684848484613bd4565b6125c05760405162461bcd60e51b81526004016105f090614aed565b6060816136d757506040805180820190915260018152600360fc1b60208201526105b1565b8160005b811561370157806136eb81614eb2565b91506136fa9050600a83614cc7565b91506136db565b60008167ffffffffffffffff81111561372a57634e487b7160e01b600052604160045260246000fd5b6040519080825280601f01601f191660200182016040528015613754576020820181803683370190505b5090505b841561322957613769600183614e34565b9150613776600a86614eed565b613781906030614caf565b60f81b8183815181106137a457634e487b7160e01b600052603260045260246000fd5b60200101906001600160f81b031916908160001a9053506137c6600a86614cc7565b9450613758565b6001600160a01b0383166138285761382381600880546000838152600960205260408120829055600182018355919091527ff3f7a9fe364faab93b216da50a3214154f22a0a2b415b23a84c8169e8b636ee30155565b61384b565b816001600160a01b0316836001600160a01b03161461384b5761384b8382613ce1565b6001600160a01b0382166138675761386281613d7e565b61094c565b826001600160a01b0316826001600160a01b03161461094c5761094c8282613e57565b60008060008060008061389c87613e9b565b600a5460405163dba2586160e01b815260ff8085166004830152831660248201529294509092506001600160a01b03169063dba2586190604401602060405180830381600087803b1580156138f057600080fd5b505af1158015613904573d6000803e3d6000fd5b505050506040513d601f19601f8201168201806040525081019061392891906147a7565b600a5460405163dba2586160e01b815260ff8086166004830152841660248201529197506001600160a01b03169063dba2586190604401602060405180830381600087803b15801561397957600080fd5b505af115801561398d573d6000803e3d6000fd5b505050506040513d601f19601f820116820180604052508101906139b191906147a7565b600a5460405163dba2586160e01b815260ff8086166004830152841660248201529196506001600160a01b03169063dba2586190604401602060405180830381600087803b158015613a0257600080fd5b505af1158015613a16573d6000803e3d6000fd5b505050506040513d601f19601f82011682018060405250810190613a3a91906147a7565b600a5460405163dba2586160e01b815260ff8086166004830152841660248201529195506001600160a01b03169063dba2586190604401602060405180830381600087803b158015613a8b57600080fd5b505af1158015613a9f573d6000803e3d6000fd5b505050506040513d601f19601f82011682018060405250810190613ac391906147a7565b925050509193509193565b60008080836003811115613af257634e487b7160e01b600052602160045260246000fd5b1415613b045750600190506006613b9c565b6001836003811115613b2657634e487b7160e01b600052602160045260246000fd5b1415613b38575060049050600a613b9c565b6002836003811115613b5a57634e487b7160e01b600052602160045260246000fd5b1415613b6c575060089050600a613b9c565b6003836003811115613b8e57634e487b7160e01b600052602160045260246000fd5b1415613b9c57506001905060145b915091565b613bab8383613fa1565b613bb86000848484613bd4565b61094c5760405162461bcd60e51b81526004016105f090614aed565b60006001600160a01b0384163b15613cd657604051630a85bd0160e11b81526001600160a01b0385169063150b7a0290613c18903390899088908890600401614a9d565b602060405180830381600087803b158015613c3257600080fd5b505af1925050508015613c62575060408051601f3d908101601f19168201909252613c5f918101906146d8565b60015b613cbc573d808015613c90576040519150601f19603f3d011682016040523d82523d6000602084013e613c95565b606091505b508051613cb45760405162461bcd60e51b81526004016105f090614aed565b805181602001fd5b6001600160e01b031916630a85bd0160e11b149050613229565b506001949350505050565b60006001613cee84612386565b613cf89190614e34565b600083815260076020526040902054909150808214613d4b576001600160a01b03841660009081526006602090815260408083208584528252808320548484528184208190558352600790915290208190555b5060009182526007602090815260408084208490556001600160a01b039094168352600681528383209183525290812055565b600854600090613d9090600190614e34565b60008381526009602052604081205460088054939450909284908110613dc657634e487b7160e01b600052603260045260246000fd5b906000526020600020015490508060088381548110613df557634e487b7160e01b600052603260045260246000fd5b6000918252602080832090910192909255828152600990915260408082208490558582528120556008805480613e3b57634e487b7160e01b600052603160045260246000fd5b6001900381819060005260206000200160009055905550505050565b6000613e6283612386565b6001600160a01b039093166000908152600660209081526040808320868452825280832085905593825260079052919091209190915550565b60008080836004811115613ebf57634e487b7160e01b600052602160045260246000fd5b1415613ed1575060019050600a613b9c565b6001836004811115613ef357634e487b7160e01b600052602160045260246000fd5b1415613f055750600890506012613b9c565b6002836004811115613f2757634e487b7160e01b600052602160045260246000fd5b1415613f395750600f90506023613b9c565b6003836004811115613f5b57634e487b7160e01b600052602160045260246000fd5b1415613f6d5750601c9050603f613b9c565b6004836004811115613f8f57634e487b7160e01b600052602160045260246000fd5b1415613b9c5750603290506070613b9c565b6001600160a01b038216613ff75760405162461bcd60e51b815260206004820181905260248201527f4552433732313a206d696e7420746f20746865207a65726f206164647265737360448201526064016105f0565b6000818152600260205260409020546001600160a01b03161561405c5760405162461bcd60e51b815260206004820152601c60248201527f4552433732313a20746f6b656e20616c7265616479206d696e7465640000000060448201526064016105f0565b614068600083836137cd565b6001600160a01b0382166000908152600360205260408120805460019290614091908490614caf565b909155505060008181526002602052604080822080546001600160a01b0319166001600160a01b03861690811790915590518392907fddf252ad1be2c89b69c2b068fc378daa952ba7f163c4a11628f55a4df523b3ef908290a46126f8565b5080546000825590600052602060002090810190612ded9190614307565b6001830191839082156141415791601f016020900482015b82811115614141578254825591600101919060010190614126565b5061414d929150614307565b5090565b82805482825590600052602060002090810192821561414157600052602060002091820182811115614141578254825591600101919060010190614126565b6001830191839082156141415791602002820160005b838211156141e457835183826101000a81548160ff021916908360ff16021790555092602001926001016020816000010492830192600103026141a6565b80156142115782816101000a81549060ff02191690556001016020816000010492830192600103026141e4565b505061414d929150614307565b828054828255906000526020600020908101928215614141579160200282015b8281111561414157825182559160200191906001019061423e565b604051806101c0016040528060008152602001600061ffff168152602001600061ffff16815260200161428a61431c565b81526020016142ba6040518060800160405280600081526020016000815260200160008152602001600081525090565b815260006020820181905260408201819052606090910190815260200160008152602001600060ff1681526020016060815260200160001515815260200160008152602001606081525090565b5b8082111561414d5760008155600101614308565b60405180604001604052806002906020820280368337509192915050565b8035600581106105b157600080fd5b805161ffff811681146105b157600080fd5b60006020828403121561436c578081fd5b81356128e081614f59565b600060208284031215614388578081fd5b81516128e081614f59565b600080604083850312156143a5578081fd5b82356143b081614f59565b915060208301356143c081614f59565b809150509250929050565b600080600080600060a086880312156143e2578081fd5b85356143ed81614f59565b945060208601356143fd81614f59565b9350604086013561440d81614f59565b9250606086013561441d81614f59565b9150608086013561442d81614f59565b809150509295509295909350565b60008060006060848603121561444f578283fd5b833561445a81614f59565b9250602084013561446a81614f59565b929592945050506040919091013590565b60008060008060808587031215614490578384fd5b843561449b81614f59565b93506020858101356144ac81614f59565b935060408601359250606086013567ffffffffffffffff808211156144cf578384fd5b818801915088601f8301126144e2578384fd5b8135818111156144f4576144f4614f43565b614506601f8201601f19168501614c7e565b9150808252898482850101111561451b578485fd5b8084840185840137810190920192909252939692955090935050565b60008060408385031215614549578182fd5b823561455481614f59565b915060208301356143c081614f6e565b60008060008060808587031215614579578182fd5b843561458481614f59565b9350602061459386820161433a565b935060408601356145a381614f92565b9250606086013567ffffffffffffffff808211156145bf578384fd5b818801915088601f8301126145d2578384fd5b8135818111156145e4576145e4614f43565b83810291506145f4848301614c7e565b8181528481019084860184860187018d101561460e578788fd5b8795505b83861015614630578035835260019590950194918601918601614612565b50989b979a50959850505050505050565b60008060408385031215614653578182fd5b823561465e81614f59565b946020939093013593505050565b600080600060608486031215614680578081fd5b833561468b81614f59565b95602085013595506040909401359392505050565b6000602082840312156146b1578081fd5b81516128e081614f6e565b6000602082840312156146cd578081fd5b81356128e081614f7c565b6000602082840312156146e9578081fd5b81516128e081614f7c565b600060208284031215614705578081fd5b6128e08261433a565b600060c0828403121561471f578081fd5b61472960c0614c7e565b82518152602083015161473b81614f9f565b6020820152604083015161474e81614f59565b6040820152606083015161476181614f92565b606082015261477260808401614349565b608082015261478360a08401614349565b60a08201529392505050565b6000602082840312156147a0578081fd5b5035919050565b6000602082840312156147b8578081fd5b5051919050565b600080604083850312156147d1578182fd5b8235915060208301356143c081614f6e565b6000806000606084860312156147f7578081fd5b8335925060208401359150604084013561481081614f9f565b809150509250925092565b60008060006060848603121561482f578081fd5b83359250602084013561484181614f9f565b9150604084013561481081614f9f565b6000815180845260208085019450808401835b8381101561488057815187529582019590820190600101614864565b509495945050505050565b8060005b60028110156125c057815160ff1684526020938401939091019060010161488f565b600081518084526148c9816020860160208601614e4b565b601f01601f19169290920160200192915050565b600581106148ed576148ed614f2d565b9052565b600481106148ed576148ed614f2d565b600061024082518452602083015161491f602086018261ffff169052565b506040830151614935604086018261ffff169052565b506060830151614948606086018261488b565b506080830151805160a0860152602081015160c0860152604081015160e086015260608101516101008601525060a0830151610120614991818701836001600160a01b03169052565b60c085015191506101406149a98188018460ff169052565b60e086015192506101606149bf818901856148dd565b61010087015193506101806149d6818a01866148f1565b9287015193506101a0926149ee8985018660ff169052565b828801519450856101c08a0152614a07868a0186614851565b9550818801519450614a1e6101e08a018615159052565b87015161020089015250508401518583036102208701529050614a418282614851565b95945050505050565b60008351614a5c818460208801614e4b565b835190830190614a70818360208801614e4b565b01949350505050565b6001600160a01b039384168152919092166020820152604081019190915260600190565b6001600160a01b0385811682528416602082015260408101839052608060608201819052600090614ad0908301846148b1565b9695505050505050565b6000602082526128e060208301846148b1565b60208082526032908201527f4552433732313a207472616e7366657220746f206e6f6e20455243373231526560408201527131b2b4bb32b91034b6b83632b6b2b73a32b960711b606082015260800190565b6020808252603e908201527f536e65616b65724e46543a204f6e6c79204f776e6572206f662074686973205360408201527f6e65616b65722063616e20706572666f726d207468697320616374696f6e0000606082015260800190565b6020808252602e908201527f4552433732313a2063616c6c6572206973206e6f7420746f6b656e206f776e6560408201526d1c881b9bdc88185c1c1c9bdd995960921b606082015260800190565b6000604082019050614bfd8284516148dd565b6020830151614c0f60208401826148f1565b5092915050565b8151815260208083015190820152604080830151908201526060808301519082015260808101610e92565b6000602082526128e06020830184614901565b8381526001600160a01b0383166020820152606060408201819052600090614a4190830184614901565b604051601f8201601f1916810167ffffffffffffffff81118282101715614ca757614ca7614f43565b604052919050565b60008219821115614cc257614cc2614f01565b500190565b600082614cd657614cd6614f17565b500490565b80825b6001808611614ced5750614d18565b818704821115614cff57614cff614f01565b80861615614d0c57918102915b9490941c938002614cde565b94509492505050565b60006128e060001960ff851684600082614d3d575060016128e0565b81614d4a575060006128e0565b8160018114614d605760028114614d6a57614d97565b60019150506128e0565b60ff841115614d7b57614d7b614f01565b6001841b915084821115614d9157614d91614f01565b506128e0565b5060208310610133831016604e8410600b8410161715614dca575081810a83811115614dc557614dc5614f01565b6128e0565b614dd78484846001614cdb565b808604821115614de957614de9614f01565b02949350505050565b6000816000190483118215151615614e0c57614e0c614f01565b500290565b600061ffff83811690831681811015614e2c57614e2c614f01565b039392505050565b600082821015614e4657614e46614f01565b500390565b60005b83811015614e66578181015183820152602001614e4e565b838111156125c05750506000910152565b600281046001821680614e8b57607f821691505b60208210811415614eac57634e487b7160e01b600052602260045260246000fd5b50919050565b6000600019821415614ec657614ec6614f01565b5060010190565b600060ff821660ff811415614ee457614ee4614f01565b60010192915050565b600082614efc57614efc614f17565b500690565b634e487b7160e01b600052601160045260246000fd5b634e487b7160e01b600052601260045260246000fd5b634e487b7160e01b600052602160045260246000fd5b634e487b7160e01b600052604160045260246000fd5b6001600160a01b0381168114612ded57600080fd5b8015158114612ded57600080fd5b6001600160e01b031981168114612ded57600080fd5b60048110612ded57600080fd5b60ff81168114612ded57600080fdfe536e65616b65724e46543a20536e65616b6572206d757374206265206c657665a2646970667358221220d273e2b557de09b8526f4b0f97e2c907b042eb9dd87a144dc75b3bfa6e40155964736f6c63430008020033",
  "linkReferences": {},
  "deployedLinkReferences": {}
}